:400000000080002011000000991400009914000010B501F061FAC04670B5294D12232B60182002F081FB274A274B1A60274A116802230B431360264A264B1A600024264B80
:400040001C60264A136808218B431360FA20C00002F01CFC224802F05DFB224A224B1A60224B234A1A60234A23490A602349196023490A60234A1A6080210901224A116003
:40008000224A1A6082221206214B1A60214B1C604322214B1A60013A204B1A60013A204B1A60013A1F4B1A601F49082002F0E2FA082002F0C3FA1D4B1C6011232B6070BD21
:4000C000300010400600008004010B4078002E402D3E00007C002E4064F02E406CF02E40DC050000000FF6000C0301400000014043FF008000BF5D000803014042FF008081
:400100000403014041FF00800003014040FF008008010B4000010B402C010140200101401C01014018010140A92A00000C020B4010B572B600222D4B1A6001322C4B1A702B
:4001400000240FE02B486200131959000B00411889881A5AC31858880004104301F068F90134E4B2012CEDD922490C312248603001F044F9EE221206204B1A6099231B044F
:400180001F4A13601F4A13601F4A13607E221F4B1A60603A1E4B1A601E490B781E32934314221343DBB20B701B4A117816230B43DBB213703522194B1A60194A194B1A600B
:4001C000194A1A4B1A601A4A1A4B1A6081221A4B1A60C0221204194B1A600122184B1A60FFF71AFF01F03AF910BDC0466CF02E401C700F40107301009073010000000240AD
:4002000000500F4010500F4030500F402000104000800F4001700F4000700F40000004408220D90008000440220A00000C000440B66D1B000801044000030440080304403B
:400240001803044010B5064C2378002B07D1054B002B02D0044800E000BF0123237010BDA8100020000000005C710100084B10B5002B03D00749084800E000BF07480368F9
:40028000002B00D110BD064B002BFBD09847F9E700000000AC1000205C710100A00B00200000000010B501F065FA0421002001F071FA044801F0FCF9FA20C00002F012FA3A
:4002C00010BDC0466871010010B500F013FC012806D1002101F05EFA104801F0E9F91CE0022807D10321013801F054FA0B4801F0DFF912E0032807D10621023801F04AFAB7
:40030000064801F0D5F908E0042806D10E21033801F040FA014801F0CBF910BD7471010000230AE0834203D10121064AD15402E00021044AD1540133DBB2034A127893425F
:40034000F0D3704700230020A40B0020F0B5474680B482B0012001F0BDF90020FFF7E0FF01F046FE050001F05BFE04002B0D0322904613409A00D31859002A0C0F273A40CA
:400380008A18280B072630408300181841002B0A3B40CB18290931408800411848003D404519294E00952949300004F051FB230D424613409A00D3185900220C3A408A187C
:4003C000230F012119408B0059184800230E3B40C318200B41460840FA25AD0029004143200A3840642568434018210939408D0069184D0040193C400419154D00941549A0
:40040000280004F025FB0021002001F0C3F9300001F04EF90B21002001F0BCF90E4801F047F90F21002001F0B5F9012001F04EF90021012001F0AEF9280001F039F902B092
:4004400004BC9046F0BDC046F022002078710100E02200208C710100A071010010B584B00400012001F036F90820FFF759FF0021002001F08FF90B4B1B78A3420BD10A4B78
:400480001A6800929A8869468A809B798B71684601F00EF904E0200000F0B6FE01F008F904B010BD7C240020A871010030B583B004000D00012001F00DF90920FFF730FF13
:4004C0002A000A49684604F0C3FA0021002001F061F9200001F0ECF80021012001F05AF9684601F0E5F803B030BDC046B071010070B582B0012001F0EDF80720FFF710FF5B
:4005000000F0CEFB00F084FC050000F087FC060000F08AFC0C4C009033002A000B49200004F096FA0021002001F034F9200001F0BFF80E21002001F02DF9054801F0B8F8E6
:40054000FFF7C2FE02B070BDE0220020B4710100C471010070B582B0012001F0BBF80620FFF7DEFE00F000FB00F040FC050000F043FC060000F046FC0C4C009033002A008C
:400580000B49200004F064FA0021002001F002F9200001F08DF80E21002001F0FBF8054801F086F8FFF790FE02B070BDF0220020C8710100C471010010B50400012001F0E3
:4005C00089F80220FFF7ACFE0021002001F0E2F8E400064B1C19606801F06AF80021012001F0D8F8A06801F063F810BDA40B002010B50400012001F06DF80120FFF790FE4F
:400600000021002001F0C6F8E400064B1C19606901F04EF80021012001F0BCF8A06901F047F810BDA40B002010B50400012001F051F80320FFF774FE0021002001F0AAF821
:40064000E400064B1C19606B01F032F80021012001F0A0F8A06B01F02BF810BDA40B0020002005E0054B1B5C002B06D10130C0B2034B1B789842F5D3002070470023002096
:40068000A40B0020024B18186423C1547047C046A40B002010B50F21002001F07BF85E2001F014F80F21012001F074F8002001F00DF810BD10B5094C21780131C9B20820B9
:4006C000FFF7E0FF002000F01BFA0020FFF7C6FE2378002B01D0FFF7DDFF10BD7C24002070B500F095FD050000F042FE040001000920FFF7C7FF002000F002FA0021280015
:4007000000F03CFE00F044FE012C01D9FFF7C2FF70BDC04610B5012000F0DCFF0420FFF7FFFD0B4B1B78012B0DD100F0AFFC094B1B78002B03D0084800F0BAFF07E0074803
:4007400000F0B6FF03E0042B01D1FFF7C9FF10BD200C002030230020D8710100E471010010B5FFF77DFF041E01D1FFF7EFFD0E4B1B78042B16D1042C02D0092C03D011E0FC
:40078000FFF7C8FF0EE0094B1B78002B0AD000F03FFD040000F0A8F9C1B2200000F0EEFD00F0F6FD10BDC046200C0020D010002010B5FFF7D5FF10BD024B18186423C05CF5
:4007C0007047C046A40B002010B501F0ADF801F0BBF810BD10B5FFF7F7FFFFF763FD00F099F90E4801F02AF90D4801F061F90D4801F096F90C4801F0DBF80C4802F0F2F9F0
:400800000B4803F005FC03F0DFFC0A4803F010FD00F026FCFFF79AFD10BDC04691090000DD0A0000D1080000E908000029120000E1110000B107000070B5FFF711FF040080
:400840000500FFF7B9FF0138C0B2002803D100221D4B1A8037E0002835D0062C02D0072C03D005E0FFF776FE2DE0FFF741FE2AE0154B00229B5E002B02DA134B188004E0B5
:40088000834202DD0022104B1A80082D19D8A4000E4B1B599F460C4B1878FFF7A9FE10E0094B1878FFF788FE0BE0074B1878FFF7BBFE06E0FFF74EFE05E0034B1878FFF7D0
:4008C000CDFDFFF7E7FE70BDC41000208872010010B5044A138801331380FFF7ADFF01F0F5F810BDC410002010B5044A1388013B1380FFF7A1FF01F069F810BDC41000205B
:4009000010B5FFF7ADFE030009282ED880001D4A12589746FFF71AFD27E000221A4B1A7000F0CAFBAA2000F0ABFB0020FFF760FE0020FFF75DFE18E014498A78013AD2B2B4
:400940008A7000200880002A02D1FFF76DFE0CE0042A0AD8062B02D0072B03D005E0FFF7F9FD0DE0FFF7C4FD0AE0FFF779FEFFF723FF012801D0FFF78DFE0022034B1A800A
:4009800010BDC046AC72010030230020C410002010B5FFF7B5FF01F023F810BD10B5FFF75FFE0300082800D982E08000464A125897460020FFF71CFE7AE0444B00229B5E85
:4009C000012B0ED002DC002B05D071E0022B0FD0032B78D06CE000223D4B1A70FFF79AFE71E001223A4B1A700020FFF71DFE5FE00222374B1A700020FFF7DEFD58E0334B64
:400A000001229A7000229B5E002B02D0012B05D059E000F03BFAFFF79DFD54E000222B4B1A8000F03BFAFFF763FD4CE027498A780132D2B28A7000200880042A0DD9062B65
:400A400002D0072B03D004E000F0F4F901E000F007FA0020FFF7E8FD0CE0012A0AD9062B02D0072B03D005E0FFF774FD2BE0FFF73FFD28E0154B0020185E164B1B789842BA
:400A80000AD100F003FB0022134B1A70AA2000F0F7FAFFF73FFE0BE00C4A9278934207D001220D4B1A70C0B200F0A8FBFFF732FEFFF7D6FDFFF780FE012801D0FFF7EAFD4A
:400AC0000022024B1A8010BDD4720100C41000200C2300207C2400203023002010B5FFF75DFF00F0B9FF10BD014B0020185E7047C4100020014B98787047C046C41000203D
:400B0000014B18807047C046C410002010B501F03FFD10BD10B501F053FF0F4801F0F4FE00240AE0200001F063FF002804D10B49200001F055FF02E00134042CF2D901F0E5
:400B40001DFD074B1968074B186801F08BFB0A21012000F0F3FF10BD009F24000D0B0000140C0020C810002010B5FFF7C3FF0400FFF7BAFFC0B2012C11D100280FD1444BE9
:400B800000201856434A1070434A12785A709A78424B1A70023000B2FFF7B2FF2CE0022C11D100280FD13A4B3A4A12781A7001201856394A1070394A12789A70023000B237
:400BC000FFF79EFF18E0032C0ED100280CD1304B314A12785A7002201856304B1870023000B2FFF78DFF07E0042C05D1002803D12A4B1A78264B9A70FFF776FFC0B2012C9F
:400C000015D1023840B2234B1870172806DD0220FFF776FF00221F4B1A7037E0002835DA1920FFF76DFF17221A4B1A702EE0022C15D1023840B2184B18703B2806DD022035
:400C4000FFF75EFF0022144B1A701FE000281DDA3D20FFF755FF3B220F4B1A7016E0032C14D1023840B20D4B18703B2806DD0220FFF746FF0022094B1A7007E0002805DA69
:400C80003D20FFF73DFF3B22044B1A7010BDC0462023002018230020112300201023002010B5FFF727FF0400FFF71EFF80B2012C11D100280FD1444B00201856434A1070CC
:400CC000434A12795A705A88424B1A80023000B2FFF716FF2BE0022C11D100280FD13A4B3A4A12781A7001201856394A1071394A12885A80023000B2FFF702FF17E0032C4F
:400D00000DD100280BD1304B314A12795A705888304B1880023000B2FFF7F2FE07E0042C05D1002803D12B4B1A88274B5A80FFF7DBFE83B2012C15D1023840B2234B187043
:400D40001F2806DD0320FFF7DBFE01221F4B1A7039E0002837DC2120FFF7D2FE1F221B4B1A7030E0022C15D1023840B2184B18710C2806DD0320FFF7C3FE0122144B1A717A
:400D800021E000281FDC0E20FFF7BAFE0C22104B1A7118E0032C16D1023B1BB20D4A13800D4A934206DD0D48FFF7AAFE0C4A094B1A8008E00B4A934205DC0B48FFF7A0FEFD
:400DC000054A044B1A8010BD142300201C230020140C00201A23002002080000E5070000E3070000E207000004080000014B00201856704718230020014B00201856704749
:400E000011230020014B00201856704710230020014B0020185670471C230020014B042018567047140C0020014B0020185E70471A23002010B5074A1078000453781B0235
:400E4000184393781843044B1860044B196801F009FA10BD20230020C8100020140C002010B5074A5178090613781B04194353881943044B1960044B186801F0F3F910BD52
:400E800014230020140C0020C8100020024B00221A705A709A70704720230020034B01221A705A70024A5A807047C04614230020E307000010B502280CD002D8012805D030
:400EC00030E0032818D0042829D02BE0012003F019F927E0144A1388013B9BB21380002B20D1124A104B1A8003F018F943425841C0B203F007F915E00B4A5388013B9BB2BB
:400F00005380002B0ED1FA229200074B1A8003F005F943425841C0B203F0F4F802E0002003F0F0F810BDC0461A0C00201027000070B50600454B1D78092D14D985E0630072
:400F40001B195800424BC018A20012199300414AD31858600622716803F05AFD002808D00134A4B200E00024ABB29C42E7D3012300E00023002B68D06B005B195800344BE3
:400F8000C018344AA9004C19A300D3185860307A1872F068D8603478481983009C547078D318587000230CE0284A127891008A189100284A51184A687168C95CD1540133F5
:400FC000DBB2052BF0D900230BE0204A12787168C85C51008A1851001D4A5118C8540133DBB2052BF1D9194B1C7810217156A20012199300174AD3181974062271681648F9
:4010000003F006FD002807D01BE07268D15C134AD1540133DBB200E00023052BF5D9A3001C19A3000B4AD3185A780C4B9A710122064B5A7001F05AFE002003F005F802F0FD
:40104000F5FF024A13780133137070BDCC10002034230020B4230020AC23002028230020064B00225A71A0321A71503ADA703E3A9A7022325A7076321A707047AC23002016
:40108000014B18707047C046AC23002010B5084B9B78002B0BD0074B1B78012B07D10022034B9A7003F01EF8002001F0F1FD10BDCC100020200C002010B5064B1B78042B27
:4010C00006D1054B18780EF0E3FD0122034B9A7010BDC046200C002024230020CC10002010B5064B5B78002B07D0054801F00AFE04F006F90022014B5A7010BDCC10002039
:4011000028230020F0B583B000200EE0410009184A002F498A180021D1540133DBB200E00023052BF2D90130C0B22A4B1B789842F6D30022274B1A70002530E02C006B005B
:401140005B195A00244E961906223100684603F05FFC002825D0052301200DE0610009194A001D498A18D15C1C4AD2181279914200D00020013BDBB2002BEFD100280CD080
:40118000144F3C7863001B195800114BC0180622310003F04CFC01343C700135EDB2092DCCD9FFF787FA00200EE0410009184A0009498A180021D1540133DBB200E00023A1
:4011C000052BF2D90130C0B20928F8D903B0F0BD702300207C24002034230020200C002010B502F023FF0122034B9A7001F07EFDFFF788FF10BDC046CC10002010B5FFF7F2
:401200003FFFFFF743FF10BD00487047F8720100014B18787047C046AC230020014B18707047C0462F23002030B589B0282861D007D8202829D027283DD0012800D08AE0F8
:401240000CE0412832D002D82B280BD083E0462868D089235B0098425DD07CE001223F4B9A7078E03E4B1B78052B0AD101223D4B1A703A4B5B78002B6DD1012002F042FF1C
:4012800069E00222374B1A7065E0354B1B78022B08D003A803000A0032CA32C312CA12C3FFF746FE02222F4B1A7054E002222E4803F0BDFB4FE02C4A1378507800021843CE
:4012C00001F09CFD0322274B1A7044E08A0052189300264AD31800225868027058684270586882705868C270586802715B685A71013100E00021194B1B789942E6DB174BEA
:4013000000221A705A70DA700132164B1A700120FFF7D0FD1FE00122104BDA700332114B1A7018E06B460A0031CA31C34C68A078FFF774FFFFF76CFF0500FFF7D5FBC1B293
:40134000280000F01BF800F015F8A178FFF7AEF80122024B1A7109B030BDC046CC10002002250020200C002024230020B4230020012070470048704704730100002802D1B2
:401380004900024BCB5A18007047C0462C0C002030B58DB000220F4B1A7005AB01321A80023A5A8001AA108006A9059B069307AB31CA31C312681A6001230B75064A137853
:4013C0005078000218430FF01BFD03F099FF0DB030BDC046D01000202423002010B562B6FFF7F8F9044B1878FFF764FDFFF778FE03F086FFF6E7C046200C0020F0B5002538
:40140000002711E0BB00C658F3B2FF22964308E06A008A181478A419527822700135013BDBB2002BF4D10137062FEBD9F0BDC04610B50A00002103F003FB10BD064B1B682E
:40144000002803D080221206134301E05B005B08014A13607047C04680033A4010B50323084A1360084A136080221206074B1A600122074B1A600022064B1A600120FFF75C
:40148000DDFF10BD300030403000314000003A4000033A40000E3F4010B503F08DFA03680C2B00D1FEE7FEE710B50300084A1068C318084A9A1A802A02DC054A136005E0A0
:4014C00003F07AFA0C2303600120404210BDC046300C00203025002070B50F4E0F4D13E029686B68AC68002202E001C901C30432A242FAD1E868002202E0002102C304327C
:401500008242FAD11035013E002EE9D103F05AFAFFF764FFFEE7C04601000000BC77010010B50E4A136801218B43136000230AE0032B03D89A000A49505800E00948990080
:40154000094A885001332F2BF2D9FEF7F1FD034A116801230B43136010BDC0460000104000000000991400000000002010B50B4C226860239A4322602268513B9A4322606C
:40158000226810230343D8B210432060012001F0C1F8236810229343236010BD0001044070B505000E4C22682023134323602368402293432360002001F0ACF823680F22F7
:4015C00093432360226810232B43D8B210432060012001F09FF8236810229343236070BD00010440F8B5274A13687F218B43136025490B681B0B1B03244803430B601368A2
:4016000020218B431360116840230B431360CA277F00002001F07EF81A4C2368102633432360012001F076F8194B1D682368B3432360002001F06EF808231D402368334307
:401640002360012001F066F82368B3432360002D02D10A2001F05EF8013F002D01D0002FD7D1084B1A6840218A431A601A683F318A431A60044A13681B0B1B0305490B438E
:401680001360F8BD00010440080104404902000004010440B60D000010B50400FFF7A2FF2009FFF77DFF0F202040FFF779FF10BD70B505000078012404E0FFF7EDFF285D42
:4016C0000134E4B20028F8D170BDC04610B5FFF7E3FF10BD10B50400FFF784FF2009FFF745FF0F202040FFF741FF10BD10B5282000F0F8FF0320FFF739FF052000F0F2FF0F
:401700000320FFF733FF0F2000F0ECFF0320FFF72DFF012000F0E6FF0220FFF727FF052000F0E0FF0620FFF7D5FF0E20FFF7D2FF2C20FFF7CFFF0820FFF7CCFF0120FFF7F2
:40174000C9FF0C20FFF7C6FF0320FFF7C3FF052000F0C8FF014800F03BF810BD0C74010010B50C20FFF7B6FF0122014B1A7010BDD110002010B5064B5B78002B04D1FFF707
:40178000B5FF0122024B5A70FFF7EAFF10BDC046D110002010B501280BD0002804D002280CD003280FD012E08039C8B2FFF792FF0DE04039C8B2FFF78DFF08E06C39C8B29E
:4017C000FFF788FF03E02C39C8B2FFF783FF10BD70B50500FFF706FF4020FFF77BFF002404E0285DFFF758FF0134E4B23F2CF8D9FFF7F8FE8020FFF76DFF70BD10B503218B
:401800000F2000F049FF24490F2000F033FF0122224B1A60224B1B68002B01DA214900E02149224A13680B431360214A214B1A60214A224B1A600023214A1360214A2249AD
:401840000A6022490A6022490A688020400202430A60204A1360204A136001221F4B1A601F4A11681F4B0B40802189050B43136000230DE09A001C495118802040010860B2
:40188000580000241949445219481A4950500133002BEFD010BDC0465D19000020003A4080033A40700210517002005100003A408C00008004003A400000FF0718003A4020
:4018C0001C003A400200020010003A4014003A4000033A4028023A4038023A4018023A4030003A40FEFFFFDF80003A40842400203E1800008024002010B5094B1B68002BA5
:401900000CDB084B1B68002BFBDB054A1368802109060B4313600A2000F0FCFE10BDC04600003A4008023A4010B5064B1B78002B04D1FFF763FF0122024B1A70FFF7DCFFFD
:4019400010BDC046D3100020034A1368802149020B4313607047C04604003A40014B1A681A60704710023A40014B98647047C0460000002010B5040002F073FC044A116840
:40198000044B0B40A4051C43146002F06EFC10BD00E400E0FFFF3FFF0422014B1A60704700E100E00422014B1A60704780E100E010B50400FFF7F6FF2000FFF7D5FF0320DF
:4019C000FFF7D8FFFFF7E8FF10BDC046034A10680423184010608008C0B2704710000440034A10682023184010604009C0B2704710000440014B58647047C0460000002036
:401A000010B5040002F02DFC044A1168044B0B40A4031C43146002F028FC10BD00E400E0FF3FFFFF0222014B1A60704700E100E00222014B1A60704780E100E010B50400F7
:401A4000FFF7F6FF2000FFF7D5FF0320FFF7D8FFFFF7E8FF10BDC046034A10681023184010600009C0B2704710000440014BD8647047C0460000002010B5040002F0F1FB9F
:401A8000044A13689B009B08A4071C43146002F0ECFB10BD00E400E00822014B1A60704700E100E00822014B1A60704780E100E010B50400FFF7F6FF2000FFF7D7FF032024
:401AC000FFF7DAFFFFF7E8FF10BDC046024A1068012318401060704710000440014B18657047C0460000002010B5040002F0B9FB044A1368C0218B43A4011C43146002F0B5
:401B0000B4FB10BD04E400E01022014B1A60704700E100E01022014B1A60704780E100E010B50400FFF7F6FF2000FFF7D7FF0320FFF7DAFFFFF7E8FF10BDC046014B1860FB
:401B400059607047D8100020F8B54F464646C0B480468946030B03251D40FA2189000A006A43030A0F210B40642043439D1843461B090B409A00D3185B005B1945460D40BD
:401B80005D1900260027574C1FE0A30705D16421200002F017FD002908D1C8214900200002F010FD002903D1012302E0012300E00023002B04D04C4A0023B6185F4103E00F
:401BC0004A4A0023B6185F410134AC42DDD343461B0F012213409A00D3185B004246120E0F210A409B185A1E52004149545A022B16D9AB0705D16421280002F0E3FC0029C2
:401C000008D1C8214900280002F0DCFC002903D1012302E0012300E00023002B00D0013434494C4322000023B6185F4143461A0D03252A4093009B185B004246120C0F24D2
:401C400022409B184B432C4A9818002136184F414B461B0D2B409A00D3185B004A46120C14401B198022120449460A4000D00122002A0DD08022D20349461140914201D1DB
:401C8000012200E00022002A02D00B2B00D80C33E12212015A431000002136184F414B461B0B072423409900CB1859004B461A0A0F231A4089180A01521A90000021361882
:401CC0004F414A461209224091008A18520049460B40D0180021801979410CBC90469946F8BDC046B20700000085E2018033E1014C7401008051010080AEFEFF70B50C00AF
:401D0000431E0F4AD3181D7E022816D18B0705D16421200002F056FC002908D1C8214900200002F04FFC002903D1012302E0012300E00023002B00D00135280070BDC046BA
:401D40004C740100F0B55F4656464D464446F0B485B0824614001D00A04BA14A0296039717001DE0009A019BA41A9D410137BB0705D16421380002F025FC002908D1C82154
:401D80004900380002F01EFC002903D1012302E0012300E00023002B01D0924B00E08F4B009300230193002DDCD1009A019B9D4201D19442D6D8B84641460120FFF79EFF11
:401DC000894B5843012399460AE0A41BBD4101239C46E14441464846FFF790FF824B584306000027AF42F0D1A042EED97E4A00232000290002F0D6FC7B4941430A000023A8
:401E0000AB4203D1A14201D900220023A41A9D41471CE122120100232000290002F0C2FC0090E121090141430E9B002B14D0002D03D10AD16D4B9C4207D9009B0C2B0ED9CB
:401E40000C38009001239B460EE0009B002B09D19B460C33009307E000239B4604E001239B4601E000239B460A000023AB4203D1A14201D900220023A41A9D413C22002382
:401E80002000290002F08EFC06000101891B8A000023AB4203D1A24201D900220023A41A9D41029403950A21484602F005FB05070A21484602F086FB0C0625430A213800B6
:401EC00002F0FAFA04052C430A21380002F07AFB0D042C43FA218900404602F0EDFA05032543FA218900404602F06CFB0C006421200002F0E1FA000205436421200002F0E5
:401F000061FB0C000A21200002F0D6FA000105430A21200002F056FB0D4353465D600E9BDB055A4695052B431C000A21009802F0C3FA050525430A21009802F043FB0C047B
:401F400025430A21300002F0B7FA04032C430A21300002F037FB09020C430A21029D039E280002F0A9FA000104430A21280002F029FB0C4353461C604B46022B05D80C23A5
:401F80009C46E1440D3B9C46E044484601301A2358430A2102F090FA3F184744434698083F186421404602F087FA4300181840003F18C8214900404602F07EFA381807210A
:401FC00002F000FB002900D107315346996005B03CBC90469946A246AB46F0BD8033E101B20700000085E20180510100C1A8000010B582B0074B1A685B68074CA06800214D
:4020000012184B41054C00912000FFF79BFE206802B010BDD8240020D8100020BC24002010B582B0074B1A685B68074CA068002112184B41054C00912000FFF783FE60682D
:4020400002B010BDD8240020D8100020BC240020F0B55F4656464D464446F0B483B0834689461700009319001000FFF747FE824601230193984601262DE0022F04D8380066
:402080000C30009B5D1E01E0009D380001301A2358430A2102F010FA34186019AC0804196421280002F008FA430018184300E418C8214900280002F0FFF92018072102F069
:4020C00081FA002900D107318B4503D101239C46E04401960136C84501D85645CDD90A21380002F0E9F904070A21380002F06AFA09060C430A21019D280002F0DDF9000559
:4021000004430A21280002F05DFA09040C43FA218900009D280002F0CFF900030443FA218900280002F04EFA0D006421280002F0C3F9000204436421280002F043FA0D0053
:402140000A21280002F0B8F9000104430A21280002F038FA2000084303B03CBC90469946A246AB46F0BDC046F0B589B005003C4B1A685B680021009104A8FFF7E3FD059AD1
:40218000130B03211940FA239B004B431E00110A0F242140642003004B43F118130923409800C3185800091822408C182B7D012B3ED12B69AE680A210393180002F07CF915
:4021C00007070A21039802F0FDF909060F430A21300002F071F9000507430A21300002F0F1F909040F43FA218900200002F064F900030743FA218900200002F0E3F90E0026
:402200006421300002F058F900023C0004436421300002F0D7F90E000A21300002F04CF9000104430A21300002F0CCF90C4306E023002A69E9686868FFF70AFF04002E680B
:402240000A21300002F038F905050A21300002F0B9F9090429432000FFF776FC09B0F0BDD8240020F0B583B001900E000B0D032423409A00D31858000F0C0F231F40C719D2
:402280000A0F01210A4091008A185100300E18400D18320B1440FA22920062431000340A1C4064210A006243841832091A4091008A18510064183340E41801993000FFF738
:4022C00043FC324B18605960314B5E60019A1A60022D01D80C35013C681C1A2358430A2102F0EAF8C7193F19A308FF186421200002F0E2F8430018184300FF18C821490057
:40230000200002F0D9F83818072102F05BF9002900D107311E4B99601E48FFF725FF1E4C206161611D48FFF71FFFA061E161174B1A685B682069616999421FD801D190420F
:402340001CD8124B18685968134B9A69DB69994214D801D1904211D80122114B1A70E12212010D4B9A6009490C684D680D4A01235B4212196B410A604B6004E00023084A89
:402380001370054A936003B0F0BDC046D8240020BC24002088240020D8100020A4240020D0240020F0F1FFFF10B51A4B197502681A6042685A60C268DA6082689A60026974
:4023C0001A611800FFF7D0FE134B18615961134A106851681A695B698B4215D801D1824212D80E4B186859680B4B9A69DB6999420AD801D1904207D80122094B1A70E1226B
:402400001201054B9A6004E00023054A1370024A936010BD88240020D8100020D8240020D024002010B51A4B197502681A6042685A60C268DA6082689A6002691A61180010
:40244000FFF792FE134B9861D961134A106851681A695B698B4215D801D1824212D80E4B186859680B4B9A69DB6999420AD801D1904207D80122094B1A70E1221201054B58
:402480009A6004E00023054A1370024A936010BDA4240020D8100020D8240020D0240020F0B5474680B486B001242B4B1C702B4D0023AB602A4A13602A4A137002222A4B3D
:4024C000DA606B461C7503260096019406239846039316270297049601216846FFF764FF6B461C75009601944346039302970433049301216846FFF795FF1C48FFF734FEFD
:40250000286169611A48FFF72FFEA861E961194B1A685B6828696969994214D801D1904211D8144B186859680C4B9A69DB69994209D801D1904206D801220A4B1A70E1228F
:402540001201064B9A600C490020FFF78BFE06B004BC9046F0BDC046A0240020D8100020CC240020D0240020BC24002088240020A4240020D82400201920010110B5034BDC
:402580001B78002B01D1FFF78BFF10BDA024002070B5214B1A6A19688C4662441A621A6A5B689A4236D31D4B1C685D68012000210019694118605960174A00211162186848
:4025C000596853691269904208D1994206D10122134B1A70E12212010F4B9A600E4CA269E369A0680021121A8B410C490868496882420FD18B420DD10023094A1370A3607E
:402600000848FFF7B1FD206161610748FFF7ACFDA061E16170BDC046D8100020D8240020D024002088240020A4240020024B1B68012018407047C0460C002E401F231840F9
:402640001E3B8340014A13607047C04600E100E001BE704770B504000D000F2802D90020FFF7F6FFA40080239B059C4664442068256070BD70B504000D001F2802D9002016
:40268000FFF7E6FF1034A40080239B059C4664442068256070BDC04670B504000E00032902D90020FFF7D4FF1F2C02D90020FFF7CFFF03252540ED00063501F0D2FDA408F8
:4026C000A400074B9C46644421680323AB4099430B003100A9401943216001F0C6FD70BD00E400E010B5040006E0084B586801F0AFFD074B9C46644480231B029C42F4D898
:40270000024B9868604301F0A3FD10BD340C00200080FFFF10B5034B1B7B584301F098FD10BDC046340C0020F0B557464E46C0B483B0040001F095FD0190E71E2D2F74D82E
:402740003F4B1B78DBB29C4208D83E4B1B78DBB29A463D4B1B78DBB2994631E03B4B1B78DBB29C4208D83A4B1B78DBB29A46394B1B78DBB2994623E0374B1B78DBB29C42E1
:4027800008D8364B1B78DBB29A46354B1B78DBB2994615E0334B1B78DBB29C4208D8324B1B78DBB29A46314B1B78DBB2994607E02F4B1B78DBB29A462E4B1B78DBB2994617
:4027C0002D4BDE5D2F2E09D92A2C07D919222B4B1A60052001F03CFD192503E0274B1D683F231D40B54206D9234BDA5D234B1A60052001F02DFD1F4B9C4664442378DBB2A1
:402800001F4A13601F4B52461A601F4B4A461A600520FFF77FFFB5420AD2174BDA5D174B1A60052001F014FD02E00020FFF710FF019801F01AFD03B00CBC91469A46F0BD3D
:4028400040F3FF0F41F3FF0F42F3FF0F43F3FF0F44F3FF0F45F3FF0F46F3FF0F47F3FF0F48F3FF0F49F3FF0F4AF3FF0F4BF3FF0F4CF3FF0F4DF3FF0F707401002CFF0B4014
:4028800028FF0B401CFF0B4020FF0B4010B504000F4A116801230B4313600E4A0E4B1A600E4A1368802109020B431360002809D100200CE00120FFF72DFFFFF7B7FE0028C7
:4028C00004D1013C002CF5D1102000E0002010BD60F02E400220000078002E4010002E40024A116802230B431360704710E000E010B5FFF7F5FF034A116801230B43136007
:4029000010BDC04610E000E00002000A014B18607047C04614E000E0012805D1054A116804230B43136004E0024A136804218B431360704710E000E0024B1868000C01234F
:402940001840704710E000E010B5FFF7F5FF01280BD107E0A300054A9B58002B00D09847013400E00024042CF4D910BDFC1000200022014B1A60704718E000E010B5002390
:4029800004E0990000200B4A88500133042BF8D909490F20FFF75EFE0120FFF7BDFF074B1869FA21890001F087FDFFF7ADFFFFF7DFFF10BDFC10002049290000340C002046
:4029C00010B5064B5B69002B04D1FFF7D7FF0122024B5A61FFF78CFF10BDC046FC100020024A8300985899507047C046FC1000208000014BC0587047FC100020034B186860
:402A0000C0231B02184000D00120704700010B4010B501F026FC044A1368C02109020B43136001F022FC10BD00010B4010B501F018FC08490A68084B1A408024E4012243AC
:402A40000A600A6813408022120213430B6001F00CFC10BD00010B40FF3FFFFF70B5050001F0FFFB0400FFF7C9FF002803D0FFF7DDFF012100E0002108482840084A156814
:402A8000084B2B40184310601368012901D1FFF7BFFF200001F0E9FB70BDC0460404040010020B40FBFBFBFF10B5244B1B685B0715D5234B5B685B070ED5224B596A042014
:402AC00001401F4C62688A4362605A6A82435A629B69002B00D098470420FFF7BFFF174B1B685B0518D5164B5B685B0510D5154B596A8022D2001140114842688A434260E1
:402B0000596A114A0A405A62DB69002B00D098478020C000FFF7A2FF084B1B685B030CD5074B5B685B0304D5064B1B6A002B00D098478020C002FFF791FF10BD10020B4039
:402B4000480C002014110020FFFBFFFF10B50A4B1B88002B04D10E220021084801F070FF054BDB88002B04D106220021044801F067FF01F065F810BDA80C002018250020FB
:402B80000825002010B50022104B1A70104B1A70104B1A7010494888104B18808888588088791873C97919714021D981103119825A824131FF319982DA82013A1A831F3221
:402BC000074B1A80FFF7C2FF10BDC046282500201025002026250020500C0020E4240020FE24002010B590B00400142220490BA801F01DFF1F4B1B78002B04D1FFF7C2FF30
:402C000001221C4B1A70002C2ED01B4B1C6008A805AA426006AB0893002101811B311980598017391971082313701231694402F043FC002819D100230293019305330093F4
:402C40000BABAE2212010D490D4802F08BFB00280BD101220B4B1A7007320B4B1A700D210A480FF06BFE00E0012010B010BDC046A07401003C110020E0240020C000002076
:402C8000D93900000225002003250020B474010010B5022821D8002807D1114B00221A8150325A80403A9A8009E0012807D10C4B96221A81802212015A80F83A9A80094B96
:402CC000187007480DF07EFA002807D1064A117804230B43DBB2137000E0012010BDC046500C0020262500202825002010B50DF093FA034A117808230B43DBB2137010BD87
:402D00002825002010B5134B1B78052B1CD100281DD0002305E0C15C0F4AD21851710133DBB2052BF7D983790B48C3720DF0F8F9041E0DD10422074B1A70084B18880028C4
:402D400006D00AF0EFF903E00424FF3400E00124200010BD02250020E4240020FE24002010B50B4B1B78042B0ED10DF0CFF90400084B1B88002B01D00AF0EEF9002C05D160
:402D80000522034B1A7001E00424FF34200010BD02250020FE24002003784078000218437047C04670B5050083890D2B1FD1043033332A0000210FF0D9FD041E11D1686829
:402DC000FFF7EAFF830706D50A4B1B68290082204000984705E0074B1B6829000620FF309847054A137801218B43137000E00024200070BDE02400202825002010B582B090
:402E000001AB18801E4B1B78022B31D11D4B1B78002B0FD0052B2ED100240CE063001B195800194BC0180422002101F009FE0134E4B200E00024022CF0D9022201A9134886
:402E400001F0F5FD124B01221A80023A5A80FFF77DFE01980DF096FF00280ED10122094B1A700C4A117802230B43DBB2137004E00420FF3001E00420FF3002B010BDC04649
:402E80000225002003250020A80C002014250020042500202825002010B5C288094B9A420FD1094B5B88002B05D18288064B5A8082781A7005E0811D044B1B688620400055
:402EC000984710BD052A000008250020E024002010B58288084B9A420DD1084B9B88002B03D14288054B9A8005E0011D044B1B6886204000984710BD022900000825002022
:402F0000E024002010B5084B5A8883899A420AD1064B1B680100832040009847044A137801218B43137010BD08250020E024002028250020074B00225A701A70064B1B7876
:402F4000052B03D10732044B1A7002E00822024B1A707047142500200325002010B5C3883F4A93426CD007D83E4A93421DD058D8013A93420AD071E03B4A934233D03B4AE0
:402F800093423FD03A4A934268D11DE0394B1B88002B03D18288374B1A805FE0811D364B1B6886204000984758E0324B5B88002B03D182882F4B5A8050E0811D2E4B1B68ED
:402FC00086204000984749E02A4B1B89002B03D18288284B1A8141E0811D274B1B688620400098473AE0234B5B89002B03D18288204B5A8132E0811D1F4B1B6886204000FC
:4030000098472BE01B4B9B89002B03D18288194B9A8123E0811D184B1B688620400098471CE0144B9B88002B03D18288114B9A8014E0811D104B1B688620400098470DE029
:403040000C4BDB88002B03D182880A4BDA8005E0811D094B1B6886204000984710BDC046032A0000012A0000A62A0000C92A0000042A000018250020E024002082B00023CD
:403080006A4613805380094B1B78002B06D1084B5B8801331380074B1B895380009B180C00041B041B0C184302B070472725002008250020A80C002010B504000378032B7F
:4030C00035D1204B1B789B0731D51F4B1B78022B11D0DAB2022A02D8012B05D01FE0032B10D0042B15D01AE0184B1B6800210820FF30984713E0154B1B6800218420400053
:4031000098470CE0114B1B6800210A20FF30984705E00E4B1B680021852040009847094A137802218B4313700022074B1A702378042B05D1064B1B78042B01D1FFF710FE0D
:4031400010BDC0462825002003250020E02400200225002010B582B00400FFF723FE0A4B1B78DB070ED4002809D001A912238B70A3890B80C87020680EF078F902E0206873
:403180000EF0ECF902B010BD282500208379002B07D000200BE0C25C002A07D10133DBB200E00023052BF6D9002000E001207047F0B54F464646C0B483B00600454B1B78E6
:4031C000012B00D080E0444B1B789B0700D47BE00789062F01D0142F70D173899846002464E073689946A1444B461B883B4A128893424AD3394A5288934248D8062F3CD1AC
:4032000001234A4613750023002531E001956800401942003248821890884A469288904224D16800401941002D48085A00280AD16B00591948002A4B18180422494601F077
:40324000F6FB012312E0012D08D8691C4800411848002349081881888A4207D04B46191D204B1B680C20FF30984701230135ADB2022D0DD8002BC9D00AE002234A461375EC
:40328000484600F019FD002302E0002300E00023002B09D1104B1B78DB0705D5114B1B6849461220FF309847E419A4B2444598D3094A137801218B43137005E0094B1B689E
:4032C00000210820FF30984703B00CBC90469946F0BDC046032500202825002004250020A80C0020E0240020F0B54F464646C0B487B0764B1B789B0700D4E1E00589478944
:403300004468734B1B78032B68D163E02000FFF743FD6B461880A3786A469370E01CFFF73BFD6B469880631D9846152D1ED102236A469375414610226B46981D01F077FB98
:4033400015239846A044634B1878420012185300614AD3189A88614B9A4232D0022830D1023880B2694600F0DDFC2AE0072D28D101236A4693754046FFF70EFD6B46D88062
:40338000E31D9846534B1878420012185300524AD3189B88C0225201934203D0504A934204D007E06846FFF7D9FD0AE06846FFF773FD06E0022804D1023880B2694600F029
:4033C000B1FC424A137801218B4313707619B6B2444600E00026BE4298D371E0022B6FD16BE02000FFF7D8FC6B461880A01CFFF7D3FC81466B465880201DFFF7CDFC6B46EA
:403400009880A31D9846062D22D102236A4693750DF06EFD334A137850780002184349460DF0E6FC002807D12F490B006A4613CA13C313CA13C337E02C4B1B680021842061
:4034400040009847214A137802218B4313702BE0082D29D101236A4693754046FFF79CFC01006B46D88008239846A044002319E05800C018420018488218928891420FD14D
:403480005A00D2185000144A825A002A08D103001148C01804326B46991C01F0C8FA03E001339BB2022BE3D9084A137801218B4313707619B6B2444600E00026BE4290D331
:4034C00007B00CBC90469946F0BDC046282500200325002027250020A80C0020FEFF0000011800001425002040110020E0240020F0B587B000236A465380254B1B78042B38
:4035000044D1244B1B789B0740D50689037B1375028869460A80012B01D1042700E01227456800242BE02800FFF736FC6B465880A81C1B7D022B0DD10100102201A801F03A
:4035400076FA1235144B1B78012B16D1684600F0D7FC12E0FFF720FC6B46988004350E4B1B78002B02D16846FFF7B2FC0A4B1B78012B02D1684600F0C3FC3C19A4B2B442F7
:40358000D1D3044A137801218B43137007B0F0BD03250020282500202725002030B583B0050001AB00221A805A802E4B1B78012B0ED0002D06D00133DBB22A4A1370012B3A
:4035C00006D104E00022274B1A70012500E00025244B1B78012B04D1280000F02FFC01900125204B1C78012C02D0FFF747FD019001AB1B881C4A1288934209D91A494988C7
:403600008B4205D801A949888A4201D88B4201D9012CCAD9012C15D8144A137850780002184301A90DF07CFB002819D0104B1B6800218520400098470E4A137802218B435B
:4036400013700DE005220C4B1A70094B1B680021892040009847074A137802218B43137003B030BD272500200425002014250020E0240020282500200325002010B500284E
:4036800004D0224A13780133137006E000221F4B1A7002E001331D4A13701C4B1B78022B0CD85A00D2185100194A8A5A194909888A42EFD3174949888A42EBD8022B1DD842
:4036C00013495A00D3185A001348535A8A1851880904194303784078000218430DF036FB002811D00D4B1B6800210A20FF3098470B4A137802218B43137005E00422094B35
:403700001A700020FFF74AFF10BDC04627250020A80C00200425002014250020E0240020282500200325002010B5002804D0214A13780133137008E000231E4A13701E4A46
:40374000138002E001331B4A13701A4B1B78022B0CD85A00D2185100184A8A5A184909888A42EFD3164949888A42EBD8022B19D85A00D3185900114B5918124A137850785D
:40378000000218430DF016FB002811D00E4B1B6800218420400098470C4A137802218B43137005E003220A4B1A700020FFF766FF10BDC0462725002040110020A80C002098
:4037C0000425002014250020E0240020282500200325002030B587B00400244B1B78022B42D1234B1B88002B3ED0214DA91C0422684601F01CF96168228901A801F017F977
:40380000684600F059FA2B8801339BB26A461380184A127851008A185100174A51184A8869464A80934214D8144A13785078000218430DF0BFFA00280ED0114B1B68002150
:403840008420400098470F4A137802218B43137002E00120FFF768FF0A4A137801218B4313700022024B1A8007B030BD032500204011002027250020A80C0020142500207C
:40388000E02400202825002030B587B00400244B1B78022B42D1234B1B88002B3ED0214DA91C0422684601F0C2F86168228901A801F0BDF8684600F0FFF92B8801339BB28C
:4038C0006A461380184A127851008A185100174A51184A8869464A80934214D8144A13785078000218430DF065FA00280ED0114B1B6800218420400098470F4A1378022145
:403900008B43137002E00120FFF70EFF0A4A137801218B4313700022024B1A8007B030BD032500204011002027250020A80C002014250020E02400202825002010B51D4B21
:403940001B789B0734D51C4B1B78022B16D0DAB2022A02D8012B05D02AE0032B17D0042B1ED025E00222144B1A700020FFF7DCFE104A137801218B43137019E00120FFF7C3
:40398000D3FE0C4A137801218B43137010E00120FFF774FE074A137801218B43137007E00120FFF7FBFD034A137801218B43137010BDC046282500200325002010B5054B3C
:4039C0001B789B0704D583790A2B01D1FFF7B6FF10BDC04628250020F0B583B005000C00864A117801230B43DBB21370582800D9F3E08300824AD3589F4601AE07273770F8
:403A000000237370300003F04BFC377001237370300003F045FC01F06BFC7A4B1E683000FFF7B4FB002803D0300001F06DFC21E0754B1F78754B18788001FC263601020083
:403A400032403F2139401143714B1B781B03F8225202134019436F4B1B785B04FE22120413400B436C4803701A0A42701B0C837001F04AFC03200CF045FA01A83F23037070
:403A8000002343700CF05CFA0522644B1A70A4E02000FFF711FBA0E02278614B1A709CE02378002B00D098E06378002B07D15D4B0022DA839A835C4A9A61183363604F4A94
:403AC000137801218B43137087E04C4B1B789B0600D582E0554B1B7D102B02D10522534BDA75534B1878514914310CF01DF874E0504B1B88002B01D009F02EFB0222474B81
:403B00001A706AE00522454B1A7066E0434B1B78022B62D0394A1278D2075ED5374A1278520708D503223D4B1A70344A137804218B43137051E0314A1278120708D5052247
:403B4000364B1A702D4A137808218B43137044E0032B42D10522314B1A703EE002222100334800F064FF00232D4A1370324A137033E0FFF7DFF930E06188162900D91721B5
:403B800020880DF07DFC28E02000FFF7E3FA24E02000FFF70DFB20E02000FFF7A5FB1CE0FFF7CCFE19E02000FFF7A2FC15E02000FFF704FF11E02000FFF7A4F90F4B1B780C
:403BC000DB070AD420680DF0A3F806E02000FFF701FE02E02000FFF757FE084B1A7811231A4209D0054A137801218B431370134B1B6821002800984703B0F0BD282500202C
:403C0000C07501005C0C00207CF2FF0F7DF2FF0F7BF2FF0F78F2FF0F600C0020022500201025002040110020A00B0020A80C002014250020FE24002003250020E02400209B
:403C4000F0B5002630E03000B31C5A00D3185A00174BD35A002B1ED024E00301154AD318DB682C011B1900221A80002308E0D7685900C9188A00BA180021118001339BB25E
:403C800002010C498A18D2681219917A8B42EED30135ADB200E000250301064AD3185B7A9D42DAD30136B6B2002ECCD0F0BDC046A80C0020C40C0020F8B5060000270024F4
:403CC00024E025002301144AD3181B7A022B1BD1311D2301D3185868102200F099FE002812D102356B005B195A000C4BD35A002B0AD10A4B98180422310000F098FE084A71
:403D000013780133137001270134A4B2002C01D1002FD6D0F8BDC046C40C0020A80C002027250020F8B54F464646C0B406000F003E4B1B68002B09D03C4A9288824202D132
:403D40000A88013A1A800022384B1A6000239846002450E0BD7D022D12D13301344AD318DA682301D3181A7A022A0CD1B91D58680E3200F04DFE002808D00023994607E097
:403D80000023994604E00023994601E001239946012D11D13301264AD318DA682301D3181A7A012A08D1B91D5868013200F030FE002801D1012399464B46012B19D13301F0
:403DC0001B4AD318DA682301D2181188002910D1B98811803101164A5218D168C918B8784872D268D3180233104A13609680012398460134A4B233010D4AD3185B7A9C42BB
:403E000002D24346002BA5D0084B1968002908D0084B1B785A00D3185A00074B9A1853880B800CBC90469946F8BDC04660110020C40C002027250020A80C002030B583B0B0
:403E400000236A461380538000281CD0284AD3885C1C11890A01274DAA18527A944202D2234AD48014E04A1C05D1214B013119810022DA800CE020490A7801320A70013302
:403E80001B4AD38004E01A4B00221A81DA80012017490B891A01174CA218547ACA8894420BD91B011349CB18D9681301CB18198801316D4629805B886B806B461B880F4987
:403EC00009888B4209D90D4D6D88AB4205D86D466D88A94201D8AB4201D99442B4D8009B180C00041B041B0C184303B030BDC04660110020C40C0020272500200425002094
:403F0000F8B54F464646C0B4060000239846002542E0377D022F12D16A0052199300E268944663441A7A022A0CD1311D58680E3200F06EFD002808D00023994607E00023A4
:403F4000994604E00023994601E001239946012F11D16A0052199300E268944663441A7A012A08D1311D5868013200F051FD002801D1012399464B46012B0BD1E1686A00F3
:403F800052199300CB181A88002A03D172881A80012398460135EDB2094A13891B010949CB18DB68D48824011C19A37A9D4202D24346002BADD00CBC90469946F8BDC046A3
:403FC00060110020C40C0020014B58657047C0460000002010B5040000F043F9044A1168044B0B40A4031C43146000F03EF910BD04E400E0FF3FFFFF2022014B1A607047D3
:4040000000E100E02022014B1A60704780E100E010B50400FFF7F6FF2000FFF7D5FF0320FFF7D8FFFFF7E8FF10BDC04610B500F018F9044A136802218B43136000F015F990
:4040400010BDC046000020400004000C014B18607047C046480120400004000C014B18607047C0465401204070B504000D0000F0F8F8AC40024B1C6000F0F7F870BDC046B0
:404080000800204010B500F0ECF8064A116802230B43136000F0E9F818210220FFF7E4FF10BDC04600002040014B18607047C0467801204010B580229204074B1A600C22C7
:4040C000064B1A600020FFF7EFFF0548FFF7C4FF0020FFF7B9FF10BD40012040640120408813000010B5064B1B78002B04D1FFF7E1FF0122024B1A70FFF7C4FF10BDC0464A
:404100006A11002004490A687F231A40C301D8B2104308607047C04600030440024B1868C009012318407047040304400004000C014B18607047C046080120400004000CFE
:40414000014B18607047C0461401204070B504000D0000F086F8AC40024B1C6000F085F870BDC0460800204010B500F07AF8064A116801230B43136000F077F8182101205A
:40418000FFF7E4FF10BDC04600002040014B18607047C0463801204010B580229204084B1A600C22074B1A600020FFF7EFFFFA208000FFF7C3FF0020FFF7B8FF10BDC0461F
:4041C000000120402401204010B5064B1B78002B04D1FFF7E1FF0122024B1A70FFF7C4FF10BDC0466B110020014B98657047C0460000002010B5040000F033F8044A116867
:40420000044B0B40A4051C43146000F02EF810BD04E400E0FFFF3FFF4022014B1A60704700E100E04022014B1A60704780E100E010B50400FFF7F6FF2000FFF7D5FF032000
:40424000FFF7D8FFFFF7E8FF10BDC046000000000230800803D00138FDD1C046C046C0467047EFF3108072B6704780F31088704710B5FFF7F6FF044A136804218B43136072
:4042800030BFFFF7F2FF10BD10ED00E00160704701607047324B1A781202324B1B781A43314B1B781B02314909780B4330498B4201D1072A06D0D42109018B4206D1042A59
:4042C00004D102E02B4B042200E02A4B2A490B602A4B1A602A4B1B781B022A4A1278134380229201934202D0002B02D002E0264B00E0254B254A1360254B1B781B02254AE3
:4043000012781343244A934205D0244A934204D0052B05D103E0224B02E0214B00E0204B204A1360204B1B681B09204A1268AA2A15D1012B13D9164B1B780E2B0FD11C4B66
:404340001B781B021B4A127813431B4A13601B4B1B781B021A4A127813431A4A1360704759F1FF0F58F1FF0F5FF1FF0F5EF1FF0F580B0000580D00006C002E4074002E409A
:404380005BF1FF0F5AF1FF0F0220000078002E405DF1FF0F5CF1FF0F0F0F000005050000050F000080002E40EC0F00F0E00F00F06DF2FF0F6CF2FF0F84002E406FF2FF0F5D
:4043C0006EF2FF0F94002E4010B5FEF7A3F910BD10B5FEF787F910BD10B500F04BF810BD10B500F04FF810BD10B500F04BF8034800F02AF8032000F02DF810BDB144000046
:4044000010B5024800F046F810BDC046B144000000487047020200002B2070472B2070472B2070472B2070472B2070472B2070472B2070472B2070472B2070472B20704760
:404440002B2070477047C046014B18677047C0460000002010B50400FFF703FF044A1368C0218B43A4011C431460FFF7FEFE10BD0CE400E080225201014B1A607047C0461D
:4044800000E100E080225201014B1A607047C04680E100E010B50400FFF7F4FF2000FFF7D3FF0320FFF7D6FFFFF7E4FF10BDC04610B512F03FFE10BD002243088B4274D3FC
:4044C00003098B425FD3030A8B4244D3030B8B4228D3030C8B420DD3FF22090212BA030C8B4202D31212090265D0030B8B4219D300E0090AC30B8B4201D3CB03C01A5241BD
:40450000830B8B4201D38B03C01A5241430B8B4201D34B03C01A5241030B8B4201D30B03C01A5241C30A8B4201D3CB02C01A5241830A8B4201D38B02C01A5241430A8B4293
:4045400001D34B02C01A5241030A8B4201D30B02C01A5241CDD2C3098B4201D3CB01C01A524183098B4201D38B01C01A524143098B4201D34B01C01A524103098B4201D3C7
:404580000B01C01A5241C3088B4201D3CB00C01A524183088B4201D38B00C01A524143088B4201D34B00C01A5241411A00D20146524110467047FFE701B5002000F0F0F86E
:4045C00002BDC0460029F7D076E7704703460B437FD4002243088B4274D303098B425FD3030A8B4244D3030B8B4228D3030C8B420DD3FF22090212BA030C8B4202D312122C
:40460000090265D0030B8B4219D300E0090AC30B8B4201D3CB03C01A5241830B8B4201D38B03C01A5241430B8B4201D34B03C01A5241030B8B4201D30B03C01A5241C30A0B
:404640008B4201D3CB02C01A5241830A8B4201D38B02C01A5241430A8B4201D34B02C01A5241030A8B4201D30B02C01A5241CDD2C3098B4201D3CB01C01A524183098B42C9
:4046800001D38B01C01A524143098B4201D34B01C01A524103098B4201D30B01C01A5241C3088B4201D3CB00C01A524183088B4201D38B00C01A524143088B4201D34B0062
:4046C000C01A5241411A00D201465241104670475DE0CA0F00D04942031000D34042534000229C4603098B422DD3030A8B4212D3FC22890112BA030A8B420CD389019211D7
:404700008B4208D3890192118B4204D389013AD0921100E08909C3098B4201D3CB01C01A524183098B4201D38B01C01A524143098B4201D34B01C01A524103098B4201D338
:404740000B01C01A5241C3088B4201D3CB00C01A524183088B4201D38B00C01A5241D9D243088B4201D34B00C01A5241411A00D20146634652415B10104601D34042002BB7
:4047800000D54942704763465B1000D3404201B5002000F005F802BD0029F8D016E770477047C046002B11D1002A0FD1002900D1002802D00021C943081C07B4024802A191
:4047C0004018029003BDC046D9FFFFFF03B4684601B5029800F006F8019B9E4602B00CBC7047C046F0B54D46564644465F46F0B4924683B004000D0099468B422FD82CD067
:404800004946504600F0CCF829000600200000F0C7F8331A9846203B9B4600D574E053465A4693401F005346424693401E00AF4229D826D05B46A41BBD41002B00DA79E030
:40484000002200230092019301235A4693400193012342469340009319E08242D0D900220023009201930C9B002B01D01C605D600098019903B03CBC90469946A246AB4678
:40488000F0BDA342D6D900220023009201934346002BE8D0FB0772081A4346467B080EE0AB4201D1A2420CD8A41A9D41012024196D410021013E24184D41002E06D0AB42C0
:4048C000EED9013E24196D41002EF8D15B460098019900196941002B22DB2B005A46D3402A004446E2401C005B461500002B2CDB26009E40330026004746BE403200801AA6
:40490000994100900191AEE7424620239B1A5246DA40414613004A468A4017001F4382E7424620239B1A2A0046469A402300F3401343D5E74246202300219B1A0022009112
:4049400001920122DA40019282E74246202326009B1ADE402F00B446974066463B003343C9E7C0461C2101231B04984201D3000C10391B0A984201D3000A08391B099842F5
:4049800001D30009043902A2105C40187047C0460403020201010101000000000000000010B5002903D1FFF7DDFF203002E0081CFFF7D8FF10BDC046014B18687047C04696
:4049C000A01000200E4B70B500251E000D4CE41AA410A54204D0AB00F35898470135F8E712F0DAFE084B00251E00084CE41AA410A54204D0AB00F35898470135F8E770BD2E
:404A0000A4770100A4770100A4770100AC77010030B50024A24208D0035D651C0C5DA34201D0181B02E02C00F4E7002030BD002310B59A4203D0CC5CC4540133F9E710BD58
:404A400003008218934202D019700133FAE770470EB410B59DB002A9029008610B48822488604861012040421FABC881084804CBA400006801938C8100F06EF80023029A02
:404A800013701DB010BC08BC03B01847FFFFFF7FA0100020F0B58E6885B007000C00039201939E4243D890238A89DB001A423ED003250969236801985B1A029363695D4372
:404AC000EB0F5D19029B6D1001331B18AB4200D91D00530510D52900380000F037FB061E14D0029A2169FFF7A2FFA289194B134080221343A38112E02A00380000F086FB9A
:404B0000061E0CD12169380000F0D4FA0C23402201203B60A38940421343A38117E0029B2661F61826606561019EED1AA560019BB34200D21E0032000399206800F0A5FAF9
:404B40000020A3689B1BA36023689E19266005B0F0BDC0467FFBFFFFF0B59FB0029005938B890F0016001B0610D50B69002B0DD1402100F0EBFA38603861002804D10C233C
:404B8000029A01381360D8E040237B61002306AD6B6120336B761033AB7634002378002B03D1A31B049312D003E0252BF9D00134F4E7A31B320039000298FFF76BFF431CE9
:404BC00000D1B4E06A69049B944663446B612378002B00D1ABE00122002352426A6002A95432521801342B60EB60AB601370AB65534E21780522300000F03CFA002807D0D1
:404C00000123801B83402A68013413432B60EFE72B68DA0604D55322202102A8121811701A0704D553222B2102A81218117022782A2A03D0099B00200A210EE0059A111DA2
:404C400012680591002A01DB099204E05242EA60022213432B6001340BE02278303A092A04D84B4301349B180120F6E7002800D0099323782E2B1ED163782A2B0AD1059BF3
:404C800002341A1D1B680592002B01DA01235B42079310E000230A201A0001346B6021783039092904D84243013452180123F6E7002B00D00792234E21780322300000F09D
:404CC000D9F9002806D04023801B83402A68013413432B60217806221B48661C297600F0C9F9002812D0194B002B06D10722059B073393430833059314E005AB00933A00F7
:404D0000134B2900029800E000BF07E005AB00933A000F4B2900029800F08AF80390039B013304D06B69039A9B186B6135E7BB890B985B0601D5012040421FB0F0BDC04638
:404D400062770100687701006C77010000000000954A0000F7B5170001938A680B6900900C00934200DA130022003B6043321278002A01D001333B6023689B0602D53B686F
:404D800002333B60062523681D401ED0230043331B785A1E9341226892061CD53020E1184331087021005A1C45310978A2184332023311700FE0220001231932019900983D
:404DC000089EB047431C0ED00135E3683A689B1A9D42F0DBDAE72200019943320098089DA847431C02D10120404220E006232068E1683A6803400025042B03D18D1AEB4388
:404E0000DB171D40A3682269934201DD9B1AED180027BD420AD0220001231A3201990098089EB047431CDED00137F2E70020FEBDF0B58BB006920A0043320793059004920A
:404E40000A7E0C00109B6E2A00D1ABE011D8632A22D009D8002A00D1B5E0582A00D0C5E045310A70814A4FE0642A1DD0692A1BD0BCE0732A00D1AAE009D86F2A29D0702AAB
:404E800000D0B3E0202209680A43226037E0752A1FD0782A33D0A9E00E001A684236111D196013683370A4E021681A68080606D4490604D5111D19600023D55E02E0111DC1
:404EC00019601568002D3BDA2D23049A6D42137036E021681A68080606D4490604D51568111D1960ADB202E0111D196015685F4B227E039308276F2A1DD00A271BE02200BD
:404F00007821453211705A4A19680392081D226818600D68100602D4500600D5ADB2D30702D520231A4322601027002D03D1202322689A4322602300002243331A7002E0B6
:404F40000A274A4B03936368A360002B09DB0422216891432160002D05D1049E002B11D07BE0002D79D0049E28003900FFF72AFB039B013E5B5C280033703900FFF79CFA30
:404F8000051EF1D1082F09D12368DB0706D563682269934202DC3023013E3370049B9B1B23612BE009681A68080607D4490605D5111D19601368A28A1A8004E0111D196019
:404FC000136862691A600023049E236116E01A68111D1960166800216268300000F04AF8002801D0801B6060636803E0260042363270012323610023049A1370079B09AA3B
:4050000000932100069B0598FFF7A4FE431C02D10120404227E02369320006990598079DA847431CF4D0236800259B070FD4099BE068984217DA180015E0220001231932D0
:4050400006990598079EB047431CE1D00135E368099A9B1A9D42F0DBE9E72600039B42361B7833708EE70BB0F0BDC0467377010084770100C9B28218904204D003788B42B6
:4050800002D00130F8E70020704710B5884202D98B18984201D3002305E09B1A013A08D3995C8154FAE7934203D0CC5CC4540133F9E710BD70B50500002944D00C1F236818
:4050C000002B00DAE418280000F0D8F81E4A13681100002B02D16360146031E0A3420DD92268A018834203D118685B688218226063600C6024E0A24203D813005A68002A97
:40510000F9D11E689819A0420BD12168711858181960824214D110685268411819605A600EE0A04202D90C232B6009E021686018824203D1106852684118216062605C60DD
:40514000280000F09CF870BDDC220020032370B5CD1C9D43083506000C2D01D20C2501E0002D01DBA94202D90C23336048E0300000F084F8234B1C681A002100002913D035
:405180000B685B1B0DD40B2B02D90B60CC181EE08C4202D1636813601AE04B6863600C0016E00C004968E9E7174C2368002B03D1300000F051F820602900300000F04CF886
:4051C000431C18D00323C41C9C43A0420DD12560300000F054F8200007220B30231D9043C31A0ED05A42E2500BE0211A300000F033F8431CEBD10C233000336000F03FF80D
:40520000002070BDDC220020D8220020F8B506000C001500002904D11100FFF797FF040018E0002A03D1FFF745FF2C0012E000F027F885420ED929003000FFF787FF071E71
:4052400007D021002A00FFF7F2FB21003000FFF731FF3C002000F8BD002370B5064C050008002360FCF720F9431C03D12368002B00D02B6070BDC0462C2500207047704715
:405280000B1F1A68101F002A04DA891804390B68D018043870470000134A1088810703D08107890F401A001D11791030484381B25088820703D08207920F801A001D8000DB
:4052C00040180A494030098980B2CA0701D0503080B2890706D504495422091F09785143081880B270470000F60C00207811002010B501F0F5FE10BD10B501F0F7FE10BD4E
:4053000010B500F05BFA10BD10B50749044609780220002907D1204601F038FF002802D120460AF0D9FE10BD860E002070B504460120002C12D02368002B0FD0616800292D
:405340000CD0074D06222889208118462968FFF76EFB6968606809780170002070BD000078110020FFB585B0002768460E9D07734F481C460078002802D0082009B0F0BDD8
:4053800010990F9801900095029105A807C800F007F90028F2D16946264603AB84460873002C19D0002115E08A00B75A082F09D990198078002805D0083FB7521878401CC6
:4053C000187005E0002914D00027B75290198770491CC9B2A942E7D360460028CED10F98002809D0109901F02BFA002804D00120C4E701208446EFE701F078FE2D48002184
:40540000416081600599016021888180022D07D3A1798171A17AC171A1890181218A418100211EE0481C19E082008B00A75AE65ABE46BE4211D26F463E80B4461E190296D9
:40544000B678BE7001967646E6521719029EBB78B3706646A652019EBE70401CA842E3D3491CA942DED3134822460C3000906846037B0799069800F01BF90028B8D1684655
:405480000B4C007B60700B480C3001F05FFE0028AED1084907480C3107F0FAFD0028A7D107F014FE0028A3D10121217066E70000F00C00206C110020F8B5054636480F4632
:4054C0000078002802D002242046F8BD002F60D000243249002D16D02A89D0070DD02868002808D003881B3BE12B04D24088FB2801D81B2801D2012409E0900707D5686803
:40550000002804D1F7E70020088108604860002CDAD122482E8906811F481B21801D01804180042101711C490020891C0870F00705D019480622801D2968FFF778FA174952
:40554000B00703D56A68144812788270124D0E46AD1D281F0D60486001F03EFE284601F02DFE30890EF0B0FB30890DF0C7FC28880DF0CAFC30890EF0DFFC03461033FFF700
:405580008BFE1F21C018890140183880A91F88809AE7012498E70000F00C002078110020FFB58446384F1C460020BB883F78054602460646002F11D100290ED00299994208
:4055C0000BD36146002908D0002C06D00A99002906D02E4B0B99994202D2012004B0F0BD002144E0AB001F19BF78002F3BD0E35A002B38D07B43591889B22B0000F04AF863
:40560000050410161C253100A7782388BC46FF27233BEB37BB4222D26346032B1FD322E0A388002B1FD0302B19D31CE02389002B19D0282B13D316E0A289002A13D0134693
:40564000134F233BBB420AD20DE0268A002A0AD033460F4F233BBB4201D2964203D901200EE0002001E000280AD16D1CEDB2099B9D42B7D31C2463435B1802998B42ACD8AA
:405680009642AAD8AAE70000F00C002079020000BAFF000030B47446641E2578641CAB4200D21D46635D5B00E31830BC18470000FFB583B0002469460C801F4606468C80EC
:4056C000002806D00598002803D004983043800701D0012466E0002FFBD03449049809888842F6D3FEF78CFEFEF77AFE00F012FC002855D100F062FD002851D12C49084677
:4057000001F0D2F805042D0C4AD12A480499066081800021C18007810C98007AC00704D0684601F0FCFC040007D10C98007A800703D501A801F0FCFC0446BF1DFEB2002CB4
:4057400020D13146059800F05DF804001AD10EF001FC040016D16A461088928808368518144AF1B29088D288AEB29319984207D3401B801A80B201F087FB050007D000E044
:40578000FF25012400F05EFA002D04D008E0F8B200F01CF9F6E700F081FA07490120087000F0CAFB204607B0F0BD0000F40C0020F158000084110020FC0C002010B50348BA
:4057C0000078012801D101F001FA10BDFC0C002070B5084B0446DA889E8803205518B54206D8186880182060D8884018D880002070BD000084110020014800897047000073
:4058000084110020F0B587B007460D4600208900009006916846FFF7DBFF844600285DD1304800990160002117E02E4B88001A680629115406D22C4C04196678821856707D
:40584000628805E0C419203CA67A8218567022891B68C018491C4280C9B2A942E5D300242DE0601CC2B2059025E01E4FA30039689600581840887118039604904E88B0429D
:4058800017D938466F46FE80B6464F786E4677710297049F4F800168039F5E18767879184E700168764659184E800068029F18184770521CD2B2AA42D7D30598C4B2AC4242
:4058C000CFD36046002809D168460699FFF780FF8446002802D1054900980860604607B0F0BD0000000D0020D0770100040D00207047000010B5002809D005494A68002A32
:4059000005D0011F08788000105801F06BFA10BD000D002010B50446FFF76EFFC0B2801DA0420CD307484068002808D0A100405801F0CAF9002801D00470001D10BD00201D
:4059400010BD0000000D0020F8B516460D460446FFF752FFC0B2801DA04203D20020C0430090F8BDB2B2E9B2684601F0D3F90099481C03D0024AA000526811500098F8BD84
:40598000000D0020F8B50746FFF736FF801DC6B20A49002005460C680DE06178002907D06188B94202D32078FFF7B4FF002804D1241D6D1CEDB2B542EFD3F8BD000D00208D
:4059C00010B5002801D0FFF795FF10BD70B506460948002504680BE06178002905D062882078121D0023FFF7AFFF241D6D1CEDB2B542F1D370BD0000000D0020FFB581B0A2
:405A00000A9F16000C4620D000F0F2F8054604281BD0002F0CD03846FFF7B4FF20492A0151184860002810D03A460499FEF7FFFF1B4928010E5046187781019805702004C7
:405A400006D47D20C000444304E0FF2005B0F0BD6404640C00F0BAF80746042807D000F04FFAA0420BD800F04BFA201A03E0204600F0AAFA0020F06035720020E6E700F0FB
:405A80003FFA009000F0B6FA00980121001B009000F0ECF802493A0151180098C860E6E790110020F8B5060116483418217A042903D0E068002802D017E00020F8BD00F010
:405AC0001FFA054600F096FA00F0A0F804280CD001010C480F18F8680021451900F0C6F80020F860284600F06FFA6068054D002801D0FFF765FF042020720020A8516081CC
:405B0000E060DAE790110020FEB500266A46304601232549050169180D7A042D02D0C96800291BD000211154401CC0B20428F0D300246846005D002830D01B48210108187D
:405B40004189476805680291002101604160042241810272C160002E02D015E01354E3E700F054F804280ED001010F4808180190C6680021304600F079F801980021C16095
:405B8000304600F021FA0126002D07D038460299A847002F02D03846FFF712FF641CE4B2042CC6D3FEBD0000901100200EB5002005216A4600901181508103486946006842
:405BC0000FF02DF80EBD0000080D0020074A0020010189180B7A042B02D0C968002903D0401CC0B20428F3D370470000901100200549002002015218127A042A03D0401CBE
:405C0000C0B20428F6D370479011002030B50A4B04200A4C00210A011219157A042D06D0D268002A03D09A4201D808461346491CC9B20429EFD330BDFFFF000090110020D6
:405C40007047000030B50020074C05460423020111190B72A5504D60401C4D81C0B2CD600428F4D330BD00009011002030B5094C00231A011219157A042D04D0D568002950
:405C800006D02D18D5605B1CDBB2042BF1D330BD2D1AF7E790110020002070471CB5002469460C70142001902346054A05480EF0BBFF04480068401C00D1FF2420461CBD0E
:405CC000195D0000080D00203EB5124A0146FF2000230124126800290DD0012914D0042908D104206946009308814B8110460EF096FF80B23EBD684600930481438169465E
:405D000010460EF087FFF4E768460093048143816946EBE7080D002070B545890468416800890300FFF7B6FC08280509091E22282628002005F024FF1EE0022908D0C8B282
:405D40002A4621460DF034F82046FFF739FE13E002202A4621460DF02BF82946204600F00DF809E000200EF059FC05E02046FFF7CBFE01E0FEF766FB002070BD014B002262
:405D8000DB6818470C0D002070B5448905680089022803D0032809D0FF2070BD2246094C0023A46829460120A04708E0FFF7A4FA241DA2B200232946022007F01CF8002080
:405DC00070BD00000C0D0020704700000248002141600180418070470C0D002070B50C46002186B016460391012802D0022859D116E003A9012007F053F801281BD1039D81
:405E0000324621462846FEF712FE0095287801900220694608814E816846FFF7B5FF41E0214D002B686809D0049004A9022007F037F801281DD0022006B070BD002812D0B8
:405E4000298840182146FEF7F2FD28880024801980B228806988091D884206D12C801348FFF792FF03E00320E6E788421AD96C6018E004986860E278A378110219430B4A50
:405E8000698000231060E3565360032313815181A1788170E178C1706178417021780170042028800020C7E70C0D0020D01100203EB515460C46022803D004280CD000202D
:405EC0003EBD0091019002206946088107484A8100680EF0A4FE07E00CF06AFF044B0022DB6829462046984701203EBD080D00200C0D0020014AD160906070470C0D00206F
:405F0000034801688068081A0A21484300097047DC11002010B5FEF767FA4C2204490548FEF785FD03490120C870002010BD0000EC770100E015002010B5FEF74DFA10BDAD
:405F400070B5134C2368002B08D0207B1149C20705D04008400020738868A08070BD88680B4AA18880B29268814203D90A4D691A091802E0814202D2411A5118A160A08092
:405F8000A0689842EAD30EF067FE00F013F870BDDC110020C0102E40FFFF000010B508461946FFF7A7FF10BD704710B5FFF780FF10BD000003480021016041608160C16065
:405FC00070470000DC110020024610B5FF20002A0CD0FFF7EFFF064C0321207B0843207310010A21FEF7EEFA2060002010BD0000DC11002000B504480A218068484302099B
:40600000FFF7D8FF104600BDDC1100200248007B8007C00F70470000DC11002010B54B490868002802DA4A4B01221A70022290430860484800694549C00B4031096A0246A8
:40604000C907C90F0A4259D0012000F07FFA3F480E216C30FEF71CF93E4820218430FEF717F93C4814219C30FEF712F93948FF21C131A430FEF70CF93648FF212F31B030D9
:40608000FEF706F933483449BC30FEF701F931483249AC30FEF7FCF830492E48491CB430FEF7F6F82B482E49B830FEF7F1F829482C49CC30FEF7ECF826482B490830FEF7CB
:4060C000E7F824482949A830FEF7E2F8214828498830FEF7DDF81F4826498C30FEF7D8F81C481921C9029030FEF7D2F8FEF7D2F8FEF78EF9C0B2022812D01FE000290BD0E5
:40610000002101420AD0114801216030FEF7C0F80120FEF75DF997E70121F2E7FF2010BD15491648FEF7B4F814481549001DFEF7AFF8124800210830FEF7AAF854200449BD
:40614000C043891C0870002010BD000000F02E401C0D002000002E40320300002F3F00003102000010520000EC160000FA12000031D000003AE300009956000080012E40BB
:40618000F80F000070B50646581C80B245086D00002408E0304600F0A9F81055000A1119A41C4870A4B2AC42F4D3D80705D0D0182038D15CC47FD454C17770BD10B5FF2003
:4061C00000F0C4F90F49FF2048700E481021801D41800121417001700A490020C91C4870FFF71CFF04000AD100F010F907210648FEF74CF8044807211830FEF747F820469C
:4062000010BD00001C0D0020CC112E4070B5002405465B1E0AE0284600F068F8010A161971702D1D1055A41CADB2A4B29C42F2DB9C4203D1284600F059F8105570BD00006B
:4062400070B500210A4D5B1E0AE0541864782602545C344346193480001D891C80B289B29942F2DB994202D1515C4019018070BD00102E40F0B50599091FCFB200217E1E14
:406280000BE0541864782502545C2C43164D45192C80001D891C80B289B2B142F1DBFC0712D01C78515C24020F4A0C4381180C809C785D78001D210280B2294384182180ED
:4062C000001D80B2D9780CE059781A7809021143054A84182180001DD9789B78090280B2194380180180F0BD00102E40014940180088704700102E4010B50B490020487016
:4063000000F084F8002000F047F9002000F034F907210648FDF7BAFF044807211830FDF7B5FF002010BD00001F0D0020CC112E4010B50B46062812D006DC01280CD0032821
:4063400001D1FFF7D9FF10BD0A28FCD00B28FAD105480078107010BDFFF730FF10BD1146184600F035F910BD220D0020F8B5244DAC6A0127A007234E002816DA307806285F
:406380000ED1286A384328621F480069F903084381B21D481030FDF77BFF042000F0D6F8174802212830FDF771FFE00718D000F01FFF01280FD1002000F06CFF062000F073
:4063C000C5F81049FF20C91E48707078002802D1686B384368630A4801212830FDF756FFE0050BD53078042802D1052000F0AEF80348FF2101312830FDF748FFF8BD0000AC
:4064000040F02E401F0D002000002E4010B503212348FDF73DFF0120FDF7D6FF20483038406A204C80076178800F890001431C480C38FDF72DFF6078002808D0401E0221D3
:4064400081401820FEF7A8F9C000083800E0B82081B21548FDF71CFF1348032109021438FDF716FF10481149B830FDF711FF612189010F48FDF70CFF0D480321001FFDF7CB
:4064800007FF0C490C48FDF703FF0B480B496038FDF7FEFE084801218838FDF7F9FE10BD70F02E40220D0020D8102E4090890000041E2E40FF0F000058122E40209000006C
:4064C0000848017806290BD140780749002803D1486B400840004863C86A01221043C862704700001F0D002040F02E4001480078704700001F0D002000B50300FFF7CAF837
:40650000080D050D0B070507090D012000BD032000BD042000BD022000BDFF2000BD0000074A9168D26889B2064B92B2994204D105498A4201D1012100E00021017070476B
:4065400080002E4033D000003FE3000010B50446FDF746FF072C01D9FF2C01D102480470FDF73AFF10BD00001F0D002001494870704700001C0D002010B5064A012805D09D
:406580001921C9021046FDF783FE10BD1D21C902F8E7000090002E4010B50A4A141D012808D009491046FDF773FE08492046FDF76FFE10BD04491046891CFDF769FE03492C
:4065C000491DF3E788002E4031D000003AE3000070B50C460546FDF71BFFC0B202280E49287804D0FF2810D04C280CD810E0FF2809D10A4AD0680004800F032801D0087825
:4066000007E09069000A553803E00878207070BD4F382070087070BD1E0D002000002E40F0B50122002834D0002932D00424420600D00524792342065B06D21800D0641C47
:40664000034600221EE00C2516466E43124D00277519AF72104F002ABB51696007D0661EB24209D10D4E86197606760E05E05E06760E8027BE1B00E080269B198919521C26
:406680002E81D2B2A242DED303480549006B002288611046F0BD00006814002079020000280D002018B50020694608700A48006900280ED0132149014018047E6846047045
:4066C0004F21C900054800F05BF8A04201D0012018BD002018BD0000280D0020EC110020074900200C2242435218927A012A05D0401CC0B20628F5D30020704701207047B5
:4067000068140020F8B50F000446164609D01A4D1A496868A04202D94018A04201D38E4201D90120F8BD39462046FEF771F9002820D0324639462046FEF779F90E49F0B284
:40674000012620318E7600210C220B4653430A4A9A1813895568EF18A74207D9641B1B1B9672834206DAC01A1469C0B2491CC9B20629E9D30020F8BD681400207902000056
:40678000034610B50020024604E09C5C2018521CC0B292B28A42F8D310BD000070B500F05FF8084C064A216907480D46FEF73FF905492846FFF734FFFFF774FF207070BD53
:4067C00079020000280D0020EC110020002070470020054A002902D0012902D002E0906000E0D06000207047280D002070B5084C154608460549E26889182A46FEF717F991
:40680000E0684019E06028B270BD0000EC110020280D00203EB50A226946FFF7E7FF044606480A2200686946FEF7F2F8002802D00020C0433EBD20463EBD00002C0D0020C8
:40684000002802D0044A914201D2FF20704703494A6108610020704779020000280D0020024800218160C16070470000280D002070B5074C15460548A26880182A46FFF7AC
:4068800041FFA0684019A06028B270BDEC110020280D002010B503490A220968FFF7E8FF10BD00002C0D002010B50F4A002313600E4A13600E4B18600E4801600E4901208E
:4068C00008600E490860000290600E490C4808600D4914300860FF381538506000F0BCF800F0CAF9002010BD5C0D0020440D0020700D0020740D0020600D0020500D0020B0
:40690000B0150020540D0020680D0020014610B50020002910D0094B1A689C685118A14209D25868196080188A0704D08A07920F891A091D196010BD002010BD440D002051
:40694000F8B50024164E671E321F3D463168136806E01422624310328A58521C1BD0641C9C42F6D36A1C14D02C461422544322460C3288500C214843FFF7C8FF31680028B3
:4069800008510AD031680020103408517068401C70602846F8BD2546E4E73846F8BD0000540D0020F3B50026F64381B000281BDB1E490968884217D80299002914D01B4F44
:4069C000142204463F1D54432546396810354859401C09D0FDF704FD38682F1F4159C359994203DBFDF7F8FC3046FEBD214608310091465801590C20704308180C220299A1
:406A0000FEF715F80948761C001D0068C159B14200D100260549009A091D865008684159491C4151FDF7D8FC0020FEBD500D0020002803DB07490968884202D90020C04354
:406A4000704704491422091D096850431030085870470000500D0020F0B500200D4A451E0346171F50600FE014260146714314680E1DA3510C461668083433511668083427
:406A800035511468401C635039688842ECD30020F0BD0000540D0020F3B50026F64381B0002841DB2349096888423DD8029900293AD0204F142204463F1D54432546396859
:406AC00010354859401C2FD0FDF78AFC3868415900292BD0211D009146580C21005971430F46C1190C220298FDF7A1FF11480021001D0068761C00590C34C0190160416046
:406B000081600C48001D00680159B14200D100260849009A091D865008684159491E4151FDF75AFC0020FEBD3046FEBDFDF754FCFAE70000500D0020FEB504460D46002005
:406B40001E49089E0860471E009001900290002C11D0486885420ED2002A0CD0002E0AD0642E08D808460C3001681C2068430C18207A002801D03846FEBD012022602072A5
:406B80001846FFF7DDFE6060401C13D06681A6810A4827610C3067610179A94200D205710021684601810A462846029B00F040F82846FEBD00202072DDE700005C0D002012
:406BC00038B50124009400F039F838BDFEB50027164EFF433D4600240EE01C20316860430818017A002906D04068FFF721FF002801D0254603E0641C3079A042EDDA681C57
:406C000012D01C2130684D434419FDF7E9FB69466068FFF741FF0546FDF7DEFB002DD9D1216868468847D5E7FEBD0000680D002038B50024009400F001F838BD1FB50022B1
:406C40000C49541E0A60002811DB496888420ED808491C220C31096850430818406801A9FFF7A0FE401C02D0002004B010BD2046FBE700005C0D0020F0B50021114A4D1E6C
:406C8000174611710C3F0B46BD6016E008461C2460431668041D355114680646235014680836A3551468361DA353044616680A34335318301468491C255078688142E5D3B9
:406CC0000020F0BD680D002038B500210091002811DB0F49097888420DDA0D4D04010C3529680859002807D0201D0818694600F06FF9002801D0002038BDFDF771FB286802
:406D00000F34015D491E0155FDF766FB009838BD780D0020F7B582B0002502986E1E06602E48D21C024017462D4A2C4610460C380178106805E02301C358002B0FD0641CBA
:406D4000E4B28C42F7D3711C28D03401211D40180191039900F02AF900281FD101E02646F1E71F48016820460C300F521C480399026820460E301154194803990268204604
:406D80000F3011540398784300F0A0F8144900280968085102D00024009011E001251AE00F48016801980818009900F02CF9002801D0012502E00098C0190090641CE4B22C
:406DC00003988442ECD3002D05D10298066004480179491C0171284605B0F0BDFCFF0000840D0020F8B50D4600216A468C461180002839DB23490978884235DA214B0401B0
:406E00000C3319680A59002A2ED020460C300B5A801C0E5C184670438018954224D3854222D2002006E007465F43BF18AF4206D0401CC0B2B042F6D36046002814D0114E9B
:406E4000271DC8190C366A46294600F006F900280AD168460088012808D030682946C01900F0D1F8002803D00120F8BD0020F8BDFDF7B6FA30680F34015D491C0155FDF798
:406E8000ABFAF3E7780D0020F8B50F46002400F031F8002817D10C4900220B460C334A600EE021011D680E466A501D680C36AA53B61C1D680F31AA551D68641C6A54E4B258
:406EC000BC42EED31A71F8BD780D002000280BD0C01C074A81085068890053884118994203D89368516018187047002070470000780D0020F8B5064600200F4D009029705D
:406F00000C0121466846FEF763FC00280CD129460C3100980860301B001F84B221466846FEF756FC002801D0FF20F8BD6C800098A8600020F8BD0000780D0020F8B5002886
:406F400027DB19490978884223DA174C05010C342168485900281CD028460C30085A009028460E300E5C401C0E5420682F1DC01900F064F800280CD12068002445590EE0D8
:406F8000094829460C300068C01900F03CF8002801D00120F8BD00982D18641CE4B2B442EED30020F8BD0000780D002030B50D4604000BD0A800FFF789FF6060002805D083
:406FC00000202570C0436080002030BD012030BD70B50D46040005D0002D03D00220205E002801DA012070BDFDF7FAF90221615E60688900405828606088401E6080FDF748
:40700000EBF9002070BD70B50D46040007D0002D05D002212078615E401E814201DB012070BDFDF7DDF96088401C00B26080616880000D50FDF7D0F9002070BD10B50400EC
:4070400009D0227800216068FDF7FAFC0020C0436080002010BD012010BDF0B500231D46002802D00224045F0AE00120F0BD46689F00F6598E4201D1012503E05B1CDBB23B
:407080009C42F4DA15700020F0BD000001480078704700008C0D00207CB505460024FEF72BF9A8796946087000A8062229460130FDF7BDFC0021684605F028F80C2806D095
:4070C000072806D01F2806D0122806D006E0022404E0042402E0272400E0012420467CBD0148012141717047EC16002010B500F075F9FFF7FBF9FFF7FFF910BD70B5044648
:407100000025FEF7F9F8002C06D0A079012803D8214602F01BFD00E00125284670BD01460120002902D05020088000207047000001460120002905D00348542200785043AF
:4071400008800020704700008E0D002010B502460D49FE204870032410460EF083F8002810D10EF027F800280CD105F0F5FE002808D100F04FFB002804D105F097FA0028CD
:4071800000D10024204610BD8C0D002070B50025044600280ED0A07901280BD8FEF7ACF8A0790028204602D003F01EF803E002F0F3FF00E00125284670BD0000014610B5A0
:4071C0000120002904D006220248FDF730FC002010BD0000980D002001460120002903D00878024908700020704700008E0D00200148007970470000EC16002038B5044622
:407200000120002C20D0617801291DD800290BD0FF25E535FEF770F80C4828180088C0B22070072803D00EE0FF25CD35F2E70020694608706846FFF773F9694608780128BE
