:400000000080002011000000B5090000B509000010B500F0EFFCC04670B5294D12232B60182000F0F3FF274A274B1A60274A116802230B431360264A264B1A600024264B5B
:400040001C60264A136808218B431360FA20C00001F08EF8224800F0CFFF224A224B1A60224B234A1A60234A23490A602349196023490A60234A1A608021C900224A116063
:40008000224A1A6082221206214B1A60214B1C604322214B1A60013A204B1A60013A204B1A60013A1F4B1A601F49082000F054FF082000F045FF1D4B1C6011232B6070BD27
:4000C000300010400600008004010B4078002E402D3E00007C002E4064F02E406CF02E40DC050000000FF6000C0301400000014043FF008000BF5D000803014042FF008081
:400100000403014041FF00800003014040FF008008010B4000010B402C010140200101401C01014018010140711200000C020B4010B572B60022314B1A600132304B1A7073
:4001400000240FE02F486200131959000B00411889881A5AC31858880004104300F0F2FB0134E4B2012CEDD926490C312648103000F0CEFBEE221206244B1A6099231B0479
:40018000234A1360234A1360234A1360234A13601E22234B1A60183A224B1A6022490B783632934314221343DBB20B701F4A117816230B43DBB2137030221D4B1A601D4A7A
:4001C0001D4B1A60A02212011C4B1A601C4A1D4B1A6040221C4B1A60C02252031B4B1A60C3221B4B1A601B4A1B4B1A6003221B4B1A60FFF711FF00F0BBFB10BD6CF02E4073
:400200001C700F406C740100EC7401000000024000500F4010500F4020500F4030500F402000104000800F4001700F4000700F40000004400020D900080004400C000440EC
:40024000B66D1B00080104400002044008020440000304400900D800080304401803044010B5064C2378002B07D1054B002B02D0044800E000BF0123237010BDC010002028
:40028000000000005C740100084B10B5002B03D00749084800E000BF07480368002B00D110BD064B002BFBD09847F9E700000000C41000205C740100A00B002000000000FF
:4002C00010B500F0E1FC10BD70B5012000F08CFC00F03CF80400002000F032F802000F4E0F49300003F0A0F8228863880D4D0E49280003F099F80021002000F0D5FC3000E9
:4003000000F064FC0021012000F0CEFC280000F05DFC200002F0A0FF70BDC0463423002060740100442300206474010010B5FFF7CBFF10BD10B500F0C5FD00F0D3FD10BD1A
:4003400010B500F0D9FD80B210BDC04670B5042002F078FF0600002406E065007519E0B2FFF7EEFF28800134012CF6DD300070BD10B5FFF7DFFFFFF7A3FF0B4802F016FC01
:400380000A4802F04FFC0A4801F014F8094802F0D7FA02F09DFB084802F0CCFB00F004F9FFF792FF10BDC046C9030000E1030000690700004D0700002D030000014B1878F1
:4003C0007047C046DC10002010B50022034B1A7000F056F902F0BCFB10BDC046DC10002010B5054A117801234B40137000F048F902F0EAFB10BDC046DC10002010B5022809
:400400000CD002D8012805D030E0032818D0042829D02BE0012002F013FC27E0144A1388013B9BB21380002B20D1124A104B1A8002F012FC43425841C0B202F001FC15E096
:400440000B4A5388013B9BB25380002B0ED1FA229200074B1A8002F0FFFB43425841C0B202F0EEFB02E0002002F0EAFB10BDC046A40B00201027000070B50600454B1D78F3
:40048000092D14D985E063001B195800424BC018A20012199300414AD31858600622716802F0E4FE002808D00134A4B200E00024ABB29C42E7D3012300E00023002B68D0EF
:4004C0006B005B195800344BC018344AA9004C19A300D3185860307A1872F068D8603478481983009C547078D318587000230CE0284A127891008A189100284A51184A6861
:400500007168C95CD1540133DBB2052BF0D900230BE0204A12787168C85C51008A1851001D4A5118C8540133DBB2052BF1D9194B1C7810217156A20012199300174AD31858
:40054000197406227168164802F090FE002807D01BE07268D15C134AD1540133DBB200E00023052BF5D9A3001C19A3000B4AD3185A780C4B9A710122064B5A7000F0F2FFBC
:40058000002002F0F9F902F0E9F9024A13780133137070BDDD10002064230020A8230020A023002058230020064B00225A71A02119715039D9703E399970223159701A700A
:4005C0007047C046A023002010B5002002F038FB012000F0F9FC002000F096FF10BDC04610B5044B1B78012B03D102F013FAFFF7EBFF10BDA80B002010B5012002F020FBBA
:40060000012000F0E1FC00F0ADFF10BD10B5002002F02AFB064B5B78002B08D0012000F0D3FC044800F0AAFF0022014B5A7010BDDD1000205823002010B5012002F014FBE7
:40064000012000F0C1FC024B18780FF0EFF810BD5423002010B5002002F012FB012000F0B3FC002000F0FEFE10BDC04610B5012002F006FB012000F0A7FC00F037FF10BD82
:4006800010B5FFF79BFE002806D0FFF7D5FFFFF7EDFFFFF799FF05E0FFF7AEFFFFF7CCFFFFF7D8FF10BDC046F0B593B0002500272FE02C006E0076197600224BF618062240
:4006C000310001A802F0D2FD002836D0052201210DE063001B195B001A48C318985C1A4B9B181B79984200D00021013AD2B2002AEFD100290BD07800C019400003AB9C4693
:4007000060440632310002F0C0FD0137FFB20135EDB2092DCDD9002110E04B005B185B000848C318002098540132D2B200E00022052AF2D90131C9B200E000210929F6D9A0
:4007400013B0F0BD64230020A80B002010B502F005F9FFF751FFFFF7A7FF10BD014B18707047C0465F23002030B589B004000D00FFF724FE2B2C1DD00AD8202C2DD002D868
:40078000012C12D08CE0272C3ED0282C47D087E0462C72D002D8412C30D081E04C2C78D089235B009C4264D07AE0002878D1FFF751FF75E03B4B1B78062B0AD101223A4B23
:4007C0001A703A4B5B78002B6AD1012002F038FA66E00222344B1A7062E0324B1B78022B08D003A803002A0032CA32C312CA12C3FFF742FE02222C4B1A7051E0022229004F
:400800002B4802F042FD4BE0294A137850780002184300F02FFF0322234B1A7040E0002814D123E08A0052189300224AD31800225868027058684270586882705868C27013
:40084000586802715B685A71013100E00021174B1B789942E6DB154B00221A705A700132114B1A700120FFF7C9FD19E0FFF7F2FE16E004220C4B1A7012E06B462A0013CAA1
:4008800013C36B689878FFF769FF0122074B9A7006E06B68187802F0D3F9286810F0AAFD09B030BD9E240020A80B0020DD10002054230020A823002070B5FFF747FD050016
:4008C00000240EE063005A5BAF239B009A4207D9074B1B78012B03D1FFF782FEFFF796FE0134012CEEDD280002F0B6FC70BDC046A80B002010B562B6FFF73AFD03F02EF99D
:40090000FFF75CFD0028F9D0FFF7D6FFF6E7C046F0B50025002711E0BB00C658F3B2FF22964308E06A008A181478A419527822700135013BDBB2002BF4D10137062FEBD9B6
:40094000F0BDC04610B50A00002102F0A7FC10BD064B1B68002803D080221206134301E05B005B08014A13607047C04680033A4010B50323094A1360094A13608021090655
:40098000084A1160084A1360084A13600022084B1A600120FFF7DCFF10BDC046300030403000314000003A4000033A4040033A40000E3F4010B502F019FC03680C2B00D175
:4009C000FEE7FEE710B50300084A1068C318084A9A1A802A02DC054A136005E002F006FC0C2303600120404210BDC046B40B0020D024002070B50F4E0F4D13E029686B6867
:400A0000AC68002202E001C901C30432A242FAD1E868002202E0002102C304328242FAD11035013E002EE9D102F0E6FBFFF762FFFEE7C046010000003C79010010B50E4AD7
:400A4000136801218B43136000230AE0032B03D89A000A49505800E009489900094A885001332F2BF2D9FFF763FB034A116801230B43136010BDC04600001040000000007D
:400A8000B50900000000002010B50B4C226860239A4322602268513B9A432260226810230343D8B210432060012000F0A5FA236810229343236010BD0001044070B50500F9
:400AC0000E4C22682023134323602368402293432360002000F090FA23680F2293432360226810232B43D8B210432060012000F083FA236810229343236070BD0001044063
:400B0000F8B5274A13687F218B43136025490B681B0B1B03244803430B60136820218B431360116840230B431360CA277F00002000F062FA1A4C2368102633432360012042
:400B400000F05AFA194B1D682368B3432360002000F052FA08231D40236833432360012000F04AFA2368B3432360002D02D10A2000F042FA013F002D01D0002FD7D1084BC5
:400B80001A6840218A431A601A683F318A431A60044A13681B0B1B0305490B431360F8BD00010440080104404902000004010440B60D000010B50400FFF7A2FF2009FFF799
:400BC0007DFF0F202040FFF779FF10BD70B505000078012404E0FFF7EDFF285D0134E4B20028F8D170BDC04610B50400FFF788FF2009FFF749FF0F202040FFF745FF10BD6B
:400C000010B5282000F0E0F90320FFF73DFF052000F0DAF90320FFF737FF0F2000F0D4F90320FFF731FF012000F0CEF90220FFF72BFF052000F0C8F90620FFF7D5FF0E200F
:400C4000FFF7D2FF2C20FFF7CFFF0820FFF7CCFF0120FFF7C9FF0C20FFF7C6FF0320FFF7C3FF052000F0B0F9014800F03BF810BD1875010010B50C20FFF7B6FF0122014B83
:400C80001A7010BDE010002010B5064B5B78002B04D1FFF7B5FF0122024B5A70FFF7EAFF10BDC046E010002010B501280BD0002804D002280CD003280FD012E08039C8B244
:400CC000FFF792FF0DE04039C8B2FFF78DFF08E06C39C8B2FFF788FF03E02C39C8B2FFF783FF10BD70B50500FFF70AFF4020FFF77BFF002404E0285DFFF75CFF0134E4B2DE
:400D00003F2CF8D9FFF7FCFE8020FFF76DFF70BD10B503210F2000F031F942490F2000F01BF90322404B1A60404B1B68002B01DA3F4900E03F49404A13680B4313603F4AEB
:400D40003F4B1A603F4A404B1A6000233F4A13603F4A40490A6040490A60404A116880204002014311603E490A6802430A603D4A13603D4A136001223C4B1A603C4A1168FA
:400D80003C4B0B40802189050B431360002445E03949A2005058DC239B0103400919097A0B4336498C4662441360C30707D52D490A680123A3401B041B0C13430B60A300E2
:400DC0002D4A9B589B0707D527490A680123A3401B041B0C13430B60A300274A9B589A0502D58020400001E080204001DB0504D463000021224A995203E063000021204A98
:400E00009952204B5843204B9C4660441F4902F001F900B2A2001E4BD0500134012CB7D910BDC046250F000020003A4080033A40702010107020001000003A408C00008039
:400E400004003A400000FF0718003A401C003A400200020010003A4014003A4000033A4040033A4028023A4038023A4018023A4030003A40FEFFFFDF5875010080003A4037
:400E80007824002010270000E40C0000C81900007024002010B5094B1B68002B0CDB084B1B68002BFBDB054A1368802109060B4313600A2000F0A0F810BDC04600003A40FB
:400EC00008023A4010B5064B1B78002B04D1FFF71FFF0122024B1A70FFF7DCFF10BDC046E2100020034A1368802149020B4313607047C04604003A4010B50400012802D984
:400F0000002000F027F8012C07D8A400044B9C46644420680004000C00E0002000B210BD80013A40014B1A681A60704710023A40024B1B68012018407047C0460C002E40DC
:400F40001F2318401E3B8340014A13607047C04600E100E001BE704770B504000D001F2802D90020FFF7F6FF1034A40080239B059C4664442068256070BDC04670B5040088
:400F80000E00032902D90020FFF7E4FF1F2C02D90020FFF7DFFF03252540ED00063501F084FEA408A400074B9C46644421680323AB4099430B003100A9401943216001F04C
:400FC00078FE70BD00E400E010B5040006E0084B586801F061FE074B9C46644480231B029C42F4D8024B9868604301F055FE10BDB80B00200080FFFF10B5034B1B7B58438C
:4010000001F04AFE10BDC046B80B0020F0B557464E46C0B483B0040001F047FE0190E71E2D2F74D83F4B1B78DBB29C4208D83E4B1B78DBB29A463D4B1B78DBB2994631E043
:401040003B4B1B78DBB29C4208D83A4B1B78DBB29A46394B1B78DBB2994623E0374B1B78DBB29C4208D8364B1B78DBB29A46354B1B78DBB2994615E0334B1B78DBB29C4230
:4010800008D8324B1B78DBB29A46314B1B78DBB2994607E02F4B1B78DBB29A462E4B1B78DBB299462D4BDE5D2F2E09D92A2C07D919222B4B1A60052001F0EEFD192503E00A
:4010C000274B1D683F231D40B54206D9234BDA5D234B1A60052001F0DFFD1F4B9C4664442378DBB21F4A13601F4B52461A601F4B4A461A600520FFF77FFFB5420AD2174B2F
:40110000DA5D174B1A60052001F0C6FD02E00020FFF720FF019801F0CCFD03B00CBC91469A46F0BD40F3FF0F41F3FF0F42F3FF0F43F3FF0F44F3FF0F45F3FF0F46F3FF0F9E
:4011400047F3FF0F48F3FF0F49F3FF0F4AF3FF0F4BF3FF0F4CF3FF0F4DF3FF0F647501002CFF0B4028FF0B401CFF0B4020FF0B4010B504000F4A116801230B4313600E4AF8
:401180000E4B1A600E4A1368802109020B431360002809D100200CE00120FFF72DFFFFF7C7FE002804D1013C002CF5D1102000E0002010BD60F02E400220000078002E4021
:4011C00010002E40034B1868C0231B02184000D00120704700010B4010B501F066FD044A1368C02109020B43136001F062FD10BD00010B4010B501F058FD08490A68084B3E
:401200001A408024E40122430A600A6813408022120213430B6001F04CFD10BD00010B40FF3FFFFF70B5050001F03FFD0400FFF7C9FF002803D0FFF7DDFF012100E0002128
:4012400008482840084A1568084B2B40184310601368012901D1FFF7BFFF200001F029FD70BDC0460404040010020B40FBFBFBFF10B5244B1B685B0715D5234B5B685B07DA
:401280000ED5224B596A042001401F4C62688A4362605A6A82435A629B69002B00D098470420FFF7BFFF174B1B685B0518D5164B5B685B0510D5154B596A8022D200114074
:4012C000114842688A434260596A114A0A405A62DB69002B00D098478020C000FFF7A2FF084B1B685B030CD5074B5B685B0304D5064B1B6A002B00D098478020C002FFF7DA
:4013000091FF10BD10020B40CC0B0020E4100020FFFBFFFF10B50A4B1B88002B04D10E220021084801F0BAFF054BDB88002B04D106220021044801F0B1FF01F01BF910BD2D
:40134000A40C0020B4240020A424002010B50022114B1A70114B1A70114B1A70114B1A701149488C114B1880888C5880203188791873C97919714021D981103119825A8214
:401380004131FF319982DA82013A1A831F32084B1A80FFF7BFFF10BDC5240020AC240020C3240020C2240020D40B0020802400209A24002010B590B00400142221490BA87A
:4013C00001F063FF2023204AD35C002B05D1FFF7BDFF012120231C4AD154002C2FD01B4B1C6008A805AA426006AB0893002101811B31198059801739197108231370123195
:40140000694402F087FC00281AD1002302930193053300930BABAE2212010D490D4802F0CFFB00280CD101220B4B1A7007320B4B1A70033213210A4811F0CCF900E00120BD
:4014400010B010BD947501000C1100207C240020C0000020512200009E2400209F240020A875010010B502282FD81C4B1B78062B2DD11B4B1B785B072CD4002809D1194BC2
:401480001E229A870232196B0A801B6B10325A800CE001280AD1134B96229A87C822D200196B0A801B6B8022D2015A800E4B18700C482C300EF058FD00280DD1084A11785C
:4014C00004230B43DBB2137006E0012004E00420FF3001E00420FF3010BDC0469E240020C5240020D40B0020C324002010B50EF0D3FD034A117808230B43DBB2137010BD72
:40150000C52400207047C04610B5022822D8002807D1114B00221A8550325A84403A9A8409E0012807D10C4B96221A85802212015A84F83A9A84094B1870074820300EF0F3
:4015400099FC002807D1064A117804230B43DBB2137000E0012010BDD40B0020C2240020C524002010B50EF0AFFC034A117808230B43DBB2137010BDC524002010B5134BD6
:401580001B78062B1CD100281DD0002305E0C15C0F4AD21851710133DBB2052BF7D983790B48C3720EF014FC041E0DD10522074B1A70084B1888002806D00BF077FB03E0A4
:4015C0000424FF3400E00124200010BD9E240020802400209A24002010B50B4B1B78052B0ED10EF0EBFB0400084B1B88002B01D00BF076FB002C05D10622034B1A7001E034
:401600000424FF34200010BD9E2400209A24002003784078000218437047C04670B5050083890F2B1FD1043031332A00002111F0E9F8041E11D16868FFF7EAFF830706D518
:401640000A4B1B68290082204000984705E0074B1B6829000620FF309847054A137801218B43137000E00024200070BD7C240020C524002010B582B001AB18801E4B1B78F3
:40168000022B31D11D4B1B78002B0FD0052B2ED100240CE063001B195800194BC0180422002101F0FBFD0134E4B200E00024022CF0D9022201A9134801F0E7FD124B012218
:4016C0001A80023A5A80FFF725FE01980FF0C6FA00280ED10122094B1A700C4A117802230B43DBB2137004E00420FF3001E00420FF3002B010BDC0469E2400209F240020AA
:40170000A40C0020B0240020A0240020C524002010B5C288094B9A420FD1094B5B88002B05D18288064B5A8082781A7005E0811D044B1B6886204000984710BD052A0000D2
:40174000A42400207C24002010B58288084B9A420DD1084B9B88002B03D14288054B9A8005E0011D044B1B6886204000984710BD02290000A42400207C24002010B5084BEA
:401780005A8883899A420AD1064B1B680100832040009847044A137801218B43137010BDA42400207C240020C5240020074B00225A701A70064B1B78052B03D10732044BEB
:4017C0001A7002E00822024B1A707047B02400209F24002010B5C3883F4A93426CD007D83E4A93421DD058D8013A93420AD071E03B4A934233D03B4A93423FD03A4A934291
:4018000068D11DE0394B1B88002B03D18288374B1A805FE0811D364B1B6886204000984758E0324B5B88002B03D182882F4B5A8050E0811D2E4B1B6886204000984749E0D3
:401840002A4B1B89002B03D18288284B1A8141E0811D274B1B688620400098473AE0234B5B89002B03D18288204B5A8132E0811D1F4B1B688620400098472BE01B4B9B890D
:40188000002B03D18288194B9A8123E0811D184B1B688620400098471CE0144B9B88002B03D18288114B9A8014E0811D104B1B688620400098470DE00C4BDB88002B03D17C
:4018C00082880A4BDA8005E0811D094B1B6886204000984710BDC046032A0000012A0000A62A0000C92A0000042A0000B42400207C24002082B000236A4613805380094B7D
:401900001B78002B06D1084B5B8801331380074B1B895380009B180C00041B041B0C184302B07047C4240020A4240020A40C002010B504000378032B35D1204B1B789B07A7
:4019400031D51F4B1B78022B11D0DAB2022A02D8012B05D01FE0032B10D0042B15D01AE0184B1B6800210820FF30984713E0154B1B6800218420400098470CE0114B1B68E6
:4019800000210A20FF30984705E00E4B1B680021852040009847094A137802218B4313700022074B1A702378042B05D1064B1B78052B01D1FFF710FE10BDC046C524002072
:4019C0009F2400207C2400209E24002010B582B00400FFF723FE0A4B1B78DB070ED4002809D001A912238B70A3890B80C87020680FF088FC02E020680FF0FCFC02B010BDEF
:401A0000C52400208379002B07D000200BE0C25C002A07D10133DBB200E00023052BF6D9002000E001207047F0B54F464646C0B483B00600454B1B78012B00D080E0444B58
:401A40001B789B0700D47BE00789062F01D0142F70D173899846002464E073689946A1444B461B883B4A128893424AD3394A5288934248D8062F3CD101234A4613750023CF
:401A8000002531E001956800401942003248821890884A469288904224D16800401941002D48085A00280AD16B00591948002A4B18180422494601F0E8FB012312E0012D47
:401AC00008D8691C4800411848002349081881888A4207D04B46191D204B1B680C20FF30984701230135ADB2022D0DD8002BC9D00AE002234A461375484600F077FD0023A4
:401B000002E0002300E00023002B09D1104B1B78DB0705D5114B1B6849461220FF309847E419A4B2444598D3094A137801218B43137005E0094B1B6800210820FF30984795
:401B400003B00CBC90469946F0BDC0469F240020C5240020A0240020A40C00207C240020F0B54F464646C0B487B0764B1B789B0700D4E1E0058947894468734B1B78032B9D
:401B800068D163E02000FFF743FD6B461880A3786A469370E01CFFF73BFD6B469880631D9846152D1ED102236A469375414610226B46981D01F069FB15239846A044634BC1
:401BC0001878420012185300614AD3189A88614B9A4232D0022830D1023880B2694600F03BFD2AE0072D28D101236A4693754046FFF70EFD6B46D880E31D9846534B187837
:401C0000420012185300524AD3189B88C0225201934203D0504A934204D007E06846FFF7D9FD0AE06846FFF773FD06E0022804D1023880B2694600F00FFD424A1378012187
:401C40008B4313707619B6B2444600E00026BE4298D371E0022B6FD16BE02000FFF7D8FC6B461880A01CFFF7D3FC81466B465880201DFFF7CDFC6B469880A31D9846062D7E
:401C800022D102236A4693750FF07EF8334A137850780002184349460FF016F8002807D12F490B006A4613CA13C313CA13C337E02C4B1B680021842040009847214A137892
:401CC00002218B4313702BE0082D29D101236A4693754046FFF79CFC01006B46D88008239846A044002319E05800C018420018488218928891420FD15A00D2185000144A08
:401D0000825A002A08D103001148C01804326B46991C01F0BAFA03E001339BB2022BE3D9084A137801218B4313707619B6B2444600E00026BE4290D307B00CBC9046994694
:401D4000F0BDC046C52400209F240020C4240020A40C0020FEFF000001180000B0240020301100207C240020F0B587B000236A465380254B1B78042B44D1244B1B789B0754
:401D800040D50689037B1375028869460A80012B01D1042700E01227456800242BE02800FFF736FC6B465880A81C1B7D022B0DD10100102201A801F068FA1235144B1B78F0
:401DC000012B16D1684600F035FD12E0FFF720FC6B46988004350E4B1B78002B02D16846FFF7B2FC0A4B1B78012B02D1684600F021FD3C19A4B2B442D1D3044A13780121DB
:401E00008B43137007B0F0BD9F240020C5240020C424002030B583B0050001AB00221A805A802E4B1B78012B0ED0002D06D00133DBB22A4A1370012B06D104E00022274B4E
:401E40001A70012500E00025244B1B78012B04D1280000F08DFC01900125204B1C78012C02D0FFF747FD019001AB1B881C4A1288934209D91A4949888B4205D801A949882A
:401E80008A4201D88B4201D9012CCAD9012C15D8144A137850780002184301A90EF0ACFE002819D0104B1B6800218520400098470E4A137802218B4313700DE005220C4BF6
:401EC0001A70094B1B680021892040009847074A137802218B43137003B030BDC4240020A0240020B02400207C240020C52400209F24002010B5002804D0224A1378013330
:401F0000137006E000221F4B1A7002E001331D4A13701C4B1B78022B0CD85A00D2185100194A8A5A194909888A42EFD3174949888A42EBD8022B1DD813495A00D3185A00DD
:401F40001348535A8A1851880904194303784078000218430EF066FE002811D00D4B1B6800210A20FF3098470B4A137802218B43137005E00422094B1A700020FFF74AFFAA
:401F800010BDC046C4240020A40C0020A0240020B02400207C240020C52400209F24002010B5002804D0214A13780133137008E000231E4A13701E4A138002E001331B4A18
:401FC00013701A4B1B78022B0CD85A00D2185100184A8A5A184909888A42EFD3164949888A42EBD8022B19D85A00D3185900114B5918124A13785078000218430EF046FE64
:40200000002811D00E4B1B6800218420400098470C4A137802218B43137005E003220A4B1A700020FFF766FF10BDC046C424002030110020A40C0020A0240020B02400203A
:402040007C240020C52400209F24002030B587B00400244B1B78022B42D1234B1B88002B3ED0214DA91C0422684601F00EF96168228901A801F009F9684600F0B7FA2B88F7
:4020800001339BB26A461380184A127851008A185100174A51184A8869464A80934214D8144A13785078000218430EF0EFFD00280ED0114B1B6800218420400098470F4A3C
:4020C000137802218B43137002E00120FFF768FF0A4A137801218B4313700022024B1A8007B030BD9F24002030110020C4240020A40C0020B02400207C240020C5240020A9
:4021000030B587B00400244B1B78022B42D1234B1B88002B3ED0214DA91C0422684601F0B4F86168228901A801F0AFF8684600F05DFA2B8801339BB26A461380184A127842
:4021400051008A185100174A51184A8869464A80934214D8144A13785078000218430EF095FD00280ED0114B1B6800218420400098470F4A137802218B43137002E0012083
:40218000FFF70EFF0A4A137801218B4313700022024B1A8007B030BD9F24002030110020C4240020A40C0020B02400207C240020C524002010B51D4B1B789B0734D51C4B72
:4021C0001B78022B16D0DAB2022A02D8012B05D02AE0032B17D0042B1ED025E00222144B1A700020FFF7DCFE104A137801218B43137019E00120FFF7D3FE0C4A137801212C
:402200008B43137010E00120FFF774FE074A137801218B43137007E00120FFF7FBFD034A137801218B43137010BDC046C52400209F24002010B5054B1B789B0704D5837966
:402240000A2B01D1FFF7B6FF10BDC046C5240020F0B583B005000C00B44A117801230B43DBB21370582800D94FE18300B04AD3589F4601AE0727377000237370300003F01B
:4022800059FC377001237370300003F053FC01F05DFCA84B1E683000FFF7B4FB00280CD0300001F05FFCA34E00213068FFF72AF930680121FFF726F92AE09F4B1F789F4B8A
:4022C00018788001FC263601020032403F21394011439B4B1B781B03F822520213401943984B1B785B04FE22120413400B43964E33701A0A72701B0CB370300001F032FC4D
:4023000000213000FFF7FEF801213000FFF7FAF803200DF035FC01A83F230370002343700DF04CFC0622894B1A70EEE02000FFF7FFFAEAE02278864B1A70E6E02378002B8E
:4023400000D0E2E06378002B07D1824B0022DA839A83814A9A6118336360744A137801218B431370D1E0714B1B789B0600D5CCE07A4B1B7D102B02D10522784BDA75784B6B
:402380001878764914310DF0B1FD01AB1880002804D0744B1B6801A936209847634A117801230B43DBB213706D4B18786B4914310DF088F9A9E06C4B1B88002B01D00AF02D
:4023C0008FFC0222614B1A709FE006225F4B1A709BE05E4B1B78022B00D196E0534A1278D20700D491E0514A1278520708D50322564B1A704D4A137804218B43137084E006
:402400004A4A1278120708D50622504B1A70474A137808218B43137077E0032B75D106224A4B1A70514B1B78002B6ED10120FFF719F8002869D10322444B1A7065E0434B5F
:402440001B78022B61D0394A1278D2075DD5374A1278520707D504213C4B1970334A13788B43137051E0314A1278120708D50622364B1A702D4A137808218B43137044E086
:40248000042B42D10622314B1A703EE002222100334800F0FAFE00232D4A1370344A137033E0FFF783F930E06188162900D9172120880EF031FF28E02000FFF787FA24E081
:4024C0002000FFF7B1FA20E02000FFF749FB1CE0FFF770FE19E02000FFF746FC15E02000FFF7A8FE11E02000FFF748F90F4B1B78DB070AD420680EF077FB06E02000FFF776
:40250000A5FD02E02000FFF7FBFD084B1A7811231A4209D0054A137801218B431370114B1B6821002800984703B0F0BDC52400203C770100140C00207CF2FF0F7DF2FF0F11
:402540007BF2FF0F78F2FF0F180C00209E240020AC24002030110020A00B0020A40C0020B02400207C2400209A240020C32400209F240020F0B5002630E03000B31C5A00A6
:40258000D3185A00174BD35A002B1ED024E00301154AD318DB682C011B1900221A80002308E0D7685900C9188A00BA180021118001339BB202010C498A18D2681219917AFF
:4025C0008B42EED30135ADB200E000250301064AD3185B7A9D42DAD30136B6B2002ECCD0F0BDC046A40C0020C00C0020F8B506000027002424E025002301144AD3181B7A12
:40260000022B1BD1311D2301D3185868102200F02DFE002812D102356B005B195A000C4BD35A002B0AD10A4B98180422310000F02CFE084A13780133137001270134A4B255
:40264000002C01D1002FD6D0F8BDC046C00C0020A40C0020C4240020F8B54F464646C0B406000F003E4B1B68002B09D03C4A9288824202D10A88013A1A800022384B1A60E4
:4026800000239846002450E0BD7D022D12D13301344AD318DA682301D3181A7A022A0CD1B91D58680E3200F0E1FD002808D00023994607E00023994604E00023994601E098
:4026C00001239946012D11D13301264AD318DA682301D3181A7A012A08D1B91D5868013200F0C4FD002801D1012399464B46012B19D133011B4AD318DA682301D2181188C4
:40270000002910D1B98811803101164A5218D168C918B8784872D268D3180233104A13609680012398460134A4B233010D4AD3185B7A9C4202D24346002BA5D0084B1968F9
:40274000002908D0084B1B785A00D3185A00074B9A1853880B800CBC90469946F8BDC04650110020C00C0020C4240020A40C002030B583B000236A461380538000281CD087
:40278000284AD3885C1C11890A01274DAA18527A944202D2234AD48014E04A1C05D1214B013119810022DA800CE020490A7801320A7001331B4AD38004E01A4B00221A8168
:4027C000DA80012017490B891A01174CA218547ACA8894420BD91B011349CB18D9681301CB18198801316D4629805B886B806B461B880F4909888B4209D90D4D6D88AB42A0
:4028000005D86D466D88A94201D8AB4201D99442B4D8009B180C00041B041B0C184303B030BDC04650110020C00C0020C4240020A0240020F8B54F464646C0B40600002358
:402840009846002542E0377D022F12D16A0052199300E268944663441A7A022A0CD1311D58680E3200F002FD002808D00023994607E00023994604E00023994601E0012388
:402880009946012F11D16A0052199300E268944663441A7A012A08D1311D5868013200F0E5FC002801D1012399464B46012B0BD1E1686A0052199300CB181A88002A03D180
:4028C00072881A80012398460135EDB2094A13891B010949CB18DB68D48824011C19A37A9D4202D24346002BADD00CBC90469946F8BDC04650110020C00C0020014BD86406
:402900007047C0460000002010B5040000F0CDF9044A13689B009B08A4071C43146000F0C8F910BD00E400E00822014B1A60704700E100E00822014B1A60704780E100E024
:4029400010B50400FFF7F6FF2000FFF7D7FF0320FFF7DAFFFFF7E8FF10BDC04610B500F0A4F9044A136802218B43136000F0A1F910BDC046000020400004000C014B186005
:402980007047C046480120400004000C014B18607047C0465401204070B504000D0000F084F9AC40024B1C6000F083F970BDC0460800204010B500F078F9064A11680223F8
:4029C0000B43136000F075F918210220FFF7E4FF10BDC04600002040014B18607047C0467801204010B580229204074B1A600C22064B1A600020FFF7EFFF0548FFF7C4FF2B
:402A00000020FFF7B9FF10BD40012040640120408813000010B5064B1B78002B04D1FFF7E1FF0122024B1A70FFF7C4FF10BDC0465A1100200004000C014B18607047C046D9
:402A4000080120400004000C014B18607047C0461401204070B504000D0000F026F9AC40024B1C6000F025F970BDC0460800204010B500F01AF9064A116801230B431360CE
:402A800000F017F918210120FFF7E4FF10BDC04600002040014B18607047C0463801204010B580229204084B1A600C22074B1A600020FFF7EFFFFA208000FFF7C3FF00205C
:402AC000FFF7B8FF10BDC046000120402401204010B5064B1B78002B04D1FFF7E1FF0122024B1A70FFF7C4FF10BDC0465B110020014B18657047C0460000002010B5040070
:402B000000F0D3F8044A1368C0218B43A4011C43146000F0CEF810BD04E400E01022014B1A60704700E100E01022014B1A60704780E100E010B50400FFF7F6FF2000FFF775
:402B4000D7FF0320FFF7DAFFFFF7E8FF10BDC046034A10681023184010600009C0B2704710000440014B58647047C0460000002010B5040000F099F8044A1168044B0B4007
:402B8000A4031C43146000F094F810BD00E400E0FF3FFFFF0222014B1A60704700E100E00222014B1A60704780E100E010B50400FFF7F6FF2000FFF7D5FF0320FFF7D8FF80
:402BC000FFF7E8FF10BDC046034A10682023184010604009C0B2704710000440014B98647047C0460000002010B5040000F05DF8044A1168044B0B40A4051C43146000F08F
:402C000058F810BD00E400E0FFFF3FFF0422014B1A60704700E100E00422014B1A60704780E100E010B50400FFF7F6FF2000FFF7D5FF0320FFF7D8FFFFF7E8FF10BDC046F1
:402C400004490A68D2B240239A438001184010430860704700020440024B186880090123184070470402044004490A68D2B240239A43800118401043086070470003044058
:402C800004490A687F231A40C301D8B2104308607047C046000304400230800803D00138FDD1C046C046C0467047EFF3108072B6704780F31088704710B5FFF7F6FF044ADE
:402CC000136804218B43136030BFFFF7F2FF10BD10ED00E00160704701607047324B1A781202324B1B781A43314B1B781B02314909780B4330498B4201D1072A06D0D4212A
:402D000009018B4206D1042A04D102E02B4B042200E02A4B2A490B602A4B1A602A4B1B781B022A4A1278134380229201934202D0002B02D002E0264B00E0254B254A13606B
:402D4000254B1B781B02254A12781343244A934205D0244A934204D0052B05D103E0224B02E0214B00E0204B204A1360204B1B681B09204A1268AA2A15D1012B13D9164BC0
:402D80001B780E2B0FD11C4B1B781B021B4A127813431B4A13601B4B1B781B021A4A127813431A4A1360704759F1FF0F58F1FF0F5FF1FF0F5EF1FF0F580B0000580D000019
:402DC0006C002E4074002E405BF1FF0F5AF1FF0F0220000078002E405DF1FF0F5CF1FF0F0F0F000005050000050F000080002E40EC0F00F0E00F00F06DF2FF0F6CF2FF0FD8
:402E000084002E406FF2FF0F6EF2FF0F94002E4010B5FEF7F1F810BD10B5FEF7D5F810BD10B500F04BF810BD10B500F04FF810BD10B500F04BF8034800F02AF8032000F007
:402E40002DF810BDF92E000010B5024800F046F810BDC046F92E000000487047020200002B2070472B2070472B2070472B2070472B2070472B2070472B2070472B207047EF
:402E80002B2070472B2070472B2070477047C046014B18677047C0460000002010B50400FFF703FF044A1368C0218B43A4011C431460FFF7FEFE10BD0CE400E08022520172
:402EC000014B1A607047C04600E100E080225201014B1A607047C04680E100E010B50400FFF7F4FF2000FFF7D3FF0320FFF7D6FFFFF7E4FF10BDC04610B514F09BFA10BD76
:402F0000002243088B4274D303098B425FD3030A8B4244D3030B8B4228D3030C8B420DD3FF22090212BA030C8B4202D31212090265D0030B8B4219D300E0090AC30B8B4220
:402F400001D3CB03C01A5241830B8B4201D38B03C01A5241430B8B4201D34B03C01A5241030B8B4201D30B03C01A5241C30A8B4201D3CB02C01A5241830A8B4201D38B02E1
:402F8000C01A5241430A8B4201D34B02C01A5241030A8B4201D30B02C01A5241CDD2C3098B4201D3CB01C01A524183098B4201D38B01C01A524143098B4201D34B01C01A56
:402FC000524103098B4201D30B01C01A5241C3088B4201D3CB00C01A524183088B4201D38B00C01A524143088B4201D34B00C01A5241411A00D20146524110467047FFE7B2
:4030000001B5002000F0F0F802BDC0460029F7D076E7704703460B437FD4002243088B4274D303098B425FD3030A8B4244D3030B8B4228D3030C8B420DD3FF22090212BA28
:40304000030C8B4202D31212090265D0030B8B4219D300E0090AC30B8B4201D3CB03C01A5241830B8B4201D38B03C01A5241430B8B4201D34B03C01A5241030B8B4201D354
:403080000B03C01A5241C30A8B4201D3CB02C01A5241830A8B4201D38B02C01A5241430A8B4201D34B02C01A5241030A8B4201D30B02C01A5241CDD2C3098B4201D3CB011D
:4030C000C01A524183098B4201D38B01C01A524143098B4201D34B01C01A524103098B4201D30B01C01A5241C3088B4201D3CB00C01A524183088B4201D38B00C01A5241A9
:4031000043088B4201D34B00C01A5241411A00D201465241104670475DE0CA0F00D04942031000D34042534000229C4603098B422DD3030A8B4212D3FC22890112BA030A4E
:403140008B420CD3890192118B4208D3890192118B4204D389013AD0921100E08909C3098B4201D3CB01C01A524183098B4201D38B01C01A524143098B4201D34B01C01A75
:40318000524103098B4201D30B01C01A5241C3088B4201D3CB00C01A524183088B4201D38B00C01A5241D9D243088B4201D34B00C01A5241411A00D20146634652415B1024
:4031C000104601D34042002B00D54942704763465B1000D3404201B5002000F005F802BD0029F8D016E770477047C046014B18687047C046BC1000200E4B70B500251E005E
:403200000D4CE41AA410A54204D0AB00F35898470135F8E714F080FB084B00251E00084CE41AA410A54204D0AB00F35898470135F8E770BD24790100247901002479010017
:403240002C79010010B5034B0100186800F07AF810BDC046BC10002010B5034B0100186800F024F810BDC046BC10002030B50024A24208D0035D651C0C5DA34201D0181B9C
:4032800002E02C00F4E7002030BD002310B59A4203D0CC5CC4540133F9E710BD03008218934202D019700133FAE7704770B50500002944D00C1F2368002B00DAE418280081
:4032C00000F0D4F81E4A13681100002B02D16360146031E0A3420DD92268A018834203D118685B688218226063600C6024E0A24203D813005A68002AF9D11E689819A042FF
:403300000BD12168711858181960824214D110685268411819605A600EE0A04202D90C232B6009E021686018824203D1106852684118216062605C60280000F098F870BD09
:4033400030230020032370B5CD1C9D43083506000C2D01D20C2501E0002D01DBA94202D90C23336048E0300000F080F8234B1C681A002100002913D00B685B1B0DD40B2BDB
:4033800002D90B60CC181EE08C4202D1636813601AE04B6863600C0016E00C004968E9E7174C2368002B03D1300000F02BF820602900300000F026F8431C18D00323C41CA3
:4033C0009C43A0420DD12560300000F050F8200007220B30231D9043C31A0ED05A42E2500BE0211A300000F00DF8431CEBD10C233000336000F03BF8002070BD30230020E6
:403400002C230020002370B5064C050008002360FDF7D8FA431C03D12368002B00D02B6070BDC046C82400200EB410B59DB002A9029008610B488224886048610120404203
:403440001FABC881084804CBA400006801938C8100F070F80023029A13701DB010BC08BC03B01847FFFFFF7FBC10002070477047F0B58E6885B007000C00039201939E42A2
:4034800043D890238A89DB001A423ED003250969236801985B1A029363695D43EB0F5D19029B6D1001331B18AB4200D91D00530510D529003800FFF745FF061E14D0029A62
:4034C0002169FFF7E2FEA289194B134080221343A38112E02A00380000F0DAFA061E0CD121693800FFF7E2FE0C23402201203B60A38940421343A38117E0029B2661F6181F
:4035000026606561019EED1AA560019BB34200D21E0032000399206800F0A5FA0020A3689B1BA36023689E19266005B0F0BDC0467FFBFFFFF0B59FB0029005938B890F0061
:4035400016001B0610D50B69002B0DD14021FFF7F9FE38603861002804D10C23029A01381360D8E040237B61002306AD6B6120336B761033AB7634002378002B03D1A31B02
:40358000049312D003E0252BF9D00134F4E7A31B320039000298FFF76BFF431C00D1B4E06A69049B944663446B612378002B00D1ABE00122002352426A6002A9543252187F
:4035C00001342B60EB60AB601370AB65534E21780522300000F03CFA002807D00123801B83402A68013413432B60EFE72B68DA0604D55322202102A8121811701A0704D51B
:4036000053222B2102A81218117022782A2A03D0099B00200A210EE0059A111D12680591002A01DB099204E05242EA60022213432B6001340BE02278303A092A04D84B43D0
:4036400001349B180120F6E7002800D0099323782E2B1ED163782A2B0AD1059B02341A1D1B680592002B01DA01235B42079310E000230A201A0001346B60217830390929CF
:4036800004D84243013452180123F6E7002B00D00792234E21780322300000F0D9F9002806D04023801B83402A68013413432B60217806221B48661C297600F0C9F90028CE
:4036C00012D0194B002B06D10722059B073393430833059314E005AB00933A00134B2900029800E000BF07E005AB00933A000F4B2900029800F08AF80390039B013304D079
:403700006B69039A9B186B6135E7BB890B985B0601D5012040421FB0F0BDC046E4780100EA780100EE7801000000000071340000F7B5170001938A680B6900900C00934240
:4037400000DA130022003B6043321278002A01D001333B6023689B0602D53B6802333B60062523681D401ED0230043331B785A1E9341226892061CD53020E118433108709F
:4037800021005A1C45310978A2184332023311700FE022000123193201990098089EB047431C0ED00135E3683A689B1A9D42F0DBDAE72200019943320098089DA847431C0B
:4037C00002D10120404220E006232068E1683A6803400025042B03D18D1AEB43DB171D40A3682269934201DD9B1AED180027BD420AD0220001231A3201990098089EB047C4
:40380000431CDED00137F2E70020FEBDF0B58BB006920A0043320793059004920A7E0C00109B6E2A00D1ABE011D8632A22D009D8002A00D1B5E0582A00D0C5E045310A70E0
:40384000814A4FE0642A1DD0692A1BD0BCE0732A00D1AAE009D86F2A29D0702A00D0B3E0202209680A43226037E0752A1FD0782A33D0A9E00E001A684236111D19601368D2
:403880003370A4E021681A68080606D4490604D5111D19600023D55E02E0111D19601568002D3BDA2D23049A6D42137036E021681A68080606D4490604D51568111D19600C
:4038C000ADB202E0111D196015685F4B227E039308276F2A1DD00A271BE022007821453211705A4A19680392081D226818600D68100602D4500600D5ADB2D30702D520232F
:403900001A4322601027002D03D1202322689A4322602300002243331A7002E00A274A4B03936368A360002B09DB0422216891432160002D05D1049E002B11D07BE0002DA7
:4039400079D0049E28003900FFF760FB039B013E5B5C280033703900FFF7D2FA051EF1D1082F09D12368DB0706D563682269934202DC3023013E3370049B9B1B23612BE0F0
:4039800009681A68080607D4490605D5111D19601368A28A1A8004E0111D1960136862691A600023049E236116E01A68111D1960166800216268300000F04AF8002801D0A3
:4039C000801B6060636803E0260042363270012323610023049A1370079B09AA00932100069B0598FFF7A4FE431C02D10120404227E02369320006990598079DA847431CEB
:403A0000F4D0236800259B070FD4099BE068984217DA180015E022000123193206990598079EB047431CE1D00135E368099A9B1A9D42F0DBE9E72600039B42361B7833708B
:403A40008EE70BB0F0BDC046F578010006790100C9B28218904204D003788B4202D00130F8E70020704710B5884202D98B18984201D3002305E09B1A013A08D3995C815461
:403A8000FAE7934203D0CC5CC4540133F9E710BDF8B506000C001500002904D11100FFF751FC040018E0002A03D1FFF7FFFB2C0012E000F013F885420ED929003000FFF736
:403AC00041FC071E07D021002A00FFF7DEFB21003000FFF7EBFB3C002000F8BD0B1F1A68101F002A04DA891804390B68D018043870470000134A1088810703D08107890FB6
:403B0000401A001D11791030484381B25088820703D08207920F801A001D800040180A494030098980B2CA0701D0503080B2890706D504495422091F09785143081880B201
:403B400070470000F20C00206811002010B501F011FF10BD10B501F013FF10BD10B500F05BFA10BD10B50749044609780220002907D1204601F054FF002802D120460CF0CE
:403B800003F910BD9E0E002070B504460120002C12D02368002B0FD0616800290CD0074D06222889208118462968FFF76EFB6968606809780170002070BD000068110020E2
:403BC000FFB585B0002768460E9D07734F481C460078002802D0082009B0F0BD10990F9801900095029105A807C800F007F90028F2D16946264603AB84460873002C19D066
:403C0000002115E08A00B75A082F09D990198078002805D0083FB7521878401C187005E0002914D00027B75290198770491CC9B2A942E7D360460028CED10F98002809D0FC
:403C4000109901F047FA002804D00120C4E701208446EFE701F094FE2D480021416081600599016021888180022D07D3A1798171A17AC171A1890181218A418100211EE002
:403C8000481C19E082008B00A75AE65ABE46BE4211D26F463E80B4461E190296B678BE7001967646E6521719029EBB78B3706646A652019EBE70401CA842E3D3491CA9426C
:403CC000DED3134822460C3000906846037B0799069800F01BF90028B8D168460B4C007B60700B480C3001F07BFE0028AED1084907480C3108F090FF0028A7D108F0AAFFD0
:403D00000028A3D10121217066E70000EC0C00205C110020F8B5054636480F460078002802D002242046F8BD002F60D000243249002D16D02A89D0070DD02868002808D0BC
:403D400003881B3BE12B04D24088FB2801D81B2801D2012409E0900707D56868002804D1F7E70020088108604860002CDAD122482E8906811F481B21801D0180418004219B
:403D800001711C490020891C0870F00705D019480622801D2968FFF778FA1749B00703D56A68144812788270124D0E46AD1D281F0D60486001F05AFE284601F049FE3089EA
:403DC0000FF098FF30890FF033F828880FF036F8308910F00FF903461033FFF78BFE1F21C018890140183880A91F88809AE7012498E70000EC0C002068110020FFB58446CB
:403E0000384F1C460020BB883F78054602460646002F11D100290ED0029999420BD36146002908D0002C06D00A99002906D02E4B0B99994202D2012004B0F0BD002144E055
:403E4000AB001F19BF78002F3BD0E35A002B38D07B43591889B22B0000F04AF8050410161C253100A7782388BC46FF27233BEB37BB4222D26346032B1FD322E0A388002B92
:403E80001FD0302B19D31CE02389002B19D0282B13D316E0A289002A13D01346134F233BBB420AD20DE0268A002A0AD033460F4F233BBB4201D2964203D901200EE000202E
:403EC00001E000280AD16D1CEDB2099B9D42B7D31C2463435B1802998B42ACD89642AAD8AAE70000EC0C002079020000BAFF000030B47446641E2578641CAB4200D21D46CE
:403F0000635D5B00E31830BC18470000FFB583B0002469460C801F4606468C80002806D00598002803D004983043800701D0012466E0002FFBD03449049809888842F6D37E
:403F4000FEF782FFFEF770FF00F016FC002855D100F07EFD002851D12C49084601F0EEF805042D0C4AD12A480499066081800021C18007810C98007AC00704D0684601F0B3
:403F800018FD040007D10C98007A800703D501A801F018FD0446BF1DFEB2002C20D13146059800F05DF804001AD110F031F8040016D16A461088928808368518144AF1B257
:403FC0009088D288AEB29319984207D3401B801A80B201F0A3FB050007D000E0FF25012400F062FA002D04D008E0F8B200F01CF9F6E700F085FA07490120087000F0CEFB02
:40400000204607B0F0BD0000F00C00204D41000074110020F80C002010B503480078012801D101F01DFA10BDF80C002070B5084B0446DA889E8803205518B54206D8186898
:4040400080182060D8884018D880002070BD000074110020014800897047000074110020F0B587B007460D4600208900009006916846FFF7DBFF844600285DD130480099FD
:404080000160002117E02E4B88001A680629115406D22C4C0419667882185670628805E0C419203CA67A8218567022891B68C018491C4280C9B2A942E5D300242DE0601C45
:4040C000C2B2059025E01E4FA30039689600581840887118039604904E88B04217D938466F46FE80B6464F786E4677710297049F4F800168039F5E18767879184E70016883
:40410000764659184E800068029F18184770521CD2B2AA42D7D30598C4B2AC42CFD36046002809D168460699FFF780FF8446002802D1054900980860604607B0F0BD0000E2
:40414000FC0C002050790100000D00207047000010B5002809D005494A68002A05D0011F08788000105801F087FA10BDFC0C002010B50446FFF76EFFC0B2801DA0420CD373
:4041800007484068002808D0A100405801F0E6F9002801D00470001D10BD002010BD0000FC0C0020F8B516460D460446FFF752FFC0B2801DA04203D20020C0430090F8BD78
:4041C000B2B2E9B2684601F0EFF90099481C03D0024AA000526811500098F8BDFC0C0020F8B50746FFF736FF801DC6B20A49002005460C680DE06178002907D06188B942D7
:4042000002D32078FFF7B4FF002804D1241D6D1CEDB2B542EFD3F8BDFC0C002010B5002801D0FFF795FF10BD70B506460948002504680BE06178002905D062882078121D91
:404240000023FFF7AFFF241D6D1CEDB2B542F1D370BD0000FC0C0020FFB581B00A9F16000C4620D000F0F6F8054604281BD0002F0CD03846FFF7B4FF20492A015118486001
:40428000002810D03A460499FEF7FFFF1B4928010E504618778101980570200406D47D20C000444304E0FF2005B0F0BD6404640C00F0BEF80746042807D000F053FAA04263
:4042C0000BD800F04FFA201A03E0204600F0AEFA0020F06035720020E6E700F043FA009000F0BAFA00980121001B009000F0F0F802493A0151180098C860E6E780110020B8
:40430000F8B5042801D3FF20F8BD060116483418217A042903D0E068002802D017E00020F8BD00F01FFA054600F096FA00F0A0F804280CD001010C480F18F86800214519E2
:4043400000F0C6F80020F860284600F06FFA6068054D002801D0FFF761FF042020720020A8516081E060DAE780110020FEB500266A46304601232549050169180D7A042DB5
:4043800002D0C96800291BD000211154401CC0B20428F0D300246846005D002830D01B48210108184189476805680291002101604160042241810272C160002E02D015E099
:4043C0001354E3E700F054F804280ED001010F4808180190C6680021304600F079F801980021C160304600F021FA0126002D07D038460299A847002F02D03846FFF70EFF05
:40440000641CE4B2042CC6D3FEBD0000801100200EB5002005216A4600901181508103486946006810F08BFC0EBD0000040D0020074A0020010189180B7A042B02D0C968D5
:40444000002903D0401CC0B20428F3D370470000801100200549002002015218127A042A03D0401CC0B20428F6D370478011002030B50A4B04200A4C00210A011219157AEB
:40448000042D06D0D268002A03D09A4201D808461346491CC9B20429EFD330BDFFFF0000801100207047000030B50020074C05460423020111190B72A5504D60401C4D8100
:4044C000C0B2CD600428F4D330BD00008011002030B5094C00231A011219157A042D04D0D568002906D02D18D5605B1CDBB2042BF1D330BD2D1AF7E780110020002070470E
:404500001CB5002469460C70142001902346054A054810F019FC04480068401C00D1FF2420461CBD7D450000040D00203EB5124A0146FF2000230124126800290DD001299F
:4045400014D0042908D104206946009308814B81104610F0F4FB80B23EBD68460093048143816946104610F0E5FBF4E768460093048143816946EBE7040D002070B54589AB
:404580000468416800890300FFF7B2FC08280509091E22282628002007F04EF81EE0022908D0C8B22A4621460EF096FB2046FFF735FE13E002202A4621460EF08DFB29460B
:4045C000204600F00DF809E0002010F0B7F805E02046FFF7CBFE01E0FEF758FC002070BD014B0022DB681847080D002070B5448905680089022803D0032809D0FF2070BDAD
:404600002246094C0023A46829460120A04708E0FFF7A0FA241DA2B200232946022008F0AEF9002070BD0000080D002070470000024800214160018041807047080D002044
:4046400070B50C46002186B016460391012802D0022859D116E003A9012008F0E5F901281BD1039D324621462846FEF70EFE0095287801900220694608814E816846FFF7FE
:40468000B5FF41E0214D002B686809D0049004A9022008F0C9F901281DD0022006B070BD002812D0298840182146FEF7EEFD28880024801980B228806988091D884206D152
:4046C0002C801348FFF792FF03E00320E6E788421AD96C6018E004986860E278A378110219430B4A698000231060E3565360032313815181A1788170E178C1706178417029
:4047000021780170042028800020C7E7080D0020C01100203EB515460C46022803D004280CD000203EBD0091019002206946088107484A81006810F002FB07E00EF0CCFA49
:40474000044B0022DB6829462046984701203EBD040D0020080D0020014AD16090607047080D0020034801688068081A0A21484300097047CC11002010B5FEF759FB4C224A
:4047800004490548FEF781FD03490120C870002010BD00006C790100D015002010B5FEF73FFB10BD70B5134C2368002B08D0207B1149C20705D04008400020738868A080DE
:4047C00070BD88680B4AA18880B29268814203D90A4D691A091802E0814202D2411A5118A160A080A0689842EAD310F0C5FA00F013F870BDCC110020C0102E40FFFF00003B
:4048000010B508461946FFF7A7FF10BD704710B5FFF780FF10BD000003480021016041608160C16070470000CC110020024610B5FF20002A0CD0FFF7EFFF064C0321207B94
:404840000843207310010A21FEF7E0FB2060002010BD0000CC11002000B504480A21806848430209FFF7D8FF104600BDCC1100200248007B8007C00F70470000CC1100208E
:4048800010B54B490868002802DA4A4B01221A70022290430860484800694549C00B4031096A0246C907C90F0A4259D0012000F097FA3F480E216C30FEF70EFA3E48202137
:4048C0008430FEF709FA3C4814219C30FEF704FA3948FF21C131A430FEF7FEF93648FF212F31B030FEF7F8F933483449BC30FEF7F3F931483249AC30FEF7EEF930492E481D
:40490000491CB430FEF7E8F92B482E49B830FEF7E3F929482C49CC30FEF7DEF926482B490830FEF7D9F924482949A830FEF7D4F9214828498830FEF7CFF91F4826498C30CD
:40494000FEF7CAF91C481921C9029030FEF7C4F9FEF7C4F9FEF780FAC0B2022812D01FE000290BD0002101420AD0114801216030FEF7B2F90120FEF74FFA97E70121F2E741
:40498000FF2010BD15491648FEF7A6F914481549001DFEF7A1F9124800210830FEF79CF954200449C043891C0870002010BD000000F02E40180D002000002E403203000004
:4049C0002F3F00003102000010520000EC160000FA12000031D000003AE300009956000080012E40F80F000070B50646581C80B245086D00002408E0304600F0C1F8105542
:404A0000000A1119A41C4870A4B2AC42F4D3D80705D0D0182038D15CC47FD454C17770BD30B50A4C002100195B1E07E0541864782502545C2C430480891C89B29942F5DB5C
:404A4000994201D1515C018030BD000000102E4010B5FF2000F0C4F90F49FF2048700E481021801D41800121417001700A490020C91C4870FFF704FF04000AD100F010F926
:404A800007210648FEF726F9044807211830FEF721F9204610BD0000180D0020CC112E4070B5002405465B1E0AE0284600F068F8010A161971702D1D1055A41CADB2A4B2EA
:404AC0009C42F2DB9C4203D1284600F059F8105570BD000070B500210A4D5B1E0AE0541864782602545C344346193480001D891C80B289B29942F2DB994202D1515C4019E3
:404B0000018070BD00102E40F0B50599091FCFB200217E1E0BE0541864782502545C2C43164D45192C80001D891C80B289B2B142F1DBFC0712D01C78515C24020F4A0C43D8
:404B400081180C809C785D78001D210280B2294384182180001D80B2D9780CE059781A7809021143054A84182180001DD9789B78090280B2194380180180F0BD00102E40D4
:404B8000014940180088704700102E4010B50B490020487000F084F8002000F047F9002000F034F907210648FEF794F8044807211830FEF78FF8002010BD00001B0D002048
:404BC000CC112E4010B50B46062812D006DC01280CD0032801D1FFF7D9FF10BD0A28FCD00B28FAD105480078107010BDFFF730FF10BD1146184600F035F910BD1E0D0020DA
:404C0000F8B5244DAC6A0127A007234E002816DA307806280ED1286A384328621F480069F903084381B21D481030FEF755F8042000F0D6F8174802212830FEF74BF8E00790
:404C400018D000F01FFF01280FD1002000F06CFF062000F0C5F81049FF20C91E48707078002802D1686B384368630A4801212830FEF730F8E0050BD53078042802D105205A
:404C800000F0AEF80348FF2101312830FEF722F8F8BD000040F02E401B0D002000002E4010B503212348FEF717F80120FEF7B0F820483038406A204C80076178800F8900DD
:404CC00001431C480C38FEF707F86078002808D0401E022181401820FEF782FAC000083800E0B82081B21548FDF7F6FF1348032109021438FDF7F0FF10481149B830FDF799
:404D0000EBFF612189010F48FDF7E6FF0D480321001FFDF7E1FF0C490C48FDF7DDFF0B480B496038FDF7D8FF084801218838FDF7D3FF10BD70F02E401E0D0020D8102E402A
:404D400090890000041E2E40FF0F000058122E40209000000848017806290BD140780749002803D1486B400840004863C86A01221043C862704700001B0D002040F02E40C7
:404D800001480078704700001B0D002000B50300FFF7AEF8080D050D0B070507090D012000BD032000BD042000BD022000BDFF2000BD0000074A9168D26889B2064B92B2D6
:404DC000994204D105498A4201D1012100E000210170704780002E4033D000003FE3000010B50446FEF720F8072C01D9FF2C01D102480470FEF714F810BD00001B0D0020BF
:404E00000149487070470000180D002010B5064A012805D01921C9021046FDF75DFF10BD1D21C902F8E7000090002E4010B50A4A141D012808D009491046FDF74DFF08497F
:404E40002046FDF749FF10BD04491046891CFDF743FF0349491DF3E788002E4031D000003AE3000070B50C460546FDF7F5FFC0B202280E49287804D0FF2810D04C280CD835
:404E800010E0FF2809D10A4AD0680004800F032801D0087807E09069000A553803E00878207070BD4F382070087070BD1A0D002000002E40F0B50122002834D0002932D03F
:404EC0000424420600D00524792342065B06D21800D0641C034600221EE00C2516466E43124D00277519AF72104F002ABB51696007D0661EB24209D10D4E86197606760E6D
:404F000005E05E06760E8027BE1B00E080269B198919521C2E81D2B2A242DED303480549006B002288611046F0BD00005814002079020000240D002018B500206946087094
:404F40000A48006900280ED0132149014018047E684604704F21C900054800F05BF8A04201D0012018BD002018BD0000240D0020DC110020074900200C2242435218927A98
:404F8000012A05D0401CC0B20628F5D3002070470120704758140020F8B50F000446164609D01A4D1A496868A04202D94018A04201D38E4201D90120F8BD39462046FEF7F8
:404FC00055F9002820D0324639462046FEF75DF90E49F0B2012620318E7600210C220B4653430A4A9A1813895568EF18A74207D9641B1B1B9672834206DAC01A1469C0B29E
:40500000491CC9B20629E9D30020F8BD5814002079020000034610B50020024604E09C5C2018521CC0B292B28A42F8D310BD000070B500F05FF8084C064A216907480D467B
:40504000FEF723F905492846FFF734FFFFF774FF207070BD79020000240D0020DC110020002070470020054A002902D0012902D002E0906000E0D06000207047240D0020F4
:4050800070B5084C154608460549E26889182A46FEF7FBF8E0684019E06028B270BD0000DC110020240D00203EB50A226946FFF7E7FF044606480A2200686946FEF7D6F8AF
:4050C000002802D00020C0433EBD20463EBD0000280D0020002802D0044A914201D2FF20704703494A6108610020704779020000240D0020024800218160C16070470000F7
:40510000240D002070B5074C15460548A26880182A46FFF741FFA0684019A06028B270BDDC110020240D002010B503490A220968FFF7E8FF10BD0000280D002010B50F4A25
:40514000002313600E4A13600E4B18600E4801600E49012008600E490860000290600E490C4808600D4914300860FF381538506000F0BCF800F0CAF9002010BD580D0020A3
:40518000400D00206C0D0020700D00205C0D00204C0D0020A0150020500D0020640D0020014610B50020002910D0094B1A689C685118A14209D25868196080188A0704D0FB
:4051C0008A07920F891A091D196010BD002010BD400D0020F8B50024164E671E321F3D463168136806E01422624310328A58521C1BD0641C9C42F6D36A1C14D02C461422FB
:40520000544322460C3288500C214843FFF7C8FF3168002808510AD031680020103408517068401C70602846F8BD2546E4E73846F8BD0000500D0020F3B50026F64381B055
:4052400000281BDB1E490968884217D80299002914D01B4F142204463F1D54432546396810354859401C09D0FDF7DEFD38682F1F4159C359994203DBFDF7D2FD3046FEBDB3
:40528000214608310091465801590C20704308180C220299FDF7F9FF0948761C001D0068C159B14200D100260549009A091D865008684159491C4151FDF7B2FD0020FEBD42
:4052C0004C0D0020002803DB07490968884202D90020C043704704491422091D0968504310300858704700004C0D0020F0B500200D4A451E0346171F50600FE01426014654
:40530000714314680E1DA3510C461668083433511668083435511468401C635039688842ECD30020F0BD0000500D0020F3B50026F64381B0002841DB2349096888423DD817
:40534000029900293AD0204F142204463F1D54432546396810354859401C2FD0FDF764FD3868415900292BD0211D009146580C21005971430F46C1190C220298FDF785FF67
:4053800011480021001D0068761C00590C34C0190160416081600C48001D00680159B14200D100260849009A091D865008684159491E4151FDF734FD0020FEBD3046FEBDCF
:4053C000FDF72EFDFAE700004C0D0020FEB504460D4600201E49089E0860471E009001900290002C11D0486885420ED2002A0CD0002E0AD0642E08D808460C3001681C2024
:4054000068430C18207A002801D03846FEBD0120226020721846FFF7DDFE6060401C13D06681A6810A4827610C3067610179A94200D205710021684601810A462846029B29
:4054400000F040F82846FEBD00202072DDE70000580D002038B50124009400F039F838BDFEB50027164EFF433D4600240EE01C20316860430818017A002906D04068FFF75F
:4054800021FF002801D0254603E0641C3079A042EDDA681C12D01C2130684D434419FDF7C3FC69466068FFF741FF0546FDF7B8FC002DD9D1216868468847D5E7FEBD0000E4
:4054C000640D002038B50024009400F001F838BD1FB500220C49541E0A60002811DB496888420ED808491C220C31096850430818406801A9FFF7A0FE401C02D0002004B024
:4055000010BD2046FBE70000580D0020F0B50021114A4D1E174611710C3F0B46BD6016E008461C2460431668041D355114680646235014680836A3551468361DA353044665
:4055400016680A34335318301468491C255078688142E5D30020F0BD640D002038B500210091002811DB0F49097888420DDA0D4D04010C3529680859002807D0201D081867
:40558000694600F06FF9002801D0002038BDFDF74BFC28680F34015D491E0155FDF740FC009838BD740D0020F7B582B0002502986E1E06602E48D21C024017462D4A2C46D4
:4055C00010460C380178106805E02301C358002B0FD0641CE4B28C42F7D3711C28D03401211D40180191039900F02AF900281FD101E02646F1E71F48016820460C300F52A3
:405600001C480399026820460E30115419480399026820460F3011540398784300F0A0F8144900280968085102D00024009011E001251AE00F48016801980818009900F0C0
:405640002CF9002801D0012502E00098C0190090641CE4B203988442ECD3002D05D10298066004480179491C0171284605B0F0BDFCFF0000800D0020F8B50D4600216A46E4
:405680008C461180002839DB23490978884235DA214B04010C3319680A59002A2ED020460C300B5A801C0E5C184670438018954224D3854222D2002006E007465F43BF18BE
:4056C000AF4206D0401CC0B2B042F6D36046002814D0114E271DC8190C366A46294600F006F900280AD168460088012808D030682946C01900F0D1F8002803D00120F8BD30
:405700000020F8BDFDF790FB30680F34015D491C0155FDF785FBF3E7740D0020F8B50F46002400F031F8002817D10C4900220B460C334A600EE021011D680E466A501D680A
:405740000C36AA53B61C1D680F31AA551D68641C6A54E4B2BC42EED31A71F8BD740D002000280BD0C01C074A81085068890053884118994203D893685160181870470020C4
:4057800070470000740D0020F8B5064600200F4D009029700C0121466846FEF747FC00280CD129460C3100980860301B001F84B221466846FEF73AFC002801D0FF20F8BD3B
:4057C0006C800098A8600020F8BD0000740D0020F8B5002827DB19490978884223DA174C05010C342168485900281CD028460C30085A009028460E300E5C401C0E54206847
:405800002F1DC01900F064F800280CD12068002445590EE0094829460C300068C01900F03CF8002801D00120F8BD00982D18641CE4B2B442EED30020F8BD0000740D00206A
:4058400030B50D4604000BD0A800FFF789FF6060002805D000202570C0436080002030BD012030BD70B50D46040005D0002D03D00220205E002801DA012070BDFDF7D4FA77
:405880000221615E60688900405828606088401E6080FDF7C5FA002070BD70B50D46040007D0002D05D002212078615E401E814201DB012070BDFDF7B7FA6088401C00B2BA
:4058C0006080616880000D50FDF7AAFA002070BD10B5040009D0227800216068FDF7DEFC0020C0436080002010BD012010BDF0B500231D46002802D00224045F0AE00120B3
:40590000F0BD46689F00F6598E4201D1012503E05B1CDBB29C42F4DA15700020F0BD00000148007870470000880D00207CB505460024FEF70FF9A8796946087000A806228F
:4059400029460130FDF7A1FC0021684606F04CF90C2806D0072806D01F2806D0122806D006E0022404E0042402E0272400E0012420467CBD0148012141727047DC160020E0
:4059800010B500F075F9FFF7FBF9FFF7FFF910BD70B504460025FEF7DDF8002C06D0A079012803D8214603F005FB00E00125284670BD01460120002902D05020088000202C
:4059C0007047000001460120002905D0034854220078504308800020704700008A0D002010B502460D49FE204870032410460FF0C9FC002810D10FF06DFC00280CD107F0C1
:405A00006FF8002808D100F035FB002804D106F0EBFB002800D10024204610BD880D002070B50025044600280ED0A07901280BD8FEF790F8A0790028204602D003F0A4FEB6
:405A400003E003F079FE00E00125284670BD0000014610B50120002904D006220248FDF714FC002010BD0000940D002001460120002903D00878024908700020704700006C
:405A80008A0D00200148007A70470000DC16002038B504460120002C20D0617801291DD800290BD0FF25E535FEF754F80C4828180088C0B22070072803D00EE0FF25CD3580
:405AC000F2E70020694608706846FFF773F969460878012801D108202070002038BD000000102E40014A002192681047880D002008B500226B461A7026280CD0094A34289C
:405B000052680BD0352805D1900703D50021352007F0C2F808BD19462620F9E7D007F9D03420F5E7880D00200149087270470000DC160020F8B504460120002C26D0617898
:405B4000012902D92278092A20D8002905D0FF25E5352078092803D004E0FF25CD35F8E708202070FDF7F6FF2078114F114E08280DD00020FFF75AF970780128207810D0A3
:405B80000D4969180880FE2070700020F8BD0120FFF74CF90720B8810549203188800120F2E7B8810248217820308180EBE70000C0112E40880D002000102E4070B50E462C
:405BC000050001D0002400E00C4C002C11D0E28A500609D5D107C90F022003F0C7FEE08A40218843E08204E0D107C90F012003F0BDFE3146284603F009FB70BD3C16002066
:405C0000F8B50546002004460D4E009013E022466946284601F036F90098002801D00FF093FBA878214603F0E9F8A878214603F0D7F8641CE4B2308AA042E8D8F8BD000096
:405C400008170020064A02235188891C89B25180814201D8102900D953805088704700009A0D002001484078704700009A0D002038B51E4CFFF784F8042813D0052811D0AA
:405C8000062812D003282AD007280AD100206946087002460120FEF795FFFFF771F80128FBD138BD00F010FC38BD03F027F900F00BFC03F0A1F98007800F0228F4D10C4842
:405CC00041880029F0D05B21095D0029ECD101210170A07D0140022003F048FE38BD03F011F90120FFF77CF838BD00003C160020B20D0020F8B50646002403F0A5FE05461D
:405D0000304603F0BBFE03460A480021068A0DE001228A401046174628401F40002803D0002F01D1224394B2491CC9B28E42EFD82046F8BD081700201CB5002069464870D1
:405D40006846FFF7A5FE01AA69460A20FEF73AFF6946042008561CBD70B50D4601F0C2FD04000BD02079002808D0FDF7F3FEE178A0782A4603F0F8FA002070BD022070BD39
:405D80000148007970470000101600204030C07E002800D00120704700B500F001F800BD902148430749084A40186030417F491CC9B24177D289914201D300214177C8B2D8
:405DC000704700001C1600200817002013B501F089FD04000BD002F034FB002807D0214601AA0A310620FEF7EDFE00201CBD02201CBD000010B50C4601F074FD00280AD05B
:405E000002F01FFB002806D0224604490A20FEF7D9FE002010BD022010BD0000FD150020F3B581B0074601460026029803F004FE0446002F01D0002500E0154D002D21D0AE
:405E4000284601F085FD032C04D13946029803F04FFE06463846029902F0C2FF032C06D0002C10D00121384601F062FF03E03146384604F01BF9284602F084FE0221284676
:405E800002F09AFEFEBD3846029902F0A9FFFEBD3C16002010B5044600F0C0FA002804D105F0D6F9002801D00C2010BD2078611C03F072FBFF2801D01F2010BD03F0B8FB32
:405EC000FF280AD02178621C02F014FF044821780068026B601C904710BD072010BD0000D80D002010B505F0B3F9002801D00C2010BD03F033FB03480068C06A8047002075
:405F000010BD0000D80D002070B50D46044610210FF05AF91021601806460FF055F9334610221946204605F0C9F9102130460FF04BF902202870204606F07AF870BD000042
:405F4000FEB504464078217802028006870FE0781143A5780E050002360D0543304601F0C1FCEAB23B4621460096019000F06EFA0006000E14D10B482246006801994369C1
:405F800028469847C0B2FF280AD10198EAB24030817EFF23491C81762146019800F00BF9FEBD0000F40D00200020704710B5044605F04EF9002801D00C2010BD2078611C05
:405FC00003F0EAFAFF2808D003F012FA044821780068426B601C904710BD1F2010BD0000D80D002010B500F0ADF906F0FDF8002010BD000010B504460F4802F079FA01287A
:4060000017D00D4805222146B030FDF73EF90A490522B0310846C038FDF737F901F060F8054880222038C17B1143C17300F0C6F910BD3A2010BD00003C16002010B504464E
:4060400000786178E2780843A17811430843217908436179084305D005F0E4F8002803D00C2010BD122010BD204603F08DFB002010BD000010B5FCF7EFFE03F007FD044819
:4060800005F07CF903F0BEF9012000F003F810BDE4150020F1B586B003A8009005A801902A489F22017B114001736846FDF76CFD002849D169460989C90705D024480699D3
:4060C0000068C2686846904769460989890706D5002839D11F480068816A06988847002832D11D4E0025757075737571F575357675767575B570F570B5713746F573012076
:40610000D03738731F20F880FF2130467972A0300176457600F056FB04F092FD02F072F900242046069902F01FF9002803D1641C2406240EF5D0FD720749BD72B573C0317B
:406140000D704D704D600D7207B0F0BDD0150020F40D0020D80D00201C16002070B505460E46084603F070FC0446304603F086FC0121A9400A46224001400A4301D00120F5
:4061800070BD002070BD10B50446084603F076FC0121A140014201D0012010BD002010BD10B5FEF7EDFD032804D102F0ABFE0120FEF716FE10BDFEB51C4616460F4605466A
:4061C00002F0E0FCA878FFF7E7FD02460190334639460094284600F00DF8002808D1A8780199FFF7EBFCFF2C02D138460FF0ACF8FEBD0000FFB585B005460E980C46FF284A
:4062000010D02B49C00009680A5840180179C0795278814201D9012601E09006860F6846038108E06078A1788006860FE0780002014368460181284602F03EF9070007D069
:4062400021462846079A00F09EFD384609B0F0BD304600F0AFFE04AE0346039002AA29460096204600F043FC3C20405D002818D0284602F021F9012813D0684600890096F6
:40628000C0B20190A878231DFF22079902F072FF68460089039BC2B2A878079903F04EFBD3E7684600890021C0B20091E9E70000F00D0020F8B5002600253046FFF71AFD95
:4062C00007001DD090201149704340186030447F12E0601CFCF79AFECCB23846E040C007C00F07D02146304602F072FD21463046FFF796FD6D1CEDB20548018AA942E8D871
:40630000761C3606360ED7D0F8BD00001C1600200817002070B50024094D03E0002C01D0002000E028464121095C012901D100F0E0FC641C2406240EF0D000F03FF870BDF2
:406340003C16002010B503F05DF80020FFF7A2FE0FF090F8002010BDF8B5002400F022F90125012800D1012404F006FC012801D102200443104F00203E462036042308224F
:4063800003E0002801D0002100E031460979002907D001290BD002290BD0114681402143CCB2401C0006000EEBD07C70F8BD2C43F7E71C43F5E700001C16002070B5144ED5
:4063C0000024F07BC00921D03546203503E0002C01D0002000E0284602F064F8012814D0641C2406240EF2D0F07B4006400EF073002403E0002C01D0002000E0284600F079
:4064000078FC641C2406240EF4D0002070BD00001C16002010B5FFF79FFF10BD10B5044606F0BFF8002802D1601C00F001F810BD1CB500240094062269460194FCF716FF9D
:40644000002800D1122420461CBD0000F8B5044600201E4617460D46002C12D0002D10D0022E0ED0032E0CD0002F0AD02179092907D0002905D013494A7F5A21095D8A42D1
:4064800007D82089002105F0C0FC28460EF05CFFFF20E18F012905D1002F03D0012E06D0002E04D0374301D10121E187F8BD0021E187069A2A70069A120A6A70AF70E970C7
:4064C000F8BD0000D015002010B5FCF7EEFB0446FEF756FC012809D0FEF752FC022805D0FCF7EAFB2046FCF7E4FBEEE72046FCF7E0FB10BD10B50B4681791943817103D055
:406500008078114603F0D2F910BD10B582798A43827102D1807803F0DDF910BD30B50C4C0220A28A0B4B9978002901D0022906D11D785B78EB18282B01D9032002E00329E9
:4065400000D101205105490DC0020143A18230BDC0112E40A80D002000B500F029F8002807D0012805D0032801D0042801D0002000BD012000BD014600B50020C90701D01F
:4065800000F010F800BD014600B50020C90701D000F008F800BD00000148006870470000A00D002001480088000A704720102E400448008B410501D5042070474007800FB3
:4065C0007047000000102E400148406870470000A00D00207CB50446002568460570200610D5FFF7E5FF01280CD101A802F09AFC6846007900F0CBFB012002F03FFB0220C6
:40660000FFF708FF600712D50C48017901290ED10571684602F086FC6846007800F0ECFB0220FFF7F7FE00212620FFF761FA044800680169204688477CBD0000AC0D002079
:40664000D80D002010B501460A4A007800241070FFF7A8FF0128084603D003F001F8204610BD00F0E7F80400F9D1034801210170F5E70000A80D0020DC16002070B50446E6
:40668000FFF790FF002801D00C2070BDA27B01211F48002A827801D00A4301E05208520082706279012A14D0C17849084900C170184D2868016820468847207901280CD07D
:4066C0006188208804F0A6F82080207904280FD015E0C2780A43C270EAE72868C168E01D8847E01D03F03CF80B48008D208006E02868C168E01D8847E01D03F031F80749B7
:4067000020798870204602F0B9FF002070BD00001C160020D80D0020D0150020A80D002008B50178FFF73EFF814201D10C2008BD002914D0072069460870FFF70DFF0128C5
:4067400007D10121684600F0E5F8012801D0092008BDFFF7E3FE02F0C5FF012011E0FFF7FBFE012806D1684602F0DCFB6846007800F042FB02F0ACFFFFF714FF0028FBD1CA
:406780000220FFF747FE002008BD000010B501460A4A007800245070FFF704FF0128084603D003F063F8204610BD00F065F80400F9D1034801214170F5E70000A80D00202D
:4067C000DC16002038B568460EF054FD002801D01F2038BD01210098C90201804180002505714571857107214173857302F046FF009C202200212046FCF750FD25702A46AD
:406800000021601CFCF74AFD204602F029FF204603F02CF800980EF097FD062200210448FCF73CFD02480C388560002038BD0000AC0D0020F8B5044600250D4800950078BA
:40684000012806D068460EF015FD002803D007250CE00C250AE0074E009830602278611C401CFCF712FD3168207808702846F8BDDC160020A00D0020F8B5044600250D481F
:4068800000954078012806D068460EF0F3FC002803D007250CE00C250AE0074E009870602278611C401CFCF7F0FC7168207808702846F8BDDC160020A00D00200346084830
:4068C00000B5834209D8184601F00CF8002804D00089984201D1012000BD002000BD0000FF0E0000074A9179491C8906890E917138220A4092014907090E11430843024981
:40690000084070471C160020FF0E0000C006C00E70470000F8B507460E4600240D4803E0002C01D0002500E005462979002905D0641C2406240EF3D00020F8BD002120461C
:4069400001F012FD2E712046FFF7CCFF28813C700120F8BD3C16002010B504F005FD0222002100F003F802F0EDFC10BD10B5094B40074907000F090F185A595A401850433A
:40698000C0086421FCF742FB002800D1012080B210BD0000B8790100F7B53D20405C88B015460C46002802D02878042802D200200BB0F0BD6946087200262046FFF7E6F9D9
:4069C000012800D00126204603A938300191009023460327A17E34333246206A04F0EEFC02A8089900900B46019120463A4603A9243004F043FC02466846007A287020469D
:406A000001F09EFC1046D3E7FFB587B00C4605461078694608723D20005D1746002826D000262046FFF7B2F9012800D00126204603A93830019100902346A17E34333246FD
:406A4000206A04F0BBFC02A80090291D019120462B1D03A924300A9A04F010FC02006846007A388002D1204601F06AFC10460BB0F0BDF0B505463C20405C89B016460C467E
:406A800000280CD0307869460873002806D000272046FFF77BF9012803D003E01F2009B0F0BD012703200890204604A93830019100902346E17E34333A46E06904F07EFCA1
:406AC0006846007B03A928180290009120462B46019504A92430089A04F004FC02466846007B3070204601F035FC1046D7E7FFB505463C20405C89B016460C46002810D0C7
:406B0000084601F0D9FC01280BD0308869468883002809D000272046FFF738F9012805D005E000200DB0F0BD0220FBE70127204603A93830019100902346E17E34333A4632
:406B4000E06904F03BFC291D2B1D07A8129A6D4607C5204603A924300C9A04F0C3FB02466846808B3080204601F0F4FB1046D9E710B518490446484028D0002101231A46D9
:406B80008A40904221D0491C2029F8D300212046C840C243520618D0400616D0491C1929F5D3A0B2210C020AC3B2884201D193420BD01F21204600F002FA182805D8A00EB7
:406BC000062100F0FCF9022801D2002010BD012010BD0000D6BE898E70B50C460646FFF7D5F8012824D06079227900020243E079A37900020343607A921F0102207A084378
:406C0000E17A0D02A17A154C294335464035A24207D20A38221F904203D2FF20F43083420DD91E202873304600F060FD1E2070BD00222421304603F01DFD242070BDB078B3
:406C400002F05AFA012801D0002070BD28202873304600F04BFD282070BD00007B0C0000002801D0002000E003484030C07F012800D00020704700003C160020014600205E
:406C800049070ED50021084B03E0002901D0002200E01A461279022A04D0491C0906090EF3D07047012070473C1600200146002049070ED50021084B03E0002901D0002207
:406CC00000E01A461279022A04D0491C0906090EF3D07047012070473C16002010B5044680346068002803D00EF042FB0020606010BD38B50546002000902846FFF746F882
:406D000001281FD1284601F09CFB00281AD028792C46C01E40340300FDF7EAF807050511110511141100284601F0CCFB012806D068460EF0AFFA002805D0012008E060782E
:406D40000028FAD038BD2846009903F025FB0220607038BD40304170704740308170704770B50546403528780C46052904D0002C05D1801E022802D8022003F0EBFC2C7026
:406D800070BD0171704792001018C166704770B53C2501F069FE040004D020460021433002F040F9FF222946204600F045FD002C02D0A07801F0D4FD70BD000010B50028F0
:406DC00001D0002000E00348002802D0008905F090F810BD3C16002010B5002801D0002000E00448002804D00179072901D100F09FF810BD3C16002010B501F035FE0028DF
:406E000002D0807801F0ACFD10BD70B5044605464034A078002805D12078012802D1284601F00CFD6078012802D12846FFF761FF002070BD70B50546008A00281ED0104993
:406E4000F122097B1140C90618D5294640314A8A098A521C4A4392B2D10800D10121540801E0621A94B2A042FBD9FEF759FD012804D1298AA878224602F004FA70BD0000C6
:406E8000D015002010B50023054C0B60248A944204D992001018C26E0A60C36610BD000008170020FEB506460020009001908020855968460EF0EEF9002801D00720FEBD13
:406EC00020213046009FFFF720FB34464034A08AE080608AA080208A2081304603F0D6FCA88C218A884207D1288A618A884203D1688AA18A884203D0F07920210843F07157
:406F0000688AA082288A6082A88C2082E98CE182FEF798FEE081208AFEF7A4FE60733946304603F061FA0120A0700198FEBD000038B5044600200090A079002814D14020C6
:406F4000015D052901D00E290ED168460EF0A2F9002809D12046009903F06AFB03481021428B2046FFF7C6FA38BD0000D015002010B50446807803F0B9FC204601F07CFC21
:406F8000002010BD10B50B4604460146184602F0E3FD002802D020460EF0E0F910BD13B5044601AA11460620FDF70CFE6846818861811CBD002800D102207047704770B5B1
:406FC00000231A46491E0CE00446D440E507ED0F541C0646E640F407E40FA54200D05B1C521C8A42F0D3D8B270BD0000F8B504462346401D543300909A1EA078911E01F07F
:40700000B5FF25464035A88A298A8000FBF7FEFF401E81B2688A884203D96982A07802F0DFFC698A8C20015120460021433001F0F9FF27480088E88104F096F9E989891CA1
:407040008AB26179FFF792FC02F07CF904F08CF92A8A6179FFF78AFC074602F067F9688A002806D01B49088A032212021043088202E0002002F0A8FC1648803801886E8AC2
:40708000002E0CD0304648431349FCF7A9F80004000C01D0401C80B21049488002E00F4800214180288A704381B2A07802F0ECFBFF2228374932B9B21346204603F0D0FBBE
:4070C000E98AA07802F018FBA07801F0B5FEF8BD80102E40E0112E4071020000B20D002030B50021124C0A46A05C002308E0C50701D0491CC9B201290AD840085B1CDBB250
:407100000028F4D1012903D8521CD2B2052AEBD302290BD207488118C87B0122082B03D29A400243D0B200E01043C87330BD0000EC1600201C1600207FB5044680346168B5
:4071400005460E46183108226846FCF79EF831462031082202A8FCF798F8102168460EF033F86068102108300EF02EF860682B46083024331022694604F0A0F87FBD10B514
:4071800004460821FFF7C1F910212046FFF7BDF92079052822D0062820D008281DD12189002004F0F1FD072020712046FEF7EEFD012819D00E212046FFF7D2FD00215820C6
:4071C0000155204601F0DEFB2046FFF787FD2046FFF730FE2046FFF718FE10BD20890122002104F0B5FDDEE70521E4E7FFB581B01F4604460821FFF788F910212046FFF756
:4072000084F92079082803D0092804D0042503E00425012601E009250026204601F008F900212046FFF79CFD25712046FFF756FD0398002E02D0012808D00BE001280AD161
