:400000000040002011000000390400003904000080B500AF00F01AFA80B500AF284B12221A6001F0A7FC274B180001F0D5FD012001F0B0FC302001F0CDFA234B234A1A60EC
:40004000234B8022D2051A60224B224A126802210A431A60204B214A1A60214B00221A60204B204A126808218A431A60FA23DB00180001F0FDFA1C4B180001F01BFC1B4BE6
:40008000E82252011A601A4B1A4A1A601A4B802212061A60194B8022D2021A60184B40221A60184B1900082001F02CFB082001F0A3FB074B8022D2051A60C046BD4680BDFC
:4000C00030001040001BB70004010B40060000800C020B4078002E407C002E406969000064F02E406CF02E40DC050000000301400000014040FF008008010B4000010B408C
:4001000008010140E91A000080B582B000AF72B6294B00221A60FB1D00221A7022E0FB1D1A7813005B009B185B00244A9B183B603B681A78597809020A43997809040A43B3
:40014000DB781B06134318003B681A795B791B0213439BB2190000F04BF9FB1D1A78FB1D01321A70FB1D1B78012BD8D9144BEE2212061A60134BEE221A60134B9922120467
:400180001A60124A114B1B78DBB206210B43DBB213700F4BD82212041A600E4B03221A600D4B24221A60FFF737FF00F031F9C046BD4602B080BDC0466CF02E400C3F01001A
:4001C000000002400005024000500F4000700F4008000440000504400805044010B5064C2378002B07D1054B002B02D0044800E000BF0123237010BD501000200000000041
:40020000083F0100084B10B5002B03D00749084800E000BF07480368002B00D110BD064B002BFBD09847F9E70000000054100020083F0100A80B00200000000080B500AF15
:4002400000F002FE074B1A000121012000F0A0FE054B1A000221022000F0BEFEC046BD4680BDC046002200200422002080B582B000AF0200FB1D1A703B1D0A1C1A80FB1D38
:400280001B783A1D1288D1B2024AD154C046BD4602B080BD0022002080B582B000AF0200FB1D1A70FB1D1B78034AD35C9BB21800BD4602B080BDC0460422002080B584B09F
:4002C00000AF786039607B68282B08D002D8012B05D018E0412B0AD04C2B0DD013E0002000F0F8F901210020FFF7C0FF0BE000210020FFF7BBFF06E03B68FB60FB6818003D
:4003000000F03EF8C046C046BD4604B080BDC04680B500AFFFF792FF034B180000F042F9C046BD4680BDC046BD02000080B500AF02F08CF8032002F081F8C046BD4680BD5C
:4003400080B584B000AF0020FFF7A6FF03001A00BB1C1A803B1D12221A813B1DBA1C1A603B1D01229A80054A381D002300210FF0DFF9C046BD4604B080BDC0461C2200209B
:4003800080B582B000AF78607B689B89122B1ED17B68181D104A402300210FF0C9F9031E15D17B685B681B789BB219000020FFF75DFF094B1A785B781B021A4300231204E1
:4003C000120C1B0C1B04134318000DF089FFC046BD4602B080BDC0461C22002080B500AF62B6FFF795FFFFF7A1FFFFF7A9FFFAE780B582B000AF786039603A687B68002182
:40040000180001F0E3FFC046BD4602B080BDC04680B500AF054B03221A60054B03221A60044B00221A60C046BD4680BD3000304030003140000E3F4080B500AF01F082FFBC
:4004400003001B680C2B00D1FEE7FEE780B586B000AF224B7B61224B3B61204B7B6135E03B691B68FB603B695B68BB603B699B683B6000237B600CE0FB681A68BB681A60AA
:40048000BB680433BB60FB680433FB607B6804337B607A683B689A42EED13B69DB683B6000237B6008E0BB6800221A60BB680433BB607B6804337B607A683B689A42F2D108
:4004C0003B6910333B617B69013B7B617B69002BC6D101F03DFFFFF781FFFEE7010000001441010080B582B000AF154B144A126801218A431A6000237B600FE07B68032B43
:4005000004D8104B7A689200D35800E00E4B0F4A796889008B507B6801337B607B682F2BECD9FFF7F1FD0A4B00221A60044B044A126801210A431A60C046BD4602B080BD4D
:4005400000001040000000003904000000000020C000002080B500AF094B00221A70094B00221A70084B00221A7000F013F8074B00221A70064B00221A70C046BD4680BDCF
:400580001F220020182200201E220020082200201022002080B500AF00F036FCC046BD4680BDC046B0B594B004AF78603E23FB1800221A802823FA183D4B10001900142389
:4005C0001A0001F0FAFE3B4B1B78002B04D1FFF7C1FF384B01221A707B68002B5CD0364B7A681A603E23FB181B88002B29D11023FB181C22BA185A601023FB182022BA183C
:400600001A601023FB1800221A812023FB181B221A802023FB181B225A802023FB1804221A711C23FB1800221A703E23FC180E23FA181023FB181100180001F0E3FF0300A1
:4006400023803E23FB181B88002B29D13E23FC182823FD18AE231A0118491948194B0293194B0193052300932B0001F021FF030023803E23FB181B88002B11D1134B0122E5
:400680001A703E23FC18124B0B22132118000FF037F80300238003E03E23FB1801221A803E23FB181B881800BD4610B0B0BDC046183F01006C1000200C220020C8000020EE
:4006C0000D0A0000790200008049010016220020443F010090B585B000AF0200FB1D1A70FB1D1B78022B04D90E23FB1801221A804AE0294B1B78042B41D1284B1B78DBB23A
:400700001A00042313403AD1FB1D1B78002B0BD1234B00221A82224B5B6820221A80204B5B6830225A8010E0FB1D1B78012B0CD11B4B96221A821A4B5B68C822D2001A80FA
:40074000174B5B688022D2015A80164BFA1D12781A700E23FC18124B18000CF0DFFB030023800E23FB181B88002B0DD10B4B1B78DBB204221343DAB2084B1A7004E00E23E3
:40078000FB180422FF321A800E23FB181B881800BD4605B090BDC046162200201F220020DC0B00201E22002080B584B000AF78600A00FB1C1A700023BB60BB68002B20D0F4
:4007C0007B689A79BB681A700F23FB1800221A7012E00F23FB181B780133BA68D3180F22BA18127879688A5C1A700F23FB181A780F23FB1801321A700F23FB181B78052B9B
:40080000E7D9C046BD4604B080BDC04680B582B000AF78607B681B789AB27B6801331B789BB21B029BB213439BB21800BD4602B080BDC04690B585B000AF78600F23FB18EE
:4008400000221A707B689B890F22934232D17B68181D7A680F23FC18402300210EF068FF030023700F23FB181B78002B1AD17B685B681800FFF7CAFF03001A0002231340FD
:400880009BB2002B07D00F4B1B687968822252001000984706E00B4B1B6879680622FF3210009847084B1B78DBB201229343DAB2054B1A700F23FB181B781800BD4605B0E4
:4008C00090BDC0460C2200201F22002090B585B000AF78600F23FC187B681800FFF7AAFF03002370154B1B78DBB21A00012313401FD10F23FB181B78002B16D00823FB1857
:4009000012229A707B689A890823FB181A800823FB180F22BA181278DA700823FA187B68110018680DF064FC03E07B6818680DF0D7FCC046BD4605B090BDC0461F220020F0
:4009400080B582B000AF7860C046BD4602B080BD80B500AF044B00225A70034B00221A70C046BD4680BDC0461C22002080B582B000AF7860C046BD4602B080BD80B500AF04
:40098000C046BD4680BDC04680B584B000AF78600E23FB1800221A707B689B79002B1CD10F23FB1800221A7012E00F23FB181B787A68D35C002B04D00E23FB1801221A7040
:4009C0000BE00F23FB181A780F23FB1801321A700F23FB181B78052BE7D90E23FB181B781800BD4604B080BD80B582B000AF0200BB1D1A80C046BD4602B080BD80B582B09F
:400A000000AF7860C046BD4602B080BD80B588B000AF02003960FB1D1A70C54B1B78DBB201221343DAB2C24B1A70FB1D1B78412B00D152E123DC212B00D1C6E00DDC022B1F
:400A400000D198E002DC012B3BD0BDE1052B00D196E0062B00D198E0B6E1272B00D1EEE006DC242B00D1E0E0262B00D1F3E0ABE1282B00D1EBE02A2B00D1DBE0A4E14F2BEF
:400A800000D194E10BDC432B00D146E100DA41E14C2B00D179E14E2B00D18AE194E1572B00D188E106DC502B00D186E1542B00D170E189E1712B00D109E1FA2B00D16EE1E3
:400AC00082E11423FB1807221A701423FB1800225A701423FB18180003F00AFD1423FB1807221A701423FB1801225A701423FB18180003F0FDFC0B23002B01D001F09AFCD1
:400B00008C4B1B681800FFF73FFF031E11D0894B1B68180001F09EFC864B1B6800211800FFF742FE834B1B6801211800FFF73CFE0DE0814B180001F08DFC7F4B0021180047
:400B4000FFF732FE7C4B01211800FFF72DFE00200CF076F81023FB183F221A701023FB1800225A701023FB1818000CF087F8734B04221A7028E13B681800FFF7F7FE23E146
:400B80003B681A786E4B1A701EE13B68BB61BB691B78002B00D012E1BB695B78002B0BD1684B0022DA80674B00229A80654B664A1A60BB69634A5A605D4B1B78DBB20122EF
:400BC0009343DAB25A4B1A70F9E0594B1B78DBB21A002023134000D0F3E05C4B1B78102B02D15A4B0522DA70594B1B78574A110018000CF051F903001A000E23FB181A80D4
:400C00000E23FB181B88002B06D0524B1B680E22BA18110036209847454B1B78DBB201221343DAB2424B1A70CBE03B685A784A4B1A70C9E03B681800FFF7E0FEC4E03B68DA
:400C40001800FFF7DBFE3D4B02221A70BCE03B4B04221A70B8E0394B1B78022B00D1B2E0334B1B78DBB21A000123134000D1AAE02F4B1B78DBB21A00042313400BD02F4B39
:400C800003221A702A4B1B78DBB204229343DAB2274B1A7097E0264B1B78DBB21A00082313400BD0254B04221A70214B1B78DBB208229343DAB21E4B1A7084E01F4B1B7865
:400CC000032B00D07FE01D4B04221A707BE03B681B881800FFF788FE76E01D4A3B681000190002231A0001F068FB154B00221A70174B1B783D33FF335A00184BD3180133AF
:400D0000174A1000190002231A0001F056FBFFF735FE59E0FFF71CFE56E03B685B88162B20D81E23FB183A6852881A801EE0C0461F220020F80B0020F00B002016220020DC
:400D40001822002094100020A80B0020700C00201C2200200C2200201022002080490100142200201E23FB1817221A801E23FB1819883B681A8800231204120C1B0C1B04CA
:400D8000134318000DF03EFA1EE03B681800FFF79DFD19E03B681800FFF7D2FD14E0174B1B7801221343DAB2144B1A700CE0C0460AE0C04608E0C04606E0C04604E0C04651
:400DC00002E0C04600E0C0460D4B1B78DBB21A00112313400ED00A4B1B78DBB201229343DAB2074B1A70074B1B68FA1D1278396810009847C046BD4608B080BD082200200A
:400E00001F2200200C22002080B500AFC046BD4680BDC04680B500AF00F036F8C046BD4680BDC04680B500AF064B064A1268802109060A431A6000F019F800F01FF8C04601
:400E4000BD4680BD0000254080B500AF064B1B78002B04D1FFF7DEFF034B01221A70FFF7E1FFC046BD4680BD9C10002080B500AF0A2000F0C1FCC046BD4680BD80B500AF6A
:400E8000C046BD4680BDC04680B500AF274B802252021A60264B274A1A60274B274A1A60274B00221A60274B274A1A60274B234A1A60274B00221A600A2000F0B3FC0321A8
:400EC0000A2000F045FC234B19000A2000F01AFC214B00221A60214B00221A60204B5222FF321A601F4B00221A601F4B00221A601E4B00221A601E4B00221A701D4B002296
:400F00001A701D4B00221A801C4B00221A701C4B00221A801B4B00221A701B4B08221A701A4B09221A70C046BD4680BD0000254060002540000800400003254007010080DF
:400F400004032540100325401000FC00000225400402254021100000C80E2540880E2540480F2540080F2540C80F2540880F25403822002023220020262200202E22002021
:400F80003422002022220020392200203A22002080B584B000AFF860B9607A607B68002B10D00A2000F03EFC084B7A681A60FB689AB2074B1A80BB689AB2064B1A800A20ED
:400FC00000F01AFCC046BD4604B080BD28220020362200202022002080B584B000AFF860B9607A607B68002B10D00A2000F01AFC084B7A681A60FB689AB2074B1A80BB68BF
:401000009AB2064B1A800A2000F0F6FBC046BD4604B080BD302200202C2200202422002080B588B000AF0123FB60C74B1B68002B02D0C54B1B689847C44B1B78002B02D1EF
:40104000C34B1B8801E0C34B1B88FB61C24B1B68BB60C24B1B687B60BA680223FF33134049D0BF4BBE4A1268520052081A60BD4B1B78DBB220229343DAB2BA4B1A70B94BC5
:401080001B78DBB210221343DAB2B64B1A70B64B1B68102213400FD1B44B1B789AB2AC4B1B889A4210D0AF4B1B78DBB208221343DAB2AC4B1A7007E0AA4B1B78DBB202228D
:4010C0001343DAB2A74B1A70A94BA94A1268A9490A401A60A84B00221A60A34B00221A60A64B00221A709E4B9D4A1268802109060A431A6019E27B681022134002D0A04BE4
:4011000000221A607B680A22134000D1CAE09D4B1B680422134061D07B680222134000D0C0E0994B1B683B60944B1B78002B1DD0012B4BD1954B1B88002B13D0944B0122F0
:401140001A60944B1A68FB69D3183A68D2B21A70FB690133FB618D4B1B88013B9AB28B4B1A8037E08A4B02221A6033E08A4B1B881A003B689A4225D9854B01221A603B6872
:40118000FB61864B1B881A003B689A4206D9834B1A883B689BB2D31A9AB200E000227B4B1A80764B01221A70684B1B78002B04D1FB69DAB26D4B1A700CE0FB69DAB2784B67
:4011C0001A7007E0724B02221A6003E0002000F03FFBC046734B04221A6063E0644B1A6880239B0113405DD07B680222134023D06D4B1B681F2213403B616C4B1B6840220B
:40120000134010D0684B1B681F2213403B61664B1A6880231B0213405A425341DBB21A003B699B1A3B61524B514A126851490A401A6001237B6122E0544B1B88083B9AB220
:40124000524B1A80514B1B88082B05D84F4B1B883B6100237B6112E008233B6101237B610DE04C4B1A68FB69D218474B1B68DBB21370FB690133FB613B69013B3B613B69CA
:40128000002BEED17B69002B09D1394B384A1268802109020A431A60374B00221A60414B0C221A607B680222134000D116E1BB681022134000D17FE02A4B1B78DBB2202245
:4012C0001340DBB2002B00D176E02B4B00221A60254B00221A600223BB611C4B1B78002B03D1224B1B781A0002E02D4B1B781A00FB699A4203D0BB6908221343BB61BB694C
:40130000BA681340BB61114B1B781A00BB69D340BB61144B1B78DBB21A00BB691343BB61BB6920229343BB61BB69DAB20D4B1A70124B00221A70054B1B78002B38D1FB6923
:401340009AB2034B1A8037E0A0100020A41000202622002034220020400F2540000E25400000254023220020880F25402E22002060002540FF5FFFFFC80F2540382200206C
:40138000880E2540CC0F254040032540A61000206C002540A8100020AC100020AE10002022220020C00F2540080325404C0F2540FB699AB2654B1A80BB684022134000D1A6
:4013C00089E0634B1B685B083B60624B04221A60614B1B781A003B689A420FD15F4B1A685F4B1A605F4B1A885F4B1A805F4B1A885F4B1A805F4B00221A7017E05E4B1B7857
:401400001A003B689A420FD15C4B1A68544B1A605B4B1A88544B1A805A4B1A88544B1A80544B01221A7001E00023FB60FB68002B0FD1554B01221A60544B554A1A60554B42
:40144000544A126810218A431A60534B02221A6041E0524B1B78DBB220221343DAB24F4B1A70444B1B78002B02D14D4B1B7801E04C4B1B78FB614C4B1B681022134018D041
:40148000394B1A88FB699BB2D31A9AB2474B1A80474B474A1268802149020A431A60444B434A126843490A401A60434B10221A6002E0424B04221A60334B01221A60334BD8
:4014C000334A1A60334B334A126810210A431A60314B01221A602D4BBA681A60384B1B680422134021D0314B1B88002B11D0354A1B4B1968FB69CB181B78DBB21360FB691C
:401500000133FB61294B1B88013B9AB2274B1A8002E02C4BFF221A602B4B1B681F221340082BE0D1294B10221A60124B1B78002B04D1FB699AB2264B1A8003E0FB699AB2AD
:40154000024B1A80C046BD4608B080BD3422002040032540C00F25403922002028220020A810002036220020AC10002020220020AE100020A41000203A2200203022002021
:401580002C22002024220020800E2540400F2540FF0F0000480F25406C002540232200202E2200202222002064002540A610002004022540FFFFFEFF880F2540C80F25409F
:4015C000000E25404002254008022540800F25402622002090B58BB000AF78602723FC1800F003FB03002370194B1A680C23FB181A60184B1A680C23FB185A607B68033B79
:40160000154AD35C1A000C23FB189A60134B1A680C23FB18DA601C23FB18114A1A600C23FA181C23FB185A600E4B1C22BA181A600D4B0E4A1A600B4B1B682723FB181B7820
:40164000180000F0D6FAC046BD460BB090BDC04608010B4000010B40C040010030001040B6EA000008001040040010401700008080B584B000AF78600023FB60154B154A4A
:40168000126801210A431A60134B144A1A60144B134A1268802109020A431A607B68002B12D01023FB600CE0012000F003F900F019F8031E02D00023FB6005E07B68013BFB
:4016C0007B607B68002BEFD1FB681800BD4604B080BDC04660F02E4078002E400220000010002E4080B582B000AF054B1B68012213407B607B681800BD4602B080BDC0465B
:401700000C002E4080B584B000AF02003960FB1D1A7080239B05FB60FB1D1B781F2B02D9002000F095F8FB1D1B7810339B00FA68D3181B68BB60FB1D1B7810339B00FA6870
:40174000D3183A681A60BB681800BD4604B080BD90B587B000AF0200FB1D1A70BB1D0A1C1A70BB1D1B78032B02D9002000F070F8FB1D1B781F2B02D9002000F069F8FB1D97
:401780001B7803221340DB0006337B611323FC1800F02BFA03002370FB1D1B789B08DBB29B00144A944663441B68FB6003227B699A401300DA43FB681340FB60BB1D1A7878
:4017C0007B699A401300FA681343FB60FB1D1B789B08DBB29B00074A94466344FA681A601323FB181B78180000F003FAC046BD4607B090BD00E400E080B582B000AF020017
:40180000FB1D1A70064BFA1D12781F210A40012191400A001A60C046BD4602B080BDC04600E100E080B582B000AF0200FB1D1A70064BFA1D12781F210A40012191400A0021
:401840001A60C046BD4602B080BDC04680E100E080B582B000AF0200FB1D1A7001BEC046BD4602B080BDC04680B582B000AF786009E00D4B1B68180000F0AEF97B680B4A9F
:40188000944663447B607A6880231B029A42F0D8074B1B687A685343180000F09DF9C046BD4602B080BDC046840C00200080FFFF7C0C002080B582B000AF0200BB1D1A803D
:4018C000BB1D1B88044A12785343180000F084F9C046BD4602B080BD800C002080B500AF0F4B0F4A126801218A431A600C4B0C4A126802218A431A600A4B0A4A1268302157
:401900008A4310210A431A60064B064A126807218A4301210A431A60C046BD4680BDC04600F02E4000FF2E4080B500AF0F4B0F4A126802218A431A600D4B0D4A1268072106
:401940008A4302210A431A60094B094A126830218A4320210A431A60044B044A126801210A431A60C046BD4680BDC04600F02E4000FF2E4080B500AFFFF7B0FF044B044A2C
:401980001268802109060A431A60C046BD4680BD00F02E4080B584B000AF78600C4B1B6801221340FB607B68002B02D0012B03D005E0FFF793FF06E0FFF7B6FF03E0002017
:4019C000FFF746FFC046FB681800BD4604B080BD00F02E4090B583B000AFFC1D00F005F903002370074B074A1268C02109020A431A60FB1D1B78180000F0FBF8C046BD4696
:401A000003B090BD00010B4080B500AF054B1A68C0231B02134001D0012300E000231800BD4680BD00010B4090B583B000AFFC1D00F0DBF8030023700D4B0D4A12680D499D
:401A40000A408021C9010A431A60094B084A126808490A40802109020A431A60FB1D1B78180000F0C6F8C046BD4603B090BDC04600010B40FF3FFFFF90B585B000AF7860B3
:401A80000B23FC1800F0B1F803002370FFF7BCFF031E04D00123FB60FFF7C6FF01E00023FB607B680D4A13407B600D4B0C4A12680C4911407A680A431A60094B1B68FB685D
:401AC000012B01D1FFF786FF0B23FB181B78180000F08FF8C046BD4605B090BD0404040010020B40FBFBFBFF80B500AF344B1B68042213401FD0334B1B680422134017D0F7
:401B0000314B1B6804221340DA432E4B1B681A402C4B1A602C4B1B68042293431A002A4B1A602A4B1B68002B02D0284B1B6898470420FFF7A1FF224B1A688023DB00134086
:401B400022D0204B1A688023DB00134017D01E4B1A688023DB001340DA431A4B1B681A40184B1A60184B1B68194A1A40164B1A60164B5B68002B02D0144B5B689847802393
:401B8000DB001800FFF778FF0D4B1A688023DB02134011D00B4B1A688023DB02134006D00A4B9B68002B02D0084B9B6898478023DB021800FFF760FFC046BD4680BDC046F3
:401BC00010020B40900C0020B8100020BC100020FFFBFFFF000000000230800803D00138FDD1C046C046C0467047EFF3108072B6704780F31088704780B582B000AF7860A2
:401C00000A00BB1C1A80BB1C1A887B681A60C046BD4602B080BDC04680B582B000AF78600A00BB1C1A80BB1C1A887B681A60C046BD4602B080BDC04680B584B000AF494B6C
:401C40001B78DBB21B02484A1278D2B21343FB60464B1B78DBB21B02454A1278D2B21343BB60BB68434A934207D1FB68072B04D1414BBB600423FB6009E0BA68D4231B01EC
:401C80009A4204D1FB68042B01D13B4BBB603B4BBA681A603A4BFA681A603A4B1B78DBB21B02394A1278D2B21343FB60FA6880239B019A4202D0FB68002B01D1334BFB605F
:401CC000334BFA681A60334B1B78DBB21B02324A1278D2B21343FB60FB68304A934206D0FB682F4A934202D0FB68052B01D12D4BFB602D4BFA681A602C4B1B681B097B6004
:401D00002B4B1B68AA2B29D17B68012B26D9214B1B78DBB20E2B21D1264B1B78DBB29BB21B0299B2244B1B78DBB29AB2BB1C0A431A80224BBA1C12881A60214B1B78DBB254
:401D40009BB21B0299B21F4B1B78DBB29AB23B000A431A801C4B3A0012881A60C046BD4604B080BDD9F0FF0FD8F0FF0FDFF0FF0FDEF0FF0F580B0000580D00006C002E40FF
:401D800074002E40DBF0FF0FDAF0FF0F0220000078002E40DDF0FF0FDCF0FF0F0F0F000005050000050F000080002E40EC0F00F0E00F00F06DF2FF0F6CF2FF0F84002E4014
:401DC0006FF2FF0F6EF2FF0F94002E4080B582B000AF0200BB1D1A80BB1D1B881800FFF769FDC046BD4602B080BDC04680B582B000AF78607B681800FFF736FDC046BD4672
:401E000002B080BD80B500AF00F0ECF8C046BD4680BDC04680B500AF00F0F0F8C046BD4680BDC04680B500AF00F0E8F8044B180000F0A2F8032000F0ADF8C046BD4680BD04
:401E40004920000080B500AF034B180000F080F8C046BD4680BDC0464920000080B500AF0223FF331800BD4680BDC04680B582B000AF78602B231800BD4602B080BDC046AD
:401E800080B582B000AF78602B231800BD4602B080BDC04680B582B000AF78602B231800BD4602B080BDC04680B582B000AF78602B231800BD4602B080BDC04680B582B0D7
:401EC00000AF78602B231800BD4602B080BDC04680B582B000AF78602B231800BD4602B080BDC04680B582B000AF78602B231800BD4602B080BDC04680B582B000AF786077
:401F00002B231800BD4602B080BDC04680B500AF2B231800BD4680BD80B582B000AF0200FB1D1A702B231800BD4602B080BDC04680B582B000AF786039602B231800BD46B1
:401F400002B080BD80B500AFC046BD4680BDC04680B582B000AF786000F050F87B68180000F00AF8032000F015F800F03BF8C046BD4602B080BDC04680B582B000AF786000
:401F8000034B7A681A67C046BD4602B080BDC0460000002090B585B000AF0200FB1D1A700623FB600B23FC18FFF71FFE030023700B4B0B4A1268C0218A431100FA1D107893
:401FC000FA68904002000A431A600B23FB181B781800FFF70EFEC046BD4605B090BDC0460CE400E080B500AF034B802252011A60C046BD4680BDC04600E100E080B500AF85
:40200000034B802252011A60C046BD4680BDC04680E100E090B583B000AFFC1DFFF7E5FD03002370074B074A126804218A431A6030BFFB1D1B781800FFF7DBFDC046BD4696
:4020400003B090BD10ED00E080B500AF11F048FFC046BD4680BDC046002243088B4274D303098B425FD3030A8B4244D3030B8B4228D3030C8B420DD3FF22090212BA030CF5
:402080008B4202D31212090265D0030B8B4219D300E0090AC30B8B4201D3CB03C01A5241830B8B4201D38B03C01A5241430B8B4201D34B03C01A5241030B8B4201D30B0325
:4020C000C01A5241C30A8B4201D3CB02C01A5241830A8B4201D38B02C01A5241430A8B4201D34B02C01A5241030A8B4201D30B02C01A5241CDD2C3098B4201D3CB01C01A21
:40210000524183098B4201D38B01C01A524143098B4201D34B01C01A524103098B4201D30B01C01A5241C3088B4201D3CB00C01A524183088B4201D38B00C01A5241430807
:402140008B4201D34B00C01A5241411A00D20146524110467047FFE701B5002000F0F0F802BDC0460029F7D076E7704703460B437FD4002243088B4274D303098B425FD31F
:40218000030A8B4244D3030B8B4228D3030C8B420DD3FF22090212BA030C8B4202D31212090265D0030B8B4219D300E0090AC30B8B4201D3CB03C01A5241830B8B4201D3FC
:4021C0008B03C01A5241430B8B4201D34B03C01A5241030B8B4201D30B03C01A5241C30A8B4201D3CB02C01A5241830A8B4201D38B02C01A5241430A8B4201D34B02C01A2B
:402200005241030A8B4201D30B02C01A5241CDD2C3098B4201D3CB01C01A524183098B4201D38B01C01A524143098B4201D34B01C01A524103098B4201D30B01C01A5241AC
:40224000C3088B4201D3CB00C01A524183088B4201D38B00C01A524143088B4201D34B00C01A5241411A00D201465241104670475DE0CA0F00D04942031000D34042534072
:4022800000229C4603098B422DD3030A8B4212D3FC22890112BA030A8B420CD3890192118B4208D3890192118B4204D389013AD0921100E08909C3098B4201D3CB01C01AF3
:4022C000524183098B4201D38B01C01A524143098B4201D34B01C01A524103098B4201D30B01C01A5241C3088B4201D3CB00C01A524183088B4201D38B00C01A5241D9D2E6
:4023000043088B4201D34B00C01A5241411A00D20146634652415B10104601D34042002B00D54942704763465B1000D3404201B5002000F005F802BD0029F8D016E7704760
:402340007047C046014B18687047C0464C1000200E4B70B500251E000D4CE41AA410A54204D0AB00F35898470135F8E711F0C0FE084B00251E00084CE41AA410A54204D014
:40238000AB00F35898470135F8E770BDFC400100FC400100FC4001000441010030B50024A24208D0035D651C0C5DA34201D0181B02E02C00F4E7002030BD002310B59A4257
:4023C00003D0CC5CC4540133F9E710BD03008218934202D019700133FAE77047134A1088810703D08107890F401A001D11791030484381B25088820703D08207920F801AE9
:40240000001D800040180A494030098980B2CA0701D0503080B2890706D504495422091F09785143081880B2704700009A0C0020E410002010B501F05DFF10BD10B501F0E9
:402440005FFF10BD10B501F071FF10BD10B500F05BFA10BD10B50749044609780220002907D1204601F0BAFF002802D120460AF0F9FC10BD380E002070B504460120002C15
:4024800012D02368002B0FD0616800290CD0074D06222889208118462968FFF78EFF6968606809780170002070BD0000E4100020FFB585B0002768460E9D07734F481C46CF
:4024C0000078002802D0082009B0F0BD10990F9801900095029105A807C800F007F90028F2D16946264603AB84460873002C19D0002115E08A00B75A082F09D990198078EE
:40250000002805D0083FB7521878401C187005E0002914D00027B75290198770491CC9B2A942E7D360460028CED10F98002809D0109901F08FFA002804D00120C4E7012072
:402540008446EFE701F0F2FE2D480021416081600599016021888180022D07D3A1798171A17AC171A1890181218A418100211EE0481C19E082008B00A75AE65ABE46BE42D0
:4025800011D26F463E80B4461E190296B678BE7001967646E6521719029EBB78B3706646A652019EBE70401CA842E3D3491CA942DED3134822460C3000906846037B079926
:4025C000069800F01BF90028B8D168460B4C007B60700B480C3001F0D9FE0028AED1084907480C3107F09CFC0028A7D107F0B6FC0028A3D10121217066E70000940C002029
:40260000D8100020F8B5054636480F460078002802D002242046F8BD002F60D000243249002D16D02A89D0070DD02868002808D003881B3BE12B04D24088FB2801D81B2842
:4026400001D2012409E0900707D56868002804D1F7E70020088108604860002CDAD122482E8906811F481B21801D01804180042101711C490020891C0870F00705D019483B
:402680000622801D2968FFF798FE1749B00703D56A68144812788270124D0E46AD1D281F0D60486001F0C0FE284601F0AFFE30890EF076F930890DF067FB28880DF06AFBBB
:4026C00030890EF0D7FA03461033FFF787FE1F21C018890140183880A91F88809AE7012498E70000940C0020E4100020FFB58446384F1C460020BB883F7805460246064670
:40270000002F11D100290ED0029999420BD36146002908D0002C06D00A99002906D02E4B0B99994202D2012004B0F0BD002144E0AB001F19BF78002F3BD0E35A002B38D08A
:402740007B43591889B22B0000F04AF8050410161C253100A7782388BC46FF27233BEB37BB4222D26346032B1FD322E0A388002B1FD0302B19D31CE02389002B19D0282B28
:4027800013D316E0A289002A13D01346134F233BBB420AD20DE0268A002A0AD033460F4F233BBB4201D2964203D901200EE0002001E000280AD16D1CEDB2099B9D42B7D371
:4027C0001C2463435B1802998B42ACD89642AAD8AAE70000940C002079020000BAFF000030B47446641E2578641CAB4200D21D46635D5B00E31830BC18470000FFB583B00E
:40280000002469460C801F4606468C80002806D00598002803D004983043800701D0012466E0002FFBD03449049809888842F6D3FFF708FBFFF7EEFA00F012FC002855D1BA
:4028400000F07AFD002851D12C49084601F036F905042D0C4AD12A480499066081800021C18007810C98007AC00704D0684601F076FD040007D10C98007A800703D501A83A
:4028800001F076FD0446BF1DFEB2002C20D13146059800F05DF804001AD10EF0F9F9040016D16A461088928808368518144AF1B29088D288AEB29319984207D3401B801A39
:4028C00080B201F0EBFB050007D000E0FF25012400F05EFA002D04D008E0F8B200F01CF9F6E700F081FA07490120087000F0CAFB204607B0F0BD0000980C00203D2A00000F
:40290000F0100020A00C002010B503480078012801D101F065FA10BDA00C002070B5084B0446DA889E8800205518B54206D81D68AA182260DA885118D98070BD032070BD29
:40294000F01000200148008970470000F0100020F0B587B007460D4600208900009006916846FFF7DBFF844600285DD1304800990160002117E02E4B88001A680629115403
:4029800006D22C4C0419667882185670628805E0C419203CA67A8218567022891B68C018491C4280C9B2A942E5D300242DE0601CC2B2059025E01E4FA30039689600581827
:4029C00040887118039604904E88B04217D938466F46FE80B6464F786E4677710297049F4F800168039F5E18767879184E700168764659184E800068029F18184770521C06
:402A0000D2B2AA42D7D30598C4B2AC42CFD36046002809D168460699FFF780FF8446002802D1054900980860604607B0F0BD0000A40C002028410100A80C0020704700008D
:402A400010B5002809D005494A68002A05D0011F08788000105801F0CFFA10BDA40C002010B50446FFF76EFFC0B2801DA0420CD307484068002808D0A100405801F02EFA27
:402A8000002801D00470001D10BD002010BD0000A40C0020F8B516460D460446FFF752FFC0B2801DA04203D20020C0430090F8BDB2B2E9B2684601F037FA0099481C03D048
:402AC000024AA000526811500098F8BDA40C0020F8B50746FFF736FF801DC6B20A49002005460C680DE06178002907D06188B94202D32078FFF7B4FF002804D1241D6D1CBF
:402B0000EDB2B542EFD3F8BDA40C002010B5002801D0FFF795FF10BD70B506460948002504680BE06178002905D062882078121D0023FFF7AFFF241D6D1CEDB2B542F1D3F2
:402B400070BD0000A40C0020FFB581B00A9F16000C4620D000F0F2F8054604281BD0002F0CD03846FFF7B4FF20492A0151184860002810D03A460499FFF71FFC1B4928019C
:402B80000E504618778101980570200406D47D20C000444304E0FF2005B0F0BD6404640C00F0BAF80746042807D000F04FFAA0420BD800F04BFA201A03E0204600F0AAFAF8
:402BC0000020F06035720020E6E700F03FFA009000F0B6FA00980121001B009000F0ECF802493A0151180098C860E6E7FC100020F8B5060116483418217A042903D0E06856
:402C0000002802D017E00020F8BD00F01FFA054600F096FA00F0A0F804280CD001010C480F18F8680021451900F0C6F80020F860284600F06FFA6068054D002801D0FFF718
:402C400065FF042020720020A8516081E060DAE7FC100020FEB500266A46304601232549050169180D7A042D02D0C96800291BD000211154401CC0B20428F0D30024684617
:402C8000005D002830D01B48210108184189476805680291002101604160042241810272C160002E02D015E01354E3E700F054F804280ED001010F4808180190C66800210C
:402CC000304600F079F801980021C160304600F021FA0126002D07D038460299A847002F02D03846FFF712FF641CE4B2042CC6D3FEBD0000FC1000200EB5002005216A4669
:402D00000090118150810348694600680EF025FE0EBD0000AC0C0020074A0020010189180B7A042B02D0C968002903D0401CC0B20428F3D370470000FC10002005490020A2
:402D400002015218127A042A03D0401CC0B20428F6D37047FC10002030B50A4B04200A4C00210A011219157A042D06D0D268002A03D09A4201D808461346491CC9B2042972
:402D8000EFD330BDFFFF0000FC1000207047000030B50020074C05460423020111190B72A5504D60401C4D81C0B2CD600428F4D330BD0000FC10002030B5094C00231A0120
:402DC0001219157A042D04D0D568002906D02D18D5605B1CDBB2042BF1D330BD2D1AF7E7FC100020002070471CB5002469460C70142001902346054A05480EF0B3FD04486E
:402E00000068401C00D1FF2420461CBD652E0000AC0C00203EB5124A0146FF2000230124126800290DD0012914D0042908D104206946009308814B8110460EF08EFD80B2D3
:402E40003EBD6846009304814381694610460EF07FFDF4E768460093048143816946EBE7AC0C002070B545890468416800890300FFF7B6FC08280509091E22282628002037
:402E800005F00AFF1EE0022908D0C8B22A4621460CF0C6FE2046FFF739FE13E002202A4621460CF0BDFE2946204600F00DF809E000200EF051FA05E02046FFF7CBFE01E0C5
:402EC000FFF740F8002070BD014B0022DB681847B00C002070B5448905680089022803D0032809D0FF2070BD2246094C0023A46829460120A04708E0FFF7A4FA241DA2B2C2
:402F000000232946022006F0BEFE002070BD0000B00C002070470000024800214160018041807047B00C002070B50C46002186B016460391012802D0022859D116E003A9BB
:402F4000012006F0F5FE01281BD1039D324621462846FFF732FA0095287801900220694608814E816846FFF7B5FF41E0214D002B686809D0049004A9022006F0D9FE012820
:402F80001DD0022006B070BD002812D0298840182146FFF712FA28880024801980B228806988091D884206D12C801348FFF792FF03E00320E6E788421AD96C6018E0049826
:402FC0006860E278A378110219430B4A698000231060E3565360032313815181A1788170E178C1706178417021780170042028800020C7E7B00C00203C1100203EB5154683
:403000000C46022803D004280CD000203EBD0091019002206946088107484A8100680EF09CFC07E00CF0FCFD044B0022DB6829462046984701203EBDAC0C0020B00C002076
:40304000014AD16090607047B00C0020034801688068081A0A214843000970474811002010B5FEF7DFFE482204490548FFF7A5F903490120C870002010BD0000444101005D
:403080004C15002010B5FEF7BDFE10BD70B5134C2368002B08D0207B1149C20705D04008400020738868A08070BD88680B4AA18880B29268814203D90A4D691A091802E03A
:4030C000814202D2411A5118A160A080A0689842EAD30EF05FFC00F013F870BD48110020C0102E40FFFF000010B508461946FFF7A7FF10BD704710B5FFF780FF10BD0000E6
:4031000003480021016041608160C1607047000048110020024610B5FF20002A0CD0FFF7EFFF064C0321207B0843207310010A21FFF718F82060002010BD000048110020C2
:4031400000B504480A21806848430209FFF7D8FF104600BD481100200248007B8007C00F704700004811002010B54B490868002802DA4A4B01221A70022290430860484803
:4031800000694549C00B4031096A0246C907C90F0A4259D0012000F0E5FA3F480E216C30FEF73AFD3E4820218430FEF735FD3C4814219C30FEF730FD3948FF21C131A430E6
:4031C000FEF72AFD3648FF212F31B030FEF724FD33483449BC30FEF71FFD31483249AC30FEF71AFD30492E48491CB430FEF714FD2B482E49B830FEF70FFD29482C49CC30FB
:40320000FEF70AFD26482B490830FEF705FD24482949A830FEF700FD214828498830FEF7FBFC1F4826498C30FEF7F6FC1C481921C9029030FEF7F0FCFEF7FEFCFEF70EFEE8
:40324000C0B2022812D01FE000290BD0002101420AD0114801216030FEF7DEFC0120FEF7C5FD97E70121F2E7FF2010BD15491648FEF7D2FC14481549001DFEF7CDFC12480A
:4032800000210830FEF7C8FC54200449C043891C0870002010BD000000F02E40C00C002000002E40320300002F3F00003102000010520000EC160000FA12000031D000002F
:4032C0003AE300009956000080012E40F80F000070B50646581C80B245086D00002408E0304600F0C1F81055000A1119A41C4870A4B2AC42F4D3D80705D0D0182038D15C93
:40330000C47FD454C17770BD30B50A4C002100195B1E07E0541864782502545C2C430480891C89B29942F5DB994201D1515C018030BD000000102E4010B5FF2000F012FA25
:403340000F49FF2048700E481021801D41800121417001700A490020C91C4870FFF704FF04000AD100F02EF907210648FEF744FC044807211830FEF73FFC204610BD00002C
:40338000C00C0020CC112E4070B5002405465B1E0AE0284600F068F8010A161971702D1D1055A41CADB2A4B29C42F2DB9C4203D1284600F059F8105570BD000070B50021FE
:4033C0000A4D5B1E0AE0541864782602545C344346193480001D891C80B289B29942F2DB994202D1515C4019018070BD00102E40F0B50599091FCFB200217E1E0BE05418B2
:4034000064782502545C2C43164D45192C80001D891C80B289B2B142F1DBFC0712D01C78515C24020F4A0C4381180C809C785D78001D210280B2294384182180001D80B2A3
:40344000D9780CE059781A7809021143054A84182180001DD9789B78090280B2194380180180F0BD00102E40014940180088704700102E4010B50B490020487000F0A2F889
:40348000002000F095F9002000F082F907210648FEF7B2FB044807211830FEF7ADFB002010BD0000C30C0020CC112E4010B50C48007801280FD100F089FF00F0DDF800284C
:4034C00004D10848016A490849000162054802213030FEF7A1FB02490020C91E087010BDC30C002040F02E4010B50B46062812D006DC01280CD0032801D1FFF7BBFF10BD33
:403500000A28FCD00B28FAD105480078107010BDFFF712FF10BD1146184600F065F910BDC60C0020F8B5244DAC6A0127A007234E002816DA307806280ED1286A384328620F
:403540001F480069F903084381B21D481030FEF763FB042000F006F9174802212830FEF74BFBE00718D000F06BFF01280FD1002000F0B8FF062000F0F5F81049FF20C91E86
:4035800048707078002802D1686B384368630A4801212830FEF730FBE0050BD53078042802D1052000F0DEF80348FF2101312830FEF722FBF8BD000040F02E40C30C0020CB
:4035C00000002E4010B503212348FEF725FB0120FEF7FCFB20483038406A204C80076178800F890001431C480C38FEF715FB6078002808D0401E022181401820FEF79CFEB7
:40360000C000083800E0B82081B21548FEF704FB1348032109021438FEF7FEFA10481149B830FEF7F9FA612189010F48FEF7F4FA0D480321001FFEF7EFFA0C490C48FEF7AF
:40364000EBFA0B480B496038FEF7E6FA084801218838FEF7E1FA10BD70F02E40C60C0020D8102E4090890000041E2E40FF0F000058122E4020900000044800684007400FE3
:40368000022801D0002070470120704700010B4000B5FFF7F1FF002805D009480168C908C900016000BD0748016A490849000162054801690122D2039143016100BD0000B1
:4036C00000010B4040F02E4000002E400849087806280BD148780749002803D1486B400840004863C86A01221043C86270470000C30C002040F02E40014800787047000017
:40370000C30C002000B50300FFF76AF8080D050D0B070507090D012000BD032000BD042000BD022000BDFF2000BD0000074A9168D26889B2064B92B2994204D105498A42B7
:4037400001D1012100E000210170704780002E4033D000003FE300000149487070470000C30C002010B50446FEF754FB072C01D9FF2C01D102480470FEF744FB10BD000055
:40378000C30C00200149487070470000C00C002010B5064A012805D01921C9021046FEF73BFA10BD1D21C902F8E7000090002E4010B50A4A141D012808D009491046FEF742
:4037C0002BFA08492046FEF727FA10BD04491046891CFEF721FA0349491DF3E788002E4031D000003AE3000070B50C460546FEF735FBC0B202280E49287804D0FF2810D0BD
:403800004C280CD810E0FF2809D10A4AD0680004800F032801D0087807E09069000A553803E00878207070BD4F382070087070BDC20C002000002E40F0B50122002834D001
:40384000002932D00424420600D00524792342065B06D21800D0641C034600221EE00C2516466E43124D00277519AF72104F002ABB51696007D0661EB24209D10D4E8619D8
:403880007606760E05E05E06760E8027BE1B00E080269B198919521C2E81D2B2A242DED303480549006B002288611046F0BD0000D413002079020000CC0C002018B5002030
:4038C000694608700A48006900280ED0132149014018047E684604704F21C900054800F059F8A04201D0012018BD002018BD0000CC0C002058110020074900200C2242435D
:403900005218927A012A05D0401CC0B20628F5D30020704701207047D4130020F8B50E000446154609D0194F19497868A04202D94018A04201D38D4201D90120F8BD3146F3
:403940002046FEF72BFD00281ED02A4631462046FEF733FDE8B200210C224A43D21913895568EE18A6420BD90126641B1B1B9672834209DA1469C01A044AC0B220329676AF
:40398000491CC9B20629E7D30020F8BDD413002079020000034610B50020024604E09C5C2018521CC0B292B28A42F8D310BD000070B500F05FF8084C064A216907480D4699
:4039C000FEF7FBFC05492846FFF736FFFFF776FF207070BD79020000CC0C002058110020002070470020054A002902D0012902D002E0906000E0D06000207047CC0C0020E2
:403A000070B5084C154608460549E26889182A46FEF7D3FCE0684019E06028B270BD000058110020CC0C00203EB50A226946FFF7E7FF044606480A2200686946FEF7AEFC6A
:403A4000002802D00020C0433EBD20463EBD0000D00C0020002802D0044A914201D2FF20704703494A6108610020704779020000CC0C0020024800218160C160704700003F
:403A8000CC0C002070B5074C15460548A26880182A46FFF743FFA0684019A06028B270BD58110020CC0C002010B503490A220968FFF7E8FF10BD0000D00C002010B50F4A49
:403AC000002313600E4A13600E4B18600E4801600E49012008600E490860000290600E490C4808600D4914300860FF381538506000F0BCF800F0CAF9002010BD000D002092
:403B0000E80C0020140D0020180D0020040D0020F40C00201C150020F80C00200C0D0020014610B50020002910D0094B1A689C685118A14209D25868196080188A0704D080
:403B40008A07920F891A091D196010BD002010BDE80C0020F8B50024164E671E321F3D463168136806E01422624310328A58521C1BD0641C9C42F6D36A1C14D02C461422EA
:403B8000544322460C3288500C214843FFF7C8FF3168002808510AD031680020103408517068401C70602846F8BD2546E4E73846F8BD0000F80C0020F3B50026F64381B045
:403BC00000281BDB1E490968884217D80299002914D01B4F142204463F1D54432546396810354859401C09D0FEF714F938682F1F4159C359994203DBFEF704F93046FEBDE8
:403C0000214608310091465801590C20704308180C220299FEF7D1FB0948761C001D0068C159B14200D100260549009A091D865008684159491C4151FEF7E4F80020FEBDD5
:403C4000F40C0020002803DB07490968884202D90020C043704704491422091D096850431030085870470000F40C0020F0B500200D4A451E0346171F50600FE0142601469C
:403C8000714314680E1DA3510C461668083433511668083435511468401C635039688842ECD30020F0BD0000F80C0020F3B50026F64381B0002841DB2349096888423DD807
:403CC000029900293AD0204F142204463F1D54432546396810354859401C2FD0FEF79AF83868415900292BD0211D009146580C21005971430F46C1190C220298FEF75DFBF7
:403D000011480021001D0068761C00590C34C0190160416081600C48001D00680159B14200D100260849009A091D865008684159491E4151FEF766F80020FEBD3046FEBD37
:403D4000FEF760F8FAE70000F40C0020FEB504460D4600201E49089E0860471E009001900290002C11D0486885420ED2002A0CD0002E0AD0642E08D808460C3001681C20E5
:403D800068430C18207A002801D03846FEBD0120226020721846FFF7DDFE6060401C13D06681A6810A4827610C3067610179A94200D205710021684601810A462846029BC0
:403DC00000F040F82846FEBD00202072DDE70000000D002038B50124009400F039F838BDFEB50027164EFF433D4600240EE01C20316860430818017A002906D04068FFF74E
:403E000021FF002801D0254603E0641C3079A042EDDA681C12D01C2130684D434419FDF7F9FF69466068FFF741FF0546FDF7EAFF002DD9D1216868468847D5E7FEBD00000C
:403E40000C0D002038B50024009400F001F838BD1FB500220C49541E0A60002811DB496888420ED808491C220C31096850430818406801A9FFF7A0FE401C02D0002004B012
:403E800010BD2046FBE70000000D0020F0B50021114A4D1E174611710C3F0B46BD6016E008461C2460431668041D355114680646235014680836A3551468361DA353044654
:403EC00016680A34335318301468491C255078688142E5D30020F0BD0C0D002038B500210091002811DB0F49097888420DDA0D4D04010C3529680859002807D0201D081856
:403F0000694600F06FF9002801D0002038BDFDF781FF28680F34015D491E0155FDF772FF009838BD1C0D0020F7B582B0002502986E1E06602E48D21C024017462D4A2C4654
:403F400010460C380178106805E02301C358002B0FD0641CE4B28C42F7D3711C28D03401211D40180191039900F02AF900281FD101E02646F1E71F48016820460C300F5239
:403F80001C480399026820460E30115419480399026820460F3011540398784300F0A0F8144900280968085102D00024009011E001251AE00F48016801980818009900F057
:403FC0002CF9002801D0012502E00098C0190090641CE4B203988442ECD3002D05D10298066004480179491C0171284605B0F0BDFCFF0000280D0020F8B50D4600216A46D3
:404000008C461180002839DB23490978884235DA214B04010C3319680A59002A2ED020460C300B5A801C0E5C184670438018954224D3854222D2002006E007465F43BF1854
:40404000AF4206D0401CC0B2B042F6D36046002814D0114E271DC8190C366A46294600F006F900280AD168460088012808D030682946C01900F0D1F8002803D00120F8BDC6
:404080000020F8BDFDF7C6FE30680F34015D491C0155FDF7B7FEF3E71C0D0020F8B50F46002400F031F8002817D10C4900220B460C334A600EE021011D680E466A501D688B
:4040C0000C36AA53B61C1D680F31AA551D68641C6A54E4B2BC42EED31A71F8BD1C0D002000280BD0C01C074A81085068890053884118994203D893685160181870470020B3
:40410000704700001C0D0020F8B5064600200F4D009029700C0121466846FEF7FFFB00280CD129460C3100980860301B001F84B221466846FEF7F2FB002801D0FF20F8BDBB
:404140006C800098A8600020F8BD00001C0D0020F8B5002827DB19490978884223DA174C05010C342168485900281CD028460C30085A009028460E300E5C401C0E54206835
:404180002F1DC01900F064F800280CD12068002445590EE0094829460C300068C01900F03CF8002801D00120F8BD00982D18641CE4B2B442EED30020F8BD00001C0D002059
:4041C00030B50D4604000BD0A800FFF789FF6060002805D000202570C0436080002030BD012030BD70B50D46040005D0002D03D00220205E002801DA012070BDFDF70AFED4
:404200000221615E60688900405828606088401E6080FDF7F7FD002070BD70B50D46040007D0002D05D002212078615E401E814201DB012070BDFDF7EDFD6088401C00B2E2
:404240006080616880000D50FDF7DCFD002070BD10B5040009D0227800216068FEF7B6F80020C0436080002010BD012010BDF0B500231D46002802D00224045F0AE001203F
:40428000F0BD46689F00F6598E4201D1012503E05B1CDBB29C42F4DA15700020F0BD00000148007870470000300D00207CB505460024FEF7C7F8A8796946087000A80622C7
:4042C00029460130FEF779F80021684604F0AAFF0C2806D0072806D01F2806D0122806D006E0022404E0042402E0272400E0012420467CBD014801214172704754160020C8
:4043000010B502280BD0032802D0042809D102E000F076F905E000F021FAFF2801D100F031FAFFF7E9F9FFF7EDF910BD10B500F059FAFFF7E1F9FFF7E5F910BD70B5044602
:404340000025FEF77FF8002C06D0A079012803D8214602F0D7FD00E00125284670BD01460120002902D05020088000207047000001460120002905D003485422007850435B
:404380000880002070470000320D002010B502460D49FE204870032410460DF001FE002810D10DF0A5FD00280CD105F01DFD002808D100F027FC002804D105F0D9F90028D1
:4043C00000D10024204610BD300D002002480021018280210180704700102E4070B50025044600280ED0A07901280BD8FEF72AF8A0790028204602D003F060F903E003F082
:4044000035F900E00125284670BD0000014610B50120002904D006220248FDF7CEFF002010BD00003C0D002001460120002903D0087802490870002070470000320D00201D
:404440000148007A704700005416002038B504460120002C20D0617801291DD800290BD0FF25E535FDF7EEFF0C4828180088C0B22070072803D00EE0FF25CD35F2E700207C
:40448000694608706846FFF751F969460878012801D108202070002038BD000000102E40014A002192681047300D002008B500226B461A7026280CD0094A342852680BD0D0
:4044C000352805D1900703D50021352005F068FD08BD19462620F9E7D007F9D03420F5E7300D0020014908727047000054160020F8B504460120002C26D06178012902D9B6
:404500002278092A20D8002905D0FF25E5352078092803D004E0FF25CD35F8E708202070FDF790FF2078114F114E08280DD00020FFF73EF970780128207810D00D496918A9
:404540000880FE2070700020F8BD0120FFF730F90720B8810549203188800120F2E7B8810248217820308180EBE70000C0112E40300D002000102E4070B50E46050001D0F7
:40458000002400E00C4C002C11D0E28A500609D5D107C90F022003F02FF9E08A40218843E08204E0D107C90F012003F025F93146284602F003FE70BDB4150020F8B5054661
:4045C000002004460D4E009013E022466946284601F0FEF80098002801D00DF0C3FCA878214602F0CDFBA878214602F0BBFB641CE4B2308AA042E8D8F8BD0000801600206D
:40460000F8B54E4CFFF778F8012847D14C480078002843D002F05AFD00283FD004F0A4FA00283BD0474E7078C00703D000F01CFD012833D0307E00287DD17078002500285B
:404640005BD0000706D540488089070B00F02EF9384370D13B484178684604F0CBF821793A4CA2788918C9B2814262D802F02EFD002860D0344860300789324E203602F0EA
:404680006FFB6846008802F099FB02F035FC30490988884203D10120FFF764F84BE02D49012008702748807B00281DD0002F1BD04036F07E002817D12348603000882149E2
:4046C0004000C031498981420AD26078002807D103F0C0F82049088A03221202104308822078002800D0257002F09EFB0120FFF733F800F025FC174C15E002F0E7FC00282C
:4047000019D0102402F0F8FB214602F0E1FA02F055FB104C0120207002F086FB0020FFF71BF800F00DFC20780128B4D1FEF7B0FF25700020F8BDFF20F8BD00008C15002076
:40474000C00C002094150020A0102E40560D0020680D0020420D0020E0112E4010B50848FF244078002809D102F0B0FC012805D1FEF79CFE0720FEF7F5FF0024204610BDFB
:404780009415002038B5FEF7B7FF012801D0002038BD02F09BFC00280AD0114C6078C00703D000F061FC012802D0207E002801D0FF2038BD617800290FD0684604F01AF8A7
:4047C000022806D96846008802F0F8FA012002F035FB0320FEF7C6FFD9E70020F7E700009415002038B51E4CFEF786FF042813D0052811D0062812D003282AD007280AD1C2
:4048000000206946087002460120FEF76DFEFEF773FF0128FBD138BD00F0B2FB38BD02F025FB00F0ADFB02F0A1FB8007800F0228F4D10C4841880029F0D05B21095D002937
:40484000ECD101210170A07D0140022002F0D4FF38BD02F00FFB0120FEF784FF38BD0000B4150020560D0020F8B50646002403F031F80546304603F047F803460A480021D0
:40488000068A0DE001228A401046174628401F40002803D0002F01D1224394B2491CC9B28E42EFD82046F8BD8016002070B500252C460A4E03E0002C01D0002000E03046BB
:4048C0000079002803D02046FFF7CEFF0543641C2406240EEFD0284670BD0000B41500201CB50020694648706846FFF7AFFD01AA69460A20FEF7F8FD6946042008561CBD94
:4049000070B50D4601F04AFB04000BD02079002808D0FDF797FDE178A0782A4602F0D4FC002070BD022070BD01480078704700008C1500204030C07E002800D001207047D3
:4049400000B500F001F800BD902148430749084A40186030417F491CC9B24177D289914201D300214177C8B270470000941500208016002013B501F011FB04000BD001F09E
:40498000AEFE002807D0214601AA0A310620FEF7ABFD00201CBD02201CBD000010B50C4601F0FCFA00280AD001F099FE002806D0224604490A20FEF797FD002010BD02204B
:4049C00010BD000075150020F3B581B0074601460026029802F076FF0446002F01D0002500E0154D002D21D0284601F00DFB032C04D13946029802F0C1FF06463846029942
:404A000002F0B0F9032C06D0002C10D00121384601F000FC03E03146384603F0B5F9284602F08EF80221284602F0A4F8FEBD3846029902F097F9FEBDB415002010B50446B6
:404A400000F066FA002804D103F068FE002801D00C2010BD2078611C02F038FDFF2801D01F2010BD02F07EFDFF280AD02178621C02F000F9044821780068026B601C9047E1
:404A800010BD072010BD00007C0D002010B503F045FE002801D00C2010BD02F0F9FC03480068C06A8047002010BD00007C0D002070B50D46044610210DF094F91021601858
:404AC00006460DF08FF9334610221946204603F053FE102130460DF085F902202870204604F07CFD70BD0000F8B504464078217802028006870FE0781143A6780905000213
:404B0000090D0643084601F049FA00210546F2B2002812D0002C10D0022F0ED0032F0CD0002A0AD00279092A07D0002A05D0134A5A23527E1B5C9A4207D82889002104F027
:404B400082FC20460DF00EFAFF21002914D10C48224600682946436930469847C0B2FF280AD128464030817EF2B2491C8176FF232146284600F0E3F8F8BD00004C15002041
:404B8000980D00200020704710B5044603F0C6FD002801D00C2010BD2078611C02F096FCFF2808D002F0CEFB044821780068426B601C904710BD1F2010BD00007C0D002080
:404BC00010B500F06BF904F0D3FD002010BD10B5044600786178E2780843A17811430843217908436179084305D003F089FD002803D00C2010BD122010BD204602F05EFD30
:404C0000002010BD10B5FDF729F902F085FE044803F0E8FE02F0A0FB012000F003F810BD5C150020F1B586B003A8009005A8019028489F22817A114081726846FDF71CFC9C
:404C4000002845D169460989C90705D0224806990068C2686846904769460989890706D5002835D11D480068816A0698884700282ED11B4E0025757075737571F575357674
:404C800075767575B570F570B5713746F5730120D03738731F20F880FF2130467972A0300176457600F0DCFA00242046069901F0C1FC002803D1641C2406240EF5D0FD72D4
:404CC0000749BD72B573C0310D704D704D600D7207B0F0BD4C150020980D00207C0D00209415002070B505460E46084602F0F2FD0446304602F008FE0121A9400A46224032
:404D000001400A4301D0012070BD002070BD10B50446084602F0F8FD0121A140014201D0012010BD002010BD10B5FEF7E5FC032804D102F09FF80120FEF714FD10BDFEB578
:404D40001C4616460F46054601F0FAFEA878FFF7F7FD02460190334639460094284600F00DF8002808D1A8780199FFF705FCFF2C02D138460DF0F6F8FEBD0000FFB585B05D
:404D800005460E980C46FF2810D02B49C00009680A5840180179C0795278814201D9012601E09006860F6846038108E06078A1788006860FE078000201436846018128469B
:404DC00001F098FC070007D021462846079A00F093FC384609B0F0BD304600F041FD04AE0346039002AA29460096204600F0CDFB3C20405D002818D0284601F07BFC01286E
:404E000013D0684600890096C0B20190A878231DFF22079902F086F968460089039BC2B2A878079902F0C6FCD3E7684600890021C0B20091E9E70000940D0020F8B50026F7
:404E400000253046FFF710FD07001DD090201149704340186030447F12E0601CFDF782F9CCB23846E040C007C00F07D02146304601F06EFF21463046FFF7A6FD6D1CEDB2F9
:404E80000548018AA942E8D8761C3606360ED7D0F8BD0000941500208016002010B502F05BFA0020FFF7BEFE0DF0F2F8002010BDF8B5002400F0D2F80123012800D1012402
:404EC000104F00203E4620360425082203E0002801D0002100E031460979002907D001290BD002290BD0114681402143CCB2401C0006000EEBD07C70F8BD1C43F7E72C43B3
:404F0000F5E700009415002010B5FFF7D1FF10BD10B5044604F07EFD002802D1601C00F001F810BD1CB500240094062269460194FDF734FA002800D1122420461CBD000044
:404F400070B50E4CFCF751FE0546FEF7D5FB062802D02078012803D02846FCF74AFE70BDFDF758F82846FCF744FEFEF7C5FB0628F5D020780028E5D170BD0000420D002055
:404F800010B5FCF732FE0446FEF7B6FB012809D0FEF7B2FB022805D0FDF73CF82046FCF728FEEEE72046FCF724FE10BD10B50B4681791943817103D08078114602F0C8FB7D
:404FC00010BD10B582798A43827102D1807802F0D3FB10BD30B50C4C0220A28A0B4B9978002901D0022906D11D785B78EB18282B01D9032002E0032900D101205105490DB7
:40500000C0020143A18230BDC0112E404C0D002000B500F029F8002807D0012805D0032801D0042801D0002000BD012000BD014600B50020C90701D000F010F800BD014672
:4050400000B50020C90701D000F008F800BD00000148006870470000440D002001480088000A704720102E400448008B410501D5042070474007800F7047000000102E402B
:405080000148406870470000440D002038B50446000610D5FFF7E8FF01280CD1684601F0F9FE6846007800F02BFB012001F0B0FD0220FFF729FF600708D5074801790129CA
:4050C00004D1002101712620FFF7F0F90348006801692046884738BD500D00207C0D002010B501460A4A007800241070FFF7B6FF0128084603D002F04DFA204610BD00F0E9
:40510000E7F80400F9D1034801210170F5E700004C0D00205416002070B50446FFF79EFF002801D00C2070BDA27B01211F48002A827801D00A4301E052085200827062796F
:40514000012A14D0C17849084900C170184D2868016820468847207901280CD06188208803F08EF82080207904280FD015E0C2780A43C270EAE72868C168E01D8847E01D9C
:4051800002F088FA0B48808C208006E02868C168E01D8847E01D02F07DFA074920798870204602F005FA002070BD0000941500207C0D00204C1500204C0D002008B5017884
:4051C000FFF74CFF814201D10C2008BD002914D0072069460870FFF71BFF012807D10121684600F0E5F8012801D0092008BDFFF7F1FE02F011FA012011E0FFF709FF0128DC
:4052000006D1684601F046FE6846007800F0ACFA02F0F8F9FFF722FF0028FBD10220FFF773FE002008BD000010B501460A4A007800245070FFF712FF0128084603D002F09D
:4052400067FA204610BD00F065F80400F9D1034801214170F5E700004C0D00205416002038B568460CF014FE002801D01F2038BD01210098C9020180418000250571457194
:40528000857107214173857302F092F9009C202200212046FDF79AF825702A460021601CFDF794F8204602F075F9204602F030FA00980CF057FE062200210448FDF786F862
:4052C00002480C388560002038BD0000500D0020F8B5044600250D4800950078012806D068460CF0D5FD002803D007250CE00C250AE0074E009830602278611C401CFDF79E
:405300005CF83168207808702846F8BD54160020440D0020F8B5044600250D4800954078012806D068460CF0B3FD002803D007250CE00C250AE0074E009870602278611C39
:40534000401CFDF73AF87168207808702846F8BD54160020440D00200346084800B5834209D8184600F01AFE002804D00089984201D1012000BD002000BD0000FF0E000051
:40538000074A9179491C8906890E917138220A4092014907090E1143084302490840704794150020FF0E0000C006C00E70470000F8B507460E4600240D4803E0002C01D0B6
:4053C000002500E005462979002905D0641C2406240EF3D00020F8BD0021204601F02AF92E712046FFF7CCFF28813C700120F8BDB415002010B503F0F3F90222002100F0FB
:4054000003F801F055FF10BD10B5094B40074907000F090F185A595A40185043C0086421FCF7A0FE002800D1012080B210BD00008C410100F7B53D20405C88B015460C4629
:40544000002802D02878042802D200200BB0F0BD6946087200262046FFF76CFA012800D00126204603A938300191009023460327A17E34333246206A03F0CEFA02A808991C
:4054800000900B46019120463A4603A9243003F053F902466846007A2870204601F0B6F81046D3E7FFB587B00C4605461078694608723D20005D1746002826D0002620463D
:4054C000FFF738FA012800D00126204603A93830019100902346A17E34333246206A03F09BFA02A80090291D019120462B1D03A924300A9A03F020F902006846007A3880FD
:4055000002D1204601F082F810460BB0F0BDF0B505463C20405C89B016460C4600280CD0307869460873002806D000272046FFF701FA012803D003E01F2009B0F0BD01273C
:4055400003200890204604A93830019100902346E17E34333A46E06903F05EFA6846007B03A928180290009120462B46019504A92430089A03F014F902466846007B307037
:40558000204601F04DF81046D7E7FFB505463C20405C89B016460C46002810D0084601F0A9F801280BD0308869468883002809D000272046FFF7BEF9012805D005E00020C1
:4055C0000DB0F0BD0220FBE70127204603A93830019100902346E17E34333A46E06903F01BFA291D2B1D07A8129A6D4607C5204603A924300C9A03F0D3F802466846808B46
:405600003080204601F00CF81046D9E770B50D460446FFF78FF901280AD0E87AA97A00020143A07801F030FD012808D0002070BD00222421204602F075FD242070BD2821CC
:405640004C200155204600F0B1FB282070BD0000002801D0002000E003484030C07F012800D0002070470000B41500200146002049070ED50021084B03E0002901D0002238
:4056800000E01A461279022A04D0491C0906090EF3D0704701207047B41500200146002049070ED50021084B03E0002901D0002200E01A461279022A04D0491C0906090EF6
:4056C000F3D0704701207047B415002010B5044680346068002803D00CF058FC0020606010BD4030417070474030817070474030017070470171704792001018C1667047A3
:4057000070B53C2501F09CF9040004D020460021433001F059FCFF222946204600F0E8FB002C02D0A07801F00DF970BD10B5002801D0002000E00348002802D0008903F0C3
:40574000C9FE10BDB415002010B5002801D0002000E00448002804D00179072901D100F047F810BDB415002010B501F069F9002802D0807801F0E6F810BD002070470000C8
:4057800070B50546008A00281ED01049F122897A1140C90618D5294640314A8A098A521C4A4392B2D10800D10121540801E0621A94B2A042FBD9FEF773FD012804D1298A40
:4057C000A878224601F036FD70BD00004C15002010B50023054C0B60248A944204D992001018C26E0A60C36610BD00008016002038B5044600200090A079002814D14020DD
:40580000015D052901D00E290ED168460CF050FB002809D12046009902F062FC03481021C28A2046FFF7C2FB38BD00004C15002010B50B4604460146184602F0D3F800286E
:4058400002D020460CF098FB10BD13B5044601AA11460620FDF748FE6846818861811CBD002800D10220704770470000F8B504462346401D543300909A1EA078911E01F0E1
:4058800025FB25464035A88A298A8000FCF76AFC401E81B2688A884203D96982A07801F0E5FF698A8C20015120460021433001F08BFB27480088E88102F092FFE989891CCD
:4058C0008AB26179FFF7A0FD01F0F2FC02F088FF2A8A6179FFF798FD074601F0DDFC688A002806D01B49088A032212021043088202E0002001F0AEFF1648803801886E8A44
:40590000002E0CD0304648431349FCF715FD0004000C01D0401C80B21049488002E00F4800214180288A704381B2A07801F0FEFEFF2228374932B9B21346204602F0A4FCFC
:40594000E98AA07801F072FEA07801F02BFAF8BD80102E40E0112E4071020000560D00207FB504468034616805460E46183108226846FCF722FD31462031082202A8FCF7A9
:405980001CFD102168460CF02DFA6068102108300CF028FA60682B46083024331022694602F0EAFE7FBD10B504460821FFF709FB10212046FFF705FB207905281FD006281C
:4059C0001DD008281AD12189002003F0FBFC072020712046FEF7AEFF014620464030012913D00E21017000210176204600F0BCFF2046FFF76BFE2046FFF7C2FE10BD208961
:405A00000122002103F0C2FCE1E70521EAE70000FFB581B01F4604460821FFF7D2FA10212046FFF7CEFA2079082803D0092804D0042203E00422012501E009220025204651
:405A400000F044FE264600204036307022712046FFF73CFE0398002D02D0012808D00BE001280AD120890022029903F08FFC04E02189029803F0A6FC012700203076012FE0
:405A800004D0204600F070FF05B0F0BD02983073204602F073FB054605480121C28A2046FFF784FA002DEFD109202071ECE700004C15002070B50C460546FEF73BFF0128F3
:405AC00009D108212846FFF77CFA0023012221462846FFF79DFF70BD10B5044600F0F6FD2046FFF7F3FD00214034217010BD70B505461A24FEF71EFF012809D10821284664
:405B0000FFF75FFA0023012221462846FFF780FF70BD0000F8B50446002000900E4668460CF0C6F9002801D00D20F8BD8420005908212030009D00F02CFA204604213830FE
:405B400000F027FA002E02D1204600F0FBFD2946204602F054FA0E480821C28A2046FFF725FA204600F071FF25464035002808D0204600F023F8002801D009202870002079
:405B8000F8BD08202870204600F0DAFFF7E700004C150020014610B540310A460978082906D0092907D00A2901D100F091F810BD0B20107010BD00F001F810BD70B504469C
:405BC000007925464035052805D0062803D008280FD00C2070BD03220621204602F0A2FA0D480821C28A2046FFF7E0F91120287010E006202873204602F0C0FA0646AA8A96
:405C00000A20424301212046FFF7D0F9002E01D109202071002070BD4C15002038B504460020009068460CF043F9002801D00D2038BD2046009D00F0C3F908202071204630
:405C400000F080FD2946204602F00CFA00213D2001550F2040210855204600F071FF002038BD00B5024600F031FD10214032117000BD10B50446FEF75DFE012809D0402091
:405C8000005D112805D100231A4606212046FFF7BFFE10BD10B5FFF786FE10BD38B504460021684600910CF003F900280CD12046009902F058FA05480821C28A2046FFF7E7
:405CC00075F90D204034207038BD00004C15002038B504460021684600910CF0E9F8002801D00D2038BD2046009902F031FA05480821C28A2046FFF759F90C204034207044
:405D0000002038BD4C15002000787047F8B5002569460D70002801D0002400E01F4C002C18D0204600F0DBFC002813D0207903280BD005280CD026464036B18AA07801F01E
:405D4000FFFCB078012806D01DE0042020711DE006202071F8BD0021204601F060FE274680373868002802D00CF010F93D600020B0702079072802D12046FFF701FD022158
:405D8000204600F0F7FE20790428E3D1207A694608703420FEF78AFBF8BD0000B415002010B54C22115400F052F810BD10B50446FF21FFF706F909202071A07801F0E6FC8A
:405DC00010BD000038B5FF216A461180002801D0002400E00B4C002C12D011460620FDF783FB684601882046FFF72FFD204600F087FC002804D104480068C169204688478F
:405E000038BD0000B4150020980D002010B504468079002809D022214C200155FF212046FFF7CFF8204600F012F810BD10B5037902464032002B03D01173092B02D003E0DB
:405E4000002100E02221117300F001F810BDFEB504460089002700902781207926464036002817D0012815D002280AD112E002AA01A9204601F0A4FD002807D101980CF04D
:405E80007BF8204601F0C4FD0028F0D02046FEF795FBB776254680352868002802D00CF075F82F606868002802D00CF06FF86F60317B002919D0009800F064F8A0780021DE
:405EC00000F092FF2046FFF795FAA07801F0C6F8A07800F037FDFF212046FFF772F80B20FFF712F800F068FCFEBD1F213173E2E7F8B517460E46054602F06EFC04003CD051
:405F000020460C3001F050F82046062200211830FCF75CFA2046062200211230FCF756FA1648224600683946436A28469847074626702846FEF7FEFC012148406070002D84
:405F400010D02889608028464030C1782171002E0FD169796171018AE180418A2181808A608106E00648008BC005C00F2071002060803946204603F0A8F9F8BD7C0D002046
:405F800000102E400A4610B50146002003F0BAFA10BD10B50BF002FD10BD000000B50146FFF702FA002801D0002000E00348002802D002898A4200D0002000BDB4150020CE
:405FC00038B5044680346068002806D168460BF07FFF002801D100986060606838BD000010B5014600F086FB0128887802D0FEF7ABFC10BD90214843024940186030007FEA
:4060000010BD00009415002070B5054604464035A87F012811D1A1789020084A484380186030067F3046FEF75DFE002805D10220A877A078314601F0CBF870BD94150020D8
:4060400010B50C4CA07A002813D0FEF7F7FE0A48027F417F408B00F0B7FB012809D10020A07200F02DFF05498989090B01D000F03BFA10BD6416002094150020A0102E40EB
:4060800070477047490510B5490F0B00FCF7A8FB060704080C0C0F073E21FFF781FE10BD0821FFF7C3FE10BDFFF7D1FE10BDFFF7ADFE10BDF8B507460025002D01D000268E
:4060C00000E0204E00F0A6FE3046403044890021418100F0C3FE304600F001FB01282BD1A00702D52846FFF711FEE00602D52846FFF768FEA00601D5FEF7A0FE600601D52D
:4061000000F014FB200602D5284600F01DF8600702D5284600F02CFA380402D52846FFF713FB780402D52846FFF700FBE00703D021463046FFF7A6FF6D1C2D062D0EBCD042
:40614000F8BD0000B4150020F8B5002801D0002400E0284C002C4BD025464035A878012846D1FF278820493700593E46002805D02149897A890601D5878AC68A2046FEF726
:40618000D9FB012834D002F02BFB2A8A6179FFF73BF9009001F080F800983346283081B23A46204602F070F8E98AA07801F03EFA12480188688A124E002810D04843114963
:4061C000FCF7BAF80004000C01D0401C80B27080A07DC107C90F002001F00EFB01E000207080288A698A484381B2A07801F09EFAF8BD0000B41500204C15002060112E40D1
:40620000560D0020710200000149096809680847980D002070B50D460026194A0146002801D0002401E014462034002C26D0204600F060FA01280AD19020484380186030FB
:40624000007FFEF74FFD002801D101F017FF0D48006881692046884700280CD020464030817EA94202D3491B817600E086762089294603F0E8F8204600F062FC70BD0000E5
:4062800094150020980D002070B503460088FFF785FE040013D000F022FA00280FD02079092819D02546997840352973204601F065FF0646A878012803D0AA8A02E002204C
:4062C00070BDEA880A20424301212046FEF76EFE002E01D109202071002070BD0EB5002217216B460292198100905A810120029B00990BF0EBFE0EBDF8B518480024807AC8
:40630000002822D1164E0025B089000B22E0204600F074FE1249A039401807882A462146384600F051FA012810D00E480122478305770A4944778A72002D01D0002000E030
:406340002030002801D000F0FBFBF8BDB089000B641CE4B20028DAD1F8BD000064160020A0102E409415002010B50088FFF716FE002809D0014640310C460978082905D0ED
:406380000B2903D00C2010BD022010BDFFF716FC002801D009202070002010BD70B503460088FFF7FBFD040008D0254640352878082805D00B2803D00C2070BD022070BD54
:4063C0008420005910220830991CFBF7F6FF2046FFF7C6FA2878082804D02046FFF778FC002801D00A202870204600F0A9FB002070BD000010B50C46002121700088FFF7C1
:40640000CDFD03000BD000F06AF9002807D00948F121807A0840C00603D4112010BD022010BD022020701A8A1889002103F086F8002010BD4C150020F8B50F460021009188
:406440000088FFF7ABFD040012D000F048F900280ED0E079410641D4617E02264A07002A08DB8907402500291ADA2843E07135E00220F8BD02F0B0F900210170218941806D
:40648000A1898180217E4170E189C1803E7005460178134802F02CFD284602F0F3FF1DE0204600F02DF9012806D068460BF000FD002803D00720F8BD2A20F8BDE079009996
:4064C0002843E071204601F083FE607E0421304360760448C28A2046FEF768FD0020F8BD1D0400004C1500203EB500220F236C460292238100910190628169460EC9002011
:406500000BF0E4FD3EBD0000F8B50F46054600F097FA040025D003202071254600264035EE76E6702046FFF7A1F901F06BF80920FEF7EAFCA07800F07FFD0121204600F0FF
:4065400019FB2E706E70AE703A4600212046FFF7CFFC0649887B401C8873A078FFF754FEF8BD284601F012F9F8BD00009415002010B5002801D0002000E0094800280DD0EB
:40658000014640310A464978022901D100215170807DC107C90F002001F02EF910BD0000B415002070B503460D460088FFF7F6FC04000BD000F093F8002807D01248F121B2
:4065C000807A0840C00603D4112070BD022070BD20464030418A008A491C41430804C10C5888884201D2122070BD20822079072802D12046FFF7C4F802202870208900216D
:4066000002F0C4FF002070BD4C150020016A491C016204D1817E491C4906490E81767047C169491CC16104D1C17E491C4906490EC1767047F0B5074687B003A8009005A848
:4066400000260D460190002F01D0002400E01B4C002C05D06846FBF70FFF002803D00BE0022007B0F0BD68460089C00704D1902200212046FBF7AAFE1148294600688268CA
:4066800020469047050016D1A77066762746267140373E70204600F019F8204601F0B4F9084820820848BE77807AF121084000D001202075E682E8B2D3E70000B415002034
:4066C000980D0020B80B00004C150020002101628176C161C17620300177417770470079002805D0012803D0022801D001207047002070474030807F002800D0012070472B
:4067000040300078002807D0012805D0052803D00E2801D0012070470020704710B5807801F0F2F8002800D0012010BD10B500F0C7FB03498989090B01D0FFF7D5FE10BDF0
:40674000A0102E4070B5054604464035A87F002825D1FF206075A0789021154A484380186030417F9023491CC9B24177A0785843104B8018DB896030994201D3002141778B
:40678000A0789021484380186030467F0677A1783046FEF7A7FA002802D00120A87770BD0220A877A078314600F012FD70BD000094150020801600200020401C0006000E84
:4067C000FBD0002070470000F0B515468207920F85B0000A02926A469080002D01D0002400E0564C002C28D0084600F007FC07466846808800280BD00298012843D002282B
:4068000041D003280BD03D20005D012879D08FE04B48381801882046FFF717F888E00020029002A80BF024FB002807D03D20005D012802D12046FFF7E9FE7CE06846029E4F
:406840008388324600213846FCF742FD3C48381801882046FEF7F9FF284600F0B5FA01AA21463046FEF7E6FD002806D030460BF06FFB3D204C21085531E0F577314620464D
:4068800001F02AFA57E0002000902089039068460BF0DEFA002802D0002005B0F0BD6846009E8388321D00213846FCF711FD2448381801882046FEF7C8FF284600F084FA1A
:4068C0002046FFF70CFF002805D025464035287E002810D107E030460BF030FB2BE02046FFF764FA27E001AA21463046029BFEF7D9FD002806D030460BF020FB3D202873E4
:40690000EDE712E00298FEF7AFFF0399317003990001090A0143717068468088B070000AF0703046FFF7DAFC05E02046FFF76EFE284600F049FA0120AFE70000B4150020D2
:4069400000102E4010B5074A917B002901D0491E91730021FFF76EFE002801D0002010BD012010BD94150020F8B5074606464037B87F00282DD0B078902100904843234979
:4069800045186035287F0099FEF7C1F901281ED0287F401CC4B21E48C089A04200D800240020B877FF276F772F77A87702460146009800F079FD717DFF2903D0304600F0DD
:4069C000E4FF777501F05AFB0025114F19E00320B877F8BD00200090224669463046FEF7F7FE0099002904D0FF231A463046FEF7A6F9641CF889E4B2A04200D800246D1CB6
:406A0000EDB2F889A842E5D8F8BD0000941500208016002010B502460021084B03E0002901D0002000E018460479944204D0491C0906090EF3D0002010BD0000B415002054
:406A400000B50120FFF7E6FF00BD10B5044601F0C3FE2189018080346168416061682831816002F0C9FC10BDF7B50646087982B00C46092807D0A078F0770846FFF73AFE17
:406A8000012806D010E030460BF076FA022005B0F0BDA1789020294A484380186030007FFEF720F9012810D0A078FEF7D1FD01280BD037780121304601F08CFA25462035A0
:406AC000062F38D00B2F0FD107E06846027C21463046FEF7ADFE0D20D9E72046FDF72AFF012801D1002028772046FFF779FA054604AA21463046FEF70AFD01205F210855E6
:406B00006946097C002001910090A07833463A46294600F007FB69460A7CA0780323294600F048FEA0782946FDF726FD30460BF023FA0020ABE70120D5E7000094150020D1
:406B400010B502464032937F0021002B03D1927E002A00D00121064A927A002A00D000210279092A00D10121807800F065FE10BD6416002070B50C460546FDF7DBFE0028B7
:406B80000BD1012C06D92879092806D02846FFF7C5FD0446002C02D004E0012402E0A87DC007FAD1A87DC107C90F204600F024FE70BD0000012807D0082804D104480282F6
:406BC000034808300180704701488038FAE70000A0102E40014908817047000000102E4010B50446FF20F130012C01D1FF20D530002200F053FE044A108A044980B2A043B3
:406C00000880108210BD000000102E405A0D0020034B198A034A89B2814311801982704700102E405A0D002010B50446012802D0082C07D102E0FF20D53001E0FF20F13006
:406C400000F024FE0348018A034A89B221431180018210BD00102E405A0D0020034B198A034A89B2014311801982704700102E405A0D0020F8B505460120A84086B2144622
:406C80000F46012231467C2000F008FE3A463146782000F003FE6078267800020643E078A2780002024360792379000203430C2045430D2080010549281844182680001D8D
:406CC00044182280001D40180380F8BD00102E40401880B270470000CB065B0E0343480901021943D00108430121C902084301490881704780142E4042780378120213437B
:406D0000084A1382C37880781B021843908248780B78000203431383C8788978000201439183704700142E40024A1080000C90801181704700142E40044A00218018028866
:406D4000491C89B21029FAD37047000000102E40024A10820148803081817047A0102E407047000010B5054A1082084600F0BAFD024A0021A03A8018018010BDA0102E40ED
:406D800010B50B46044600F005F819462046FFF7DFFF10BD024A10820148803001817047A0102E4010B504490882FF20002220211D3000F073FD10BDA0102E40014908806A
:406DC00070470000C0102E40000202494D3008807047000000102E400249888A0422904388827047C0112E4010B5084B074C0202A03B0029208202D075321A8010BD04497F
:406E00000020088088807632F7E70000A0102E40201A2E4000B5034908884880FFF7F8FE00BD00005A0D002010B50120FDF75AFB01495020088010BD00102E4006490E2292
:406E40000028888806D01043888003495120C039088070479043F7E7C0102E4000B502484088FFF7FBFE00BD5A0D002010B5FCF72DFC10BD014952200880704700102E40A4
:406E8000884201D8081A03E00022D243101A401880B2704700210170704700000748808806492039098B884201D8081A03E00022D243101A401880B27047000020112E40C3
:406EC0000148008AC0B27047A0102E4070B5084C049D2082074804890548603006880E8001891180808818806007400F287070BDA0102E40E0112E400148008970470000AB
:406F0000C0102E4000280FD00D4A108B0870000A4870908B8870000AC8700948203000880871000A48717047064A10880870000A487090888870000AC8701089F0E700008B
:406F400040102E40C0112E4000B5024A00F004F800BD0000FF7F000000B51346FFF790FF984201D8022800D2002000BD0148008A70470000001A2E40024908820248008913
:406F800070470000A0102E40001A2E40014880887047000020102E40024908820148803000887047A0102E40064B1A8999891B8A0270120A42708170090AC1700371190ADC
:406FC0004171704760102E40012904D00549098BC90B017070470349403109898907C90FF7E7000000102E40024908820248008970470000A0102E40201A2E400148408924
:407000007047000080160020024908820248808970470000A0102E40001A2E40044A10820448028980894843101880B270470000A0102E40801600209021074B414300B5F2
:40704000C918FF2260314A770A7700228A77114600F02AFA00BD00009415002090225043074A10B58018FF21603041770177002181770448418EFF201D3000F007FC10BDF4
:40708000941500204C15002000B5044A1082034880308088022200F003F800BDA0102E4010B50023884201D8081A03E00024E443201A4018044980B2884201D8824200D9D8
:4070C0000123184610BD0000FF7F0000024880880006C00F70470000C0102E4002488089C007C00F70470000201A2E4070B55478157824022543D4788823260294783443B1
:407100005679127936023243002900D09823044908820348A038181805808480028170BDA0102E40FFB581B014460D4607460A9E0B9BFFF773FF002E0AD000933346002149
:40714000049AFCF755F905484019C45505B0F0BD0021049AFCF732F9F5E700005E0D002070B502460448054D808808242C800B460021FCF723F970BD80160020A0142E405A
:4071800010B5212402466401044953200880102300212046FCF712F910BD000000102E40417802780902044B0A431A83C1788078090208439883704760142E40034A10823C
:4071C000802001430148803001817047A0102E40054A1082044A6032908B0009000108439115084390837047A0102E4030B500210F4B0A46012809D0032802D005280AD19A
:4072000007E04021198102210A2204E004210C2201E004210D221882054C20342088C0B205460D42FAD022800021198230BD000080142E4010B504460748048207480180F3
